{
  "abi": [
    {
      "inputs": [],
      "stateMutability": "nonpayable",
      "type": "constructor"
    },
    {
      "inputs": [
        {
          "internalType": "uint256",
          "name": "",
          "type": "uint256"
        }
      ],
      "name": "campaigns",
      "outputs": [
        {
          "internalType": "address",
          "name": "campaignAddress",
          "type": "address"
        },
        {
          "internalType": "address",
          "name": "owner",
          "type": "address"
        },
        {
          "internalType": "string",
          "name": "name",
          "type": "string"
        },
        {
          "internalType": "uint256",
          "name": "creationTime",
          "type": "uint256"
        }
      ],
      "stateMutability": "view",
      "type": "function"
    },
    {
      "inputs": [
        {
          "internalType": "string",
          "name": "_name",
          "type": "string"
        },
        {
          "internalType": "string",
          "name": "_description",
          "type": "string"
        },
        {
          "internalType": "uint256",
          "name": "_goal",
          "type": "uint256"
        },
        {
          "internalType": "uint256",
          "name": "_durationInDays",
          "type": "uint256"
        }
      ],
      "name": "createCampaign",
      "outputs": [],
      "stateMutability": "nonpayable",
      "type": "function"
    },
    {
      "inputs": [],
      "name": "getAllCampaigns",
      "outputs": [
        {
          "components": [
            {
              "internalType": "address",
              "name": "campaignAddress",
              "type": "address"
            },
            {
              "internalType": "address",
              "name": "owner",
              "type": "address"
            },
            {
              "internalType": "string",
              "name": "name",
              "type": "string"
            },
            {
              "internalType": "uint256",
              "name": "creationTime",
              "type": "uint256"
            }
          ],
          "internalType": "struct CrowdfundingFactory.Campaign[]",
          "name": "",
          "type": "tuple[]"
        }
      ],
      "stateMutability": "view",
      "type": "function"
    },
    {
      "inputs": [
        {
          "internalType": "address",
          "name": "_user",
          "type": "address"
        }
      ],
      "name": "getUserCampaigns",
      "outputs": [
        {
          "components": [
            {
              "internalType": "address",
              "name": "campaignAddress",
              "type": "address"
            },
            {
              "internalType": "address",
              "name": "owner",
              "type": "address"
            },
            {
              "internalType": "string",
              "name": "name",
              "type": "string"
            },
            {
              "internalType": "uint256",
              "name": "creationTime",
              "type": "uint256"
            }
          ],
          "internalType": "struct CrowdfundingFactory.Campaign[]",
          "name": "",
          "type": "tuple[]"
        }
      ],
      "stateMutability": "view",
      "type": "function"
    },
    {
      "inputs": [],
      "name": "owner",
      "outputs": [
        {
          "internalType": "address",
          "name": "",
          "type": "address"
        }
      ],
      "stateMutability": "view",
      "type": "function"
    },
    {
      "inputs": [],
      "name": "paused",
      "outputs": [
        {
          "internalType": "bool",
          "name": "",
          "type": "bool"
        }
      ],
      "stateMutability": "view",
      "type": "function"
    },
    {
      "inputs": [],
      "name": "togglePause",
      "outputs": [],
      "stateMutability": "nonpayable",
      "type": "function"
    },
    {
      "inputs": [
        {
          "internalType": "address",
          "name": "",
          "type": "address"
        },
        {
          "internalType": "uint256",
          "name": "",
          "type": "uint256"
        }
      ],
      "name": "userCampaigns",
      "outputs": [
        {
          "internalType": "address",
          "name": "campaignAddress",
          "type": "address"
        },
        {
          "internalType": "address",
          "name": "owner",
          "type": "address"
        },
        {
          "internalType": "string",
          "name": "name",
          "type": "string"
        },
        {
          "internalType": "uint256",
          "name": "creationTime",
          "type": "uint256"
        }
      ],
      "stateMutability": "view",
      "type": "function"
    }
  ],
  "devdoc": {
    "kind": "dev",
    "methods": {},
    "version": 1
  },
  "evm": {
    "assembly": "    /* \"CrowdfundingFactory.sol\":107:1689  contract CrowdfundingFactory {... */\n  mstore(0x40, 0x80)\n    /* \"CrowdfundingFactory.sol\":609:658  constructor() {... */\n  callvalue\n  dup1\n  iszero\n  tag_1\n  jumpi\n  0x00\n  dup1\n  revert\ntag_1:\n  pop\n    /* \"CrowdfundingFactory.sol\":633:638  owner */\n  0x00\n    /* \"CrowdfundingFactory.sol\":633:651  owner = msg.sender */\n  dup1\n  sload\n  not(sub(shl(0xa0, 0x01), 0x01))\n  and\n    /* \"CrowdfundingFactory.sol\":641:651  msg.sender */\n  caller\n    /* \"CrowdfundingFactory.sol\":633:651  owner = msg.sender */\n  or\n  swap1\n  sstore\n    /* \"CrowdfundingFactory.sol\":107:1689  contract CrowdfundingFactory {... */\n  dataSize(sub_0)\n  dup1\n  dataOffset(sub_0)\n  0x00\n  codecopy\n  0x00\n  return\nstop\n\nsub_0: assembly {\n        /* \"CrowdfundingFactory.sol\":107:1689  contract CrowdfundingFactory {... */\n      mstore(0x40, 0x80)\n      callvalue\n      dup1\n      iszero\n      tag_1\n      jumpi\n      0x00\n      dup1\n      revert\n    tag_1:\n      pop\n      jumpi(tag_2, lt(calldatasize, 0x04))\n      shr(0xe0, calldataload(0x00))\n      dup1\n      0x8da5cb5b\n      gt\n      tag_11\n      jumpi\n      dup1\n      0x8da5cb5b\n      eq\n      tag_7\n      jumpi\n      dup1\n      0xa1e5084c\n      eq\n      tag_8\n      jumpi\n      dup1\n      0xa318f269\n      eq\n      tag_9\n      jumpi\n      dup1\n      0xc4ae3168\n      eq\n      tag_10\n      jumpi\n      0x00\n      dup1\n      revert\n    tag_11:\n      dup1\n      0x141961bc\n      eq\n      tag_3\n      jumpi\n      dup1\n      0x19ac74bd\n      eq\n      tag_4\n      jumpi\n      dup1\n      0x5c975abb\n      eq\n      tag_5\n      jumpi\n      dup1\n      0x86cdf604\n      eq\n      tag_6\n      jumpi\n    tag_2:\n      0x00\n      dup1\n      revert\n        /* \"CrowdfundingFactory.sol\":329:356  Campaign[] public campaigns */\n    tag_3:\n      tag_12\n      tag_13\n      calldatasize\n      0x04\n      tag_14\n      jump\t// in\n    tag_13:\n      tag_15\n      jump\t// in\n    tag_12:\n      mload(0x40)\n      tag_16\n      swap5\n      swap4\n      swap3\n      swap2\n      swap1\n      tag_17\n      jump\t// in\n    tag_16:\n      mload(0x40)\n      dup1\n      swap2\n      sub\n      swap1\n      return\n        /* \"CrowdfundingFactory.sol\":362:413  mapping(address => Campaign[]) public userCampaigns */\n    tag_4:\n      tag_12\n      tag_19\n      calldatasize\n      0x04\n      tag_20\n      jump\t// in\n    tag_19:\n      tag_21\n      jump\t// in\n        /* \"CrowdfundingFactory.sol\":168:186  bool public paused */\n    tag_5:\n      sload(0x00)\n      tag_23\n      swap1\n      shl(0xa0, 0x01)\n      swap1\n      div\n      0xff\n      and\n      dup2\n      jump\n    tag_23:\n      mload(0x40)\n        /* \"#utility.yul\":1637:1651   */\n      swap1\n      iszero\n        /* \"#utility.yul\":1630:1652   */\n      iszero\n        /* \"#utility.yul\":1612:1653   */\n      dup2\n      mstore\n        /* \"#utility.yul\":1600:1602   */\n      0x20\n        /* \"#utility.yul\":1585:1603   */\n      add\n        /* \"CrowdfundingFactory.sol\":168:186  bool public paused */\n      tag_16\n        /* \"#utility.yul\":1472:1659   */\n      jump\n        /* \"CrowdfundingFactory.sol\":1504:1606  function getAllCampaigns() external view returns (Campaign[] memory) {... */\n    tag_6:\n      tag_27\n      tag_28\n      jump\t// in\n    tag_27:\n      mload(0x40)\n      tag_16\n      swap2\n      swap1\n      tag_30\n      jump\t// in\n        /* \"CrowdfundingFactory.sol\":142:162  address public owner */\n    tag_7:\n      sload(0x00)\n      tag_31\n      swap1\n      sub(shl(0xa0, 0x01), 0x01)\n      and\n      dup2\n      jump\n    tag_31:\n      mload(0x40)\n      sub(shl(0xa0, 0x01), 0x01)\n        /* \"#utility.yul\":3142:3197   */\n      swap1\n      swap2\n      and\n        /* \"#utility.yul\":3124:3198   */\n      dup2\n      mstore\n        /* \"#utility.yul\":3112:3114   */\n      0x20\n        /* \"#utility.yul\":3097:3115   */\n      add\n        /* \"CrowdfundingFactory.sol\":142:162  address public owner */\n      tag_16\n        /* \"#utility.yul\":2978:3204   */\n      jump\n        /* \"CrowdfundingFactory.sol\":1371:1498  function getUserCampaigns(address _user) external view returns (Campaign[] memory) {... */\n    tag_8:\n      tag_27\n      tag_36\n      calldatasize\n      0x04\n      tag_37\n      jump\t// in\n    tag_36:\n      tag_38\n      jump\t// in\n        /* \"CrowdfundingFactory.sol\":664:1365  function createCampaign(... */\n    tag_9:\n      tag_40\n      tag_41\n      calldatasize\n      0x04\n      tag_42\n      jump\t// in\n    tag_41:\n      tag_43\n      jump\t// in\n    tag_40:\n      stop\n        /* \"CrowdfundingFactory.sol\":1612:1687  function togglePause() external onlyOwner {... */\n    tag_10:\n      tag_40\n      tag_45\n      jump\t// in\n        /* \"CrowdfundingFactory.sol\":329:356  Campaign[] public campaigns */\n    tag_15:\n      0x01\n      dup2\n      dup2\n      sload\n      dup2\n      lt\n      tag_46\n      jumpi\n      0x00\n      dup1\n      revert\n    tag_46:\n      0x00\n      swap2\n      dup3\n      mstore\n      0x20\n      swap1\n      swap2\n      keccak256\n      0x04\n      swap1\n      swap2\n      mul\n      add\n      dup1\n      sload\n      0x01\n      dup3\n      add\n      sload\n      0x02\n      dup4\n      add\n      dup1\n      sload\n      sub(shl(0xa0, 0x01), 0x01)\n      swap4\n      dup5\n      and\n      swap6\n      pop\n      swap3\n      swap1\n      swap2\n      and\n      swap3\n      swap2\n      tag_48\n      swap1\n      tag_49\n      jump\t// in\n    tag_48:\n      dup1\n      0x1f\n      add\n      0x20\n      dup1\n      swap2\n      div\n      mul\n      0x20\n      add\n      mload(0x40)\n      swap1\n      dup2\n      add\n      0x40\n      mstore\n      dup1\n      swap3\n      swap2\n      swap1\n      dup2\n      dup2\n      mstore\n      0x20\n      add\n      dup3\n      dup1\n      sload\n      tag_50\n      swap1\n      tag_49\n      jump\t// in\n    tag_50:\n      dup1\n      iszero\n      tag_51\n      jumpi\n      dup1\n      0x1f\n      lt\n      tag_52\n      jumpi\n      0x0100\n      dup1\n      dup4\n      sload\n      div\n      mul\n      dup4\n      mstore\n      swap2\n      0x20\n      add\n      swap2\n      jump(tag_51)\n    tag_52:\n      dup3\n      add\n      swap2\n      swap1\n      0x00\n      mstore\n      keccak256(0x00, 0x20)\n      swap1\n    tag_53:\n      dup2\n      sload\n      dup2\n      mstore\n      swap1\n      0x01\n      add\n      swap1\n      0x20\n      add\n      dup1\n      dup4\n      gt\n      tag_53\n      jumpi\n      dup3\n      swap1\n      sub\n      0x1f\n      and\n      dup3\n      add\n      swap2\n    tag_51:\n      pop\n      pop\n      pop\n      pop\n      pop\n      swap1\n      dup1\n      0x03\n      add\n      sload\n      swap1\n      pop\n      dup5\n      jump\t// out\n        /* \"CrowdfundingFactory.sol\":362:413  mapping(address => Campaign[]) public userCampaigns */\n    tag_21:\n      mstore(0x20, 0x02)\n      dup2\n      0x00\n      mstore\n      keccak256(0x00, 0x40)\n      dup2\n      dup2\n      sload\n      dup2\n      lt\n      tag_54\n      jumpi\n      0x00\n      dup1\n      revert\n    tag_54:\n      0x00\n      swap2\n      dup3\n      mstore\n      0x20\n      swap1\n      swap2\n      keccak256\n      0x04\n      swap1\n      swap2\n      mul\n      add\n      dup1\n      sload\n      0x01\n      dup3\n      add\n      sload\n      0x02\n      dup4\n      add\n      dup1\n      sload\n      sub(shl(0xa0, 0x01), 0x01)\n      swap4\n      dup5\n      and\n      swap7\n      pop\n      swap2\n      swap1\n      swap3\n      and\n      swap4\n      pop\n      tag_48\n      swap1\n      tag_49\n      jump\t// in\n        /* \"CrowdfundingFactory.sol\":1504:1606  function getAllCampaigns() external view returns (Campaign[] memory) {... */\n    tag_28:\n        /* \"CrowdfundingFactory.sol\":1554:1571  Campaign[] memory */\n      0x60\n        /* \"CrowdfundingFactory.sol\":1590:1599  campaigns */\n      0x01\n        /* \"CrowdfundingFactory.sol\":1583:1599  return campaigns */\n      dup1\n      sload\n      dup1\n      0x20\n      mul\n      0x20\n      add\n      mload(0x40)\n      swap1\n      dup2\n      add\n      0x40\n      mstore\n      dup1\n      swap3\n      swap2\n      swap1\n      dup2\n      dup2\n      mstore\n      0x20\n      add\n      0x00\n      swap1\n    tag_62:\n      dup3\n      dup3\n      lt\n      iszero\n      tag_63\n      jumpi\n      0x00\n      dup5\n      dup2\n      mstore\n      0x20\n      swap1\n      dup2\n      swap1\n      keccak256\n      0x40\n      dup1\n      mload\n      0x80\n      dup2\n      add\n      dup3\n      mstore\n      0x04\n      dup7\n      mul\n      swap1\n      swap3\n      add\n      dup1\n      sload\n      sub(shl(0xa0, 0x01), 0x01)\n      swap1\n      dup2\n      and\n      dup5\n      mstore\n      0x01\n      dup3\n      add\n      sload\n      and\n      swap4\n      dup4\n      add\n      swap4\n      swap1\n      swap4\n      mstore\n      0x02\n      dup4\n      add\n      dup1\n      sload\n      swap3\n      swap4\n      swap3\n      swap2\n      dup5\n      add\n      swap2\n      tag_65\n      swap1\n      tag_49\n      jump\t// in\n    tag_65:\n      dup1\n      0x1f\n      add\n      0x20\n      dup1\n      swap2\n      div\n      mul\n      0x20\n      add\n      mload(0x40)\n      swap1\n      dup2\n      add\n      0x40\n      mstore\n      dup1\n      swap3\n      swap2\n      swap1\n      dup2\n      dup2\n      mstore\n      0x20\n      add\n      dup3\n      dup1\n      sload\n      tag_66\n      swap1\n      tag_49\n      jump\t// in\n    tag_66:\n      dup1\n      iszero\n      tag_67\n      jumpi\n      dup1\n      0x1f\n      lt\n      tag_68\n      jumpi\n      0x0100\n      dup1\n      dup4\n      sload\n      div\n      mul\n      dup4\n      mstore\n      swap2\n      0x20\n      add\n      swap2\n      jump(tag_67)\n    tag_68:\n      dup3\n      add\n      swap2\n      swap1\n      0x00\n      mstore\n      keccak256(0x00, 0x20)\n      swap1\n    tag_69:\n      dup2\n      sload\n      dup2\n      mstore\n      swap1\n      0x01\n      add\n      swap1\n      0x20\n      add\n      dup1\n      dup4\n      gt\n      tag_69\n      jumpi\n      dup3\n      swap1\n      sub\n      0x1f\n      and\n      dup3\n      add\n      swap2\n    tag_67:\n      pop\n      pop\n      pop\n      pop\n      pop\n      dup2\n      mstore\n      0x20\n      add\n      0x03\n      dup3\n      add\n      sload\n      dup2\n      mstore\n      pop\n      pop\n      dup2\n      mstore\n      0x20\n      add\n      swap1\n      0x01\n      add\n      swap1\n      jump(tag_62)\n    tag_63:\n      pop\n      pop\n      pop\n      pop\n      swap1\n      pop\n        /* \"CrowdfundingFactory.sol\":1504:1606  function getAllCampaigns() external view returns (Campaign[] memory) {... */\n      swap1\n      jump\t// out\n        /* \"CrowdfundingFactory.sol\":1371:1498  function getUserCampaigns(address _user) external view returns (Campaign[] memory) {... */\n    tag_38:\n      sub(shl(0xa0, 0x01), 0x01)\n        /* \"CrowdfundingFactory.sol\":1471:1491  userCampaigns[_user] */\n      dup2\n      and\n      0x00\n      swap1\n      dup2\n      mstore\n        /* \"CrowdfundingFactory.sol\":1471:1484  userCampaigns */\n      0x02\n        /* \"CrowdfundingFactory.sol\":1471:1491  userCampaigns[_user] */\n      0x20\n      swap1\n      dup2\n      mstore\n      0x40\n      dup1\n      dup4\n      keccak256\n        /* \"CrowdfundingFactory.sol\":1464:1491  return userCampaigns[_user] */\n      dup1\n      sload\n      dup3\n      mload\n      dup2\n      dup6\n      mul\n      dup2\n      add\n      dup6\n      add\n      swap1\n      swap4\n      mstore\n      dup1\n      dup4\n      mstore\n        /* \"CrowdfundingFactory.sol\":1435:1452  Campaign[] memory */\n      0x60\n      swap5\n        /* \"CrowdfundingFactory.sol\":1464:1491  return userCampaigns[_user] */\n      swap3\n      swap4\n        /* \"CrowdfundingFactory.sol\":1471:1491  userCampaigns[_user] */\n      swap2\n      swap3\n        /* \"CrowdfundingFactory.sol\":1464:1491  return userCampaigns[_user] */\n      swap1\n      swap2\n      dup5\n      add\n    tag_71:\n      dup3\n      dup3\n      lt\n      iszero\n      tag_72\n      jumpi\n      0x00\n      dup5\n      dup2\n      mstore\n      0x20\n      swap1\n      dup2\n      swap1\n      keccak256\n      0x40\n      dup1\n      mload\n      0x80\n      dup2\n      add\n      dup3\n      mstore\n      0x04\n      dup7\n      mul\n      swap1\n      swap3\n      add\n      dup1\n      sload\n      sub(shl(0xa0, 0x01), 0x01)\n      swap1\n      dup2\n      and\n      dup5\n      mstore\n      0x01\n      dup3\n      add\n      sload\n      and\n      swap4\n      dup4\n      add\n      swap4\n      swap1\n      swap4\n      mstore\n      0x02\n      dup4\n      add\n      dup1\n      sload\n      swap3\n      swap4\n      swap3\n      swap2\n      dup5\n      add\n      swap2\n      tag_74\n      swap1\n      tag_49\n      jump\t// in\n    tag_74:\n      dup1\n      0x1f\n      add\n      0x20\n      dup1\n      swap2\n      div\n      mul\n      0x20\n      add\n      mload(0x40)\n      swap1\n      dup2\n      add\n      0x40\n      mstore\n      dup1\n      swap3\n      swap2\n      swap1\n      dup2\n      dup2\n      mstore\n      0x20\n      add\n      dup3\n      dup1\n      sload\n      tag_75\n      swap1\n      tag_49\n      jump\t// in\n    tag_75:\n      dup1\n      iszero\n      tag_76\n      jumpi\n      dup1\n      0x1f\n      lt\n      tag_77\n      jumpi\n      0x0100\n      dup1\n      dup4\n      sload\n      div\n      mul\n      dup4\n      mstore\n      swap2\n      0x20\n      add\n      swap2\n      jump(tag_76)\n    tag_77:\n      dup3\n      add\n      swap2\n      swap1\n      0x00\n      mstore\n      keccak256(0x00, 0x20)\n      swap1\n    tag_78:\n      dup2\n      sload\n      dup2\n      mstore\n      swap1\n      0x01\n      add\n      swap1\n      0x20\n      add\n      dup1\n      dup4\n      gt\n      tag_78\n      jumpi\n      dup3\n      swap1\n      sub\n      0x1f\n      and\n      dup3\n      add\n      swap2\n    tag_76:\n      pop\n      pop\n      pop\n      pop\n      pop\n      dup2\n      mstore\n      0x20\n      add\n      0x03\n      dup3\n      add\n      sload\n      dup2\n      mstore\n      pop\n      pop\n      dup2\n      mstore\n      0x20\n      add\n      swap1\n      0x01\n      add\n      swap1\n      jump(tag_71)\n    tag_72:\n      pop\n      pop\n      pop\n      pop\n      swap1\n      pop\n        /* \"CrowdfundingFactory.sol\":1371:1498  function getUserCampaigns(address _user) external view returns (Campaign[] memory) {... */\n      swap2\n      swap1\n      pop\n      jump\t// out\n        /* \"CrowdfundingFactory.sol\":664:1365  function createCampaign(... */\n    tag_43:\n        /* \"CrowdfundingFactory.sol\":557:563  paused */\n      sload(0x00)\n      shl(0xa0, 0x01)\n      swap1\n      div\n      0xff\n      and\n        /* \"CrowdfundingFactory.sol\":556:563  !paused */\n      iszero\n        /* \"CrowdfundingFactory.sol\":548:585  require(!paused, \"Factory is paused\") */\n      tag_80\n      jumpi\n      mload(0x40)\n      shl(0xe5, 0x461bcd)\n      dup2\n      mstore\n        /* \"#utility.yul\":5528:5530   */\n      0x20\n        /* \"CrowdfundingFactory.sol\":548:585  require(!paused, \"Factory is paused\") */\n      0x04\n      dup3\n      add\n        /* \"#utility.yul\":5510:5531   */\n      mstore\n        /* \"#utility.yul\":5567:5569   */\n      0x11\n        /* \"#utility.yul\":5547:5565   */\n      0x24\n      dup3\n      add\n        /* \"#utility.yul\":5540:5570   */\n      mstore\n        /* \"#utility.yul\":5606:5625   */\n      0x466163746f727920697320706175736564000000000000000000000000000000\n        /* \"#utility.yul\":5586:5604   */\n      0x44\n      dup3\n      add\n        /* \"#utility.yul\":5579:5626   */\n      mstore\n        /* \"#utility.yul\":5643:5661   */\n      0x64\n      add\n        /* \"CrowdfundingFactory.sol\":548:585  require(!paused, \"Factory is paused\") */\n    tag_81:\n      mload(0x40)\n      dup1\n      swap2\n      sub\n      swap1\n      revert\n    tag_80:\n        /* \"CrowdfundingFactory.sol\":844:868  Crowdfunding newCampaign */\n      0x00\n        /* \"CrowdfundingFactory.sol\":901:911  msg.sender */\n      caller\n        /* \"CrowdfundingFactory.sol\":925:930  _name */\n      dup6\n        /* \"CrowdfundingFactory.sol\":944:956  _description */\n      dup6\n        /* \"CrowdfundingFactory.sol\":970:975  _goal */\n      dup6\n        /* \"CrowdfundingFactory.sol\":989:1004  _durationInDays */\n      dup6\n        /* \"CrowdfundingFactory.sol\":871:1014  new Crowdfunding(... */\n      mload(0x40)\n      tag_84\n      swap1\n      tag_85\n      jump\t// in\n    tag_84:\n      tag_86\n      swap6\n      swap5\n      swap4\n      swap3\n      swap2\n      swap1\n      tag_87\n      jump\t// in\n    tag_86:\n      mload(0x40)\n      dup1\n      swap2\n      sub\n      swap1\n      0x00\n      create\n      dup1\n      iszero\n      dup1\n      iszero\n      tag_88\n      jumpi\n      returndatasize\n      0x00\n      dup1\n      returndatacopy\n      revert(0x00, returndatasize)\n    tag_88:\n      pop\n        /* \"CrowdfundingFactory.sol\":1108:1273  Campaign({... */\n      0x40\n      dup1\n      mload\n      0x80\n      dup2\n      add\n      dup3\n      mstore\n      sub(shl(0xa0, 0x01), 0x01)\n      dup1\n      dup5\n      and\n      dup3\n      mstore\n        /* \"CrowdfundingFactory.sol\":1184:1194  msg.sender */\n      caller\n        /* \"CrowdfundingFactory.sol\":1108:1273  Campaign({... */\n      0x20\n      dup4\n      add\n      swap1\n      dup2\n      mstore\n      swap3\n      dup3\n      add\n      dup10\n      dup2\n      mstore\n        /* \"CrowdfundingFactory.sol\":1247:1262  block.timestamp */\n      timestamp\n        /* \"CrowdfundingFactory.sol\":1108:1273  Campaign({... */\n      0x60\n      dup5\n      add\n      mstore\n        /* \"CrowdfundingFactory.sol\":1284:1293  campaigns */\n      0x01\n        /* \"CrowdfundingFactory.sol\":1284:1308  campaigns.push(campaign) */\n      dup1\n      sload\n      dup1\n      dup3\n      add\n      dup3\n      sstore\n        /* \"CrowdfundingFactory.sol\":1024:1047  address campaignAddress */\n      0x00\n        /* \"CrowdfundingFactory.sol\":1284:1308  campaigns.push(campaign) */\n      swap2\n      swap1\n      swap2\n      mstore\n      dup4\n      mload\n      0x04\n      swap1\n      swap2\n      mul\n      0xb10e2d527612073b26eecdfd717e6a320cf44b4afac2b0732d9fcbe2b7fa0cf6\n      dup2\n      add\n      dup1\n      sload\n      swap3\n      dup6\n      and\n      not(0xffffffffffffffffffffffffffffffffffffffff)\n      swap4\n      dup5\n      and\n      or\n      dup2\n      sstore\n      swap6\n      mload\n      0xb10e2d527612073b26eecdfd717e6a320cf44b4afac2b0732d9fcbe2b7fa0cf7\n      dup3\n      add\n      dup1\n      sload\n      swap2\n      swap1\n      swap6\n      and\n      swap3\n      and\n      swap2\n      swap1\n      swap2\n      or\n      swap1\n      swap3\n      sstore\n      mload\n        /* \"CrowdfundingFactory.sol\":844:1014  Crowdfunding newCampaign = new Crowdfunding(... */\n      swap4\n      swap5\n      pop\n      dup5\n      swap4\n        /* \"CrowdfundingFactory.sol\":1108:1273  Campaign({... */\n      swap2\n      swap3\n      dup4\n      swap3\n        /* \"CrowdfundingFactory.sol\":1284:1308  campaigns.push(campaign) */\n      swap1\n      swap2\n      0xb10e2d527612073b26eecdfd717e6a320cf44b4afac2b0732d9fcbe2b7fa0cf8\n      add\n      swap1\n      tag_90\n      swap1\n      dup3\n      tag_91\n      jump\t// in\n    tag_90:\n      pop\n      0x60\n      swap2\n      swap1\n      swap2\n      add\n      mload\n      0x03\n      swap1\n      swap2\n      add\n      sstore\n        /* \"CrowdfundingFactory.sol\":1332:1342  msg.sender */\n      caller\n        /* \"CrowdfundingFactory.sol\":1318:1343  userCampaigns[msg.sender] */\n      0x00\n      swap1\n      dup2\n      mstore\n        /* \"CrowdfundingFactory.sol\":1318:1331  userCampaigns */\n      0x02\n        /* \"CrowdfundingFactory.sol\":1318:1343  userCampaigns[msg.sender] */\n      0x20\n      dup2\n      dup2\n      mstore\n      0x40\n      dup1\n      dup5\n      keccak256\n        /* \"CrowdfundingFactory.sol\":1318:1358  userCampaigns[msg.sender].push(campaign) */\n      dup1\n      sload\n      0x01\n      dup1\n      dup3\n      add\n      dup4\n      sstore\n      swap2\n      dup7\n      mstore\n      swap5\n      dup4\n      swap1\n      keccak256\n      dup7\n      mload\n      0x04\n      swap1\n      swap7\n      mul\n      add\n      dup1\n      sload\n      not(0xffffffffffffffffffffffffffffffffffffffff)\n      swap1\n      dup2\n      and\n      sub(shl(0xa0, 0x01), 0x01)\n      swap8\n      dup9\n      and\n      or\n      dup3\n      sstore\n      swap4\n      dup8\n      add\n      mload\n      swap2\n      dup2\n      add\n      dup1\n      sload\n      swap1\n      swap5\n      and\n      swap2\n      swap1\n      swap6\n      and\n      or\n      swap1\n      swap2\n      sstore\n      dup4\n      add\n      mload\n      dup4\n      swap3\n      swap2\n      dup3\n      add\n      swap1\n      tag_93\n      swap1\n      dup3\n      tag_91\n      jump\t// in\n    tag_93:\n      pop\n      0x60\n      dup3\n      add\n      mload\n      dup2\n      0x03\n      add\n      sstore\n      pop\n      pop\n        /* \"CrowdfundingFactory.sol\":834:1365  {... */\n      pop\n      pop\n      pop\n        /* \"CrowdfundingFactory.sol\":664:1365  function createCampaign(... */\n      pop\n      pop\n      pop\n      pop\n      jump\t// out\n        /* \"CrowdfundingFactory.sol\":1612:1687  function togglePause() external onlyOwner {... */\n    tag_45:\n        /* \"CrowdfundingFactory.sol\":473:478  owner */\n      and(sub(shl(0xa0, 0x01), 0x01), sload(0x00))\n        /* \"CrowdfundingFactory.sol\":459:469  msg.sender */\n      caller\n        /* \"CrowdfundingFactory.sol\":459:478  msg.sender == owner */\n      eq\n        /* \"CrowdfundingFactory.sol\":451:493  require(msg.sender == owner, \"Not owner.\") */\n      tag_95\n      jumpi\n      mload(0x40)\n      shl(0xe5, 0x461bcd)\n      dup2\n      mstore\n        /* \"#utility.yul\":8697:8699   */\n      0x20\n        /* \"CrowdfundingFactory.sol\":451:493  require(msg.sender == owner, \"Not owner.\") */\n      0x04\n      dup3\n      add\n        /* \"#utility.yul\":8679:8700   */\n      mstore\n        /* \"#utility.yul\":8736:8738   */\n      0x0a\n        /* \"#utility.yul\":8716:8734   */\n      0x24\n      dup3\n      add\n        /* \"#utility.yul\":8709:8739   */\n      mstore\n        /* \"#utility.yul\":8775:8787   */\n      0x4e6f74206f776e65722e00000000000000000000000000000000000000000000\n        /* \"#utility.yul\":8755:8773   */\n      0x44\n      dup3\n      add\n        /* \"#utility.yul\":8748:8788   */\n      mstore\n        /* \"#utility.yul\":8805:8823   */\n      0x64\n      add\n        /* \"CrowdfundingFactory.sol\":451:493  require(msg.sender == owner, \"Not owner.\") */\n      tag_81\n        /* \"#utility.yul\":8495:8829   */\n      jump\n        /* \"CrowdfundingFactory.sol\":451:493  require(msg.sender == owner, \"Not owner.\") */\n    tag_95:\n        /* \"CrowdfundingFactory.sol\":1674:1680  paused */\n      0x00\n      dup1\n      sload\n        /* \"CrowdfundingFactory.sol\":1664:1680  paused = !paused */\n      0xffffffffffffffffffffff00ffffffffffffffffffffffffffffffffffffffff\n      dup2\n      and\n      shl(0xa0, 0x01)\n        /* \"CrowdfundingFactory.sol\":1674:1680  paused */\n      swap2\n      dup3\n      swap1\n      div\n      0xff\n      and\n        /* \"CrowdfundingFactory.sol\":1673:1680  !paused */\n      iszero\n        /* \"CrowdfundingFactory.sol\":1664:1680  paused = !paused */\n      swap1\n      swap2\n      mul\n      or\n      swap1\n      sstore\n        /* \"CrowdfundingFactory.sol\":1612:1687  function togglePause() external onlyOwner {... */\n      jump\t// out\n    tag_85:\n      dataSize(sub_0)\n      dup1\n      dataOffset(sub_0)\n      dup4\n      codecopy\n      add\n      swap1\n      jump\t// out\n        /* \"#utility.yul\":14:194   */\n    tag_14:\n        /* \"#utility.yul\":73:79   */\n      0x00\n        /* \"#utility.yul\":126:128   */\n      0x20\n        /* \"#utility.yul\":114:123   */\n      dup3\n        /* \"#utility.yul\":105:112   */\n      dup5\n        /* \"#utility.yul\":101:124   */\n      sub\n        /* \"#utility.yul\":97:129   */\n      slt\n        /* \"#utility.yul\":94:146   */\n      iszero\n      tag_108\n      jumpi\n        /* \"#utility.yul\":142:143   */\n      0x00\n        /* \"#utility.yul\":139:140   */\n      dup1\n        /* \"#utility.yul\":132:144   */\n      revert\n        /* \"#utility.yul\":94:146   */\n    tag_108:\n      pop\n        /* \"#utility.yul\":165:188   */\n      calldataload\n      swap2\n        /* \"#utility.yul\":14:194   */\n      swap1\n      pop\n      jump\t// out\n        /* \"#utility.yul\":199:488   */\n    tag_99:\n        /* \"#utility.yul\":241:244   */\n      0x00\n        /* \"#utility.yul\":279:284   */\n      dup2\n        /* \"#utility.yul\":273:285   */\n      mload\n        /* \"#utility.yul\":306:312   */\n      dup1\n        /* \"#utility.yul\":301:304   */\n      dup5\n        /* \"#utility.yul\":294:313   */\n      mstore\n        /* \"#utility.yul\":362:368   */\n      dup1\n        /* \"#utility.yul\":355:359   */\n      0x20\n        /* \"#utility.yul\":348:353   */\n      dup5\n        /* \"#utility.yul\":344:360   */\n      add\n        /* \"#utility.yul\":337:341   */\n      0x20\n        /* \"#utility.yul\":332:335   */\n      dup7\n        /* \"#utility.yul\":328:342   */\n      add\n        /* \"#utility.yul\":322:369   */\n      mcopy\n        /* \"#utility.yul\":414:415   */\n      0x00\n        /* \"#utility.yul\":407:411   */\n      0x20\n        /* \"#utility.yul\":398:404   */\n      dup3\n        /* \"#utility.yul\":393:396   */\n      dup7\n        /* \"#utility.yul\":389:405   */\n      add\n        /* \"#utility.yul\":385:412   */\n      add\n        /* \"#utility.yul\":378:416   */\n      mstore\n        /* \"#utility.yul\":477:481   */\n      0x20\n        /* \"#utility.yul\":470:472   */\n      0x1f\n        /* \"#utility.yul\":466:473   */\n      not\n        /* \"#utility.yul\":461:463   */\n      0x1f\n        /* \"#utility.yul\":453:459   */\n      dup4\n        /* \"#utility.yul\":449:464   */\n      add\n        /* \"#utility.yul\":445:474   */\n      and\n        /* \"#utility.yul\":440:443   */\n      dup6\n        /* \"#utility.yul\":436:475   */\n      add\n        /* \"#utility.yul\":432:482   */\n      add\n        /* \"#utility.yul\":425:482   */\n      swap2\n      pop\n      pop\n        /* \"#utility.yul\":199:488   */\n      swap3\n      swap2\n      pop\n      pop\n      jump\t// out\n        /* \"#utility.yul\":493:1007   */\n    tag_17:\n        /* \"#utility.yul\":689:693   */\n      0x00\n      sub(shl(0xa0, 0x01), 0x01)\n        /* \"#utility.yul\":799:801   */\n      dup1\n        /* \"#utility.yul\":791:797   */\n      dup8\n        /* \"#utility.yul\":787:802   */\n      and\n        /* \"#utility.yul\":776:785   */\n      dup4\n        /* \"#utility.yul\":769:803   */\n      mstore\n        /* \"#utility.yul\":851:853   */\n      dup1\n        /* \"#utility.yul\":843:849   */\n      dup7\n        /* \"#utility.yul\":839:854   */\n      and\n        /* \"#utility.yul\":834:836   */\n      0x20\n        /* \"#utility.yul\":823:832   */\n      dup5\n        /* \"#utility.yul\":819:837   */\n      add\n        /* \"#utility.yul\":812:855   */\n      mstore\n      pop\n        /* \"#utility.yul\":891:894   */\n      0x80\n        /* \"#utility.yul\":886:888   */\n      0x40\n        /* \"#utility.yul\":875:884   */\n      dup4\n        /* \"#utility.yul\":871:889   */\n      add\n        /* \"#utility.yul\":864:895   */\n      mstore\n        /* \"#utility.yul\":912:958   */\n      tag_111\n        /* \"#utility.yul\":953:956   */\n      0x80\n        /* \"#utility.yul\":942:951   */\n      dup4\n        /* \"#utility.yul\":938:957   */\n      add\n        /* \"#utility.yul\":930:936   */\n      dup6\n        /* \"#utility.yul\":912:958   */\n      tag_99\n      jump\t// in\n    tag_111:\n        /* \"#utility.yul\":904:958   */\n      swap1\n      pop\n        /* \"#utility.yul\":994:1000   */\n      dup3\n        /* \"#utility.yul\":989:991   */\n      0x60\n        /* \"#utility.yul\":978:987   */\n      dup4\n        /* \"#utility.yul\":974:992   */\n      add\n        /* \"#utility.yul\":967:1001   */\n      mstore\n        /* \"#utility.yul\":493:1007   */\n      swap6\n      swap5\n      pop\n      pop\n      pop\n      pop\n      pop\n      jump\t// out\n        /* \"#utility.yul\":1012:1208   */\n    tag_100:\n        /* \"#utility.yul\":1080:1100   */\n      dup1\n      calldataload\n      sub(shl(0xa0, 0x01), 0x01)\n        /* \"#utility.yul\":1129:1183   */\n      dup2\n      and\n        /* \"#utility.yul\":1119:1184   */\n      dup2\n      eq\n        /* \"#utility.yul\":1109:1202   */\n      tag_113\n      jumpi\n        /* \"#utility.yul\":1198:1199   */\n      0x00\n        /* \"#utility.yul\":1195:1196   */\n      dup1\n        /* \"#utility.yul\":1188:1200   */\n      revert\n        /* \"#utility.yul\":1109:1202   */\n    tag_113:\n        /* \"#utility.yul\":1012:1208   */\n      swap2\n      swap1\n      pop\n      jump\t// out\n        /* \"#utility.yul\":1213:1467   */\n    tag_20:\n        /* \"#utility.yul\":1281:1287   */\n      0x00\n        /* \"#utility.yul\":1289:1295   */\n      dup1\n        /* \"#utility.yul\":1342:1344   */\n      0x40\n        /* \"#utility.yul\":1330:1339   */\n      dup4\n        /* \"#utility.yul\":1321:1328   */\n      dup6\n        /* \"#utility.yul\":1317:1340   */\n      sub\n        /* \"#utility.yul\":1313:1345   */\n      slt\n        /* \"#utility.yul\":1310:1362   */\n      iszero\n      tag_115\n      jumpi\n        /* \"#utility.yul\":1358:1359   */\n      0x00\n        /* \"#utility.yul\":1355:1356   */\n      dup1\n        /* \"#utility.yul\":1348:1360   */\n      revert\n        /* \"#utility.yul\":1310:1362   */\n    tag_115:\n        /* \"#utility.yul\":1381:1410   */\n      tag_116\n        /* \"#utility.yul\":1400:1409   */\n      dup4\n        /* \"#utility.yul\":1381:1410   */\n      tag_100\n      jump\t// in\n    tag_116:\n        /* \"#utility.yul\":1371:1410   */\n      swap5\n        /* \"#utility.yul\":1457:1459   */\n      0x20\n        /* \"#utility.yul\":1442:1460   */\n      swap4\n      swap1\n      swap4\n      add\n        /* \"#utility.yul\":1429:1461   */\n      calldataload\n      swap4\n      pop\n      pop\n      pop\n        /* \"#utility.yul\":1213:1467   */\n      jump\t// out\n        /* \"#utility.yul\":1664:2973   */\n    tag_30:\n        /* \"#utility.yul\":1856:1860   */\n      0x00\n        /* \"#utility.yul\":1885:1887   */\n      0x20\n        /* \"#utility.yul\":1925:1927   */\n      dup1\n        /* \"#utility.yul\":1914:1923   */\n      dup4\n        /* \"#utility.yul\":1910:1928   */\n      add\n        /* \"#utility.yul\":1955:1957   */\n      dup2\n        /* \"#utility.yul\":1944:1953   */\n      dup5\n        /* \"#utility.yul\":1937:1958   */\n      mstore\n        /* \"#utility.yul\":1978:1984   */\n      dup1\n        /* \"#utility.yul\":2013:2019   */\n      dup6\n        /* \"#utility.yul\":2007:2020   */\n      mload\n        /* \"#utility.yul\":2044:2050   */\n      dup1\n        /* \"#utility.yul\":2036:2042   */\n      dup4\n        /* \"#utility.yul\":2029:2051   */\n      mstore\n        /* \"#utility.yul\":2070:2072   */\n      0x40\n        /* \"#utility.yul\":2060:2072   */\n      swap3\n      pop\n        /* \"#utility.yul\":2103:2105   */\n      0x40\n        /* \"#utility.yul\":2092:2101   */\n      dup7\n        /* \"#utility.yul\":2088:2106   */\n      add\n        /* \"#utility.yul\":2081:2106   */\n      swap2\n      pop\n        /* \"#utility.yul\":2165:2167   */\n      0x40\n        /* \"#utility.yul\":2155:2161   */\n      dup2\n        /* \"#utility.yul\":2152:2153   */\n      0x05\n        /* \"#utility.yul\":2148:2162   */\n      shl\n        /* \"#utility.yul\":2137:2146   */\n      dup8\n        /* \"#utility.yul\":2133:2163   */\n      add\n        /* \"#utility.yul\":2129:2168   */\n      add\n        /* \"#utility.yul\":2203:2205   */\n      dup5\n        /* \"#utility.yul\":2195:2201   */\n      dup9\n        /* \"#utility.yul\":2191:2206   */\n      add\n        /* \"#utility.yul\":2224:2225   */\n      0x00\n        /* \"#utility.yul\":2234:2944   */\n    tag_119:\n        /* \"#utility.yul\":2248:2254   */\n      dup4\n        /* \"#utility.yul\":2245:2246   */\n      dup2\n        /* \"#utility.yul\":2242:2255   */\n      lt\n        /* \"#utility.yul\":2234:2944   */\n      iszero\n      tag_121\n      jumpi\n        /* \"#utility.yul\":2341:2343   */\n      0x3f\n        /* \"#utility.yul\":2337:2344   */\n      not\n        /* \"#utility.yul\":2325:2334   */\n      dup10\n        /* \"#utility.yul\":2317:2323   */\n      dup5\n        /* \"#utility.yul\":2313:2335   */\n      sub\n        /* \"#utility.yul\":2309:2345   */\n      add\n        /* \"#utility.yul\":2304:2307   */\n      dup6\n        /* \"#utility.yul\":2297:2346   */\n      mstore\n        /* \"#utility.yul\":2375:2381   */\n      dup2\n        /* \"#utility.yul\":2369:2382   */\n      mload\n        /* \"#utility.yul\":2405:2409   */\n      0x80\n      sub(shl(0xa0, 0x01), 0x01)\n        /* \"#utility.yul\":2517:2519   */\n      dup1\n        /* \"#utility.yul\":2512:2514   */\n      dup4\n        /* \"#utility.yul\":2506:2515   */\n      mload\n        /* \"#utility.yul\":2502:2520   */\n      and\n        /* \"#utility.yul\":2494:2500   */\n      dup7\n        /* \"#utility.yul\":2487:2521   */\n      mstore\n        /* \"#utility.yul\":2582:2584   */\n      dup1\n        /* \"#utility.yul\":2576:2578   */\n      dup11\n        /* \"#utility.yul\":2572:2574   */\n      dup5\n        /* \"#utility.yul\":2568:2579   */\n      add\n        /* \"#utility.yul\":2562:2580   */\n      mload\n        /* \"#utility.yul\":2558:2585   */\n      and\n        /* \"#utility.yul\":2553:2555   */\n      dup11\n        /* \"#utility.yul\":2545:2551   */\n      dup8\n        /* \"#utility.yul\":2541:2556   */\n      add\n        /* \"#utility.yul\":2534:2586   */\n      mstore\n      pop\n        /* \"#utility.yul\":2633:2635   */\n      dup8\n        /* \"#utility.yul\":2629:2631   */\n      dup3\n        /* \"#utility.yul\":2625:2636   */\n      add\n        /* \"#utility.yul\":2619:2637   */\n      mload\n        /* \"#utility.yul\":2674:2676   */\n      dup2\n        /* \"#utility.yul\":2669:2671   */\n      dup10\n        /* \"#utility.yul\":2661:2667   */\n      dup8\n        /* \"#utility.yul\":2657:2672   */\n      add\n        /* \"#utility.yul\":2650:2677   */\n      mstore\n        /* \"#utility.yul\":2704:2752   */\n      tag_122\n        /* \"#utility.yul\":2748:2750   */\n      dup3\n        /* \"#utility.yul\":2740:2746   */\n      dup8\n        /* \"#utility.yul\":2736:2751   */\n      add\n        /* \"#utility.yul\":2722:2734   */\n      dup3\n        /* \"#utility.yul\":2704:2752   */\n      tag_99\n      jump\t// in\n    tag_122:\n        /* \"#utility.yul\":2775:2779   */\n      0x60\n        /* \"#utility.yul\":2822:2833   */\n      swap4\n      dup5\n      add\n        /* \"#utility.yul\":2816:2834   */\n      mload\n        /* \"#utility.yul\":2799:2814   */\n      swap7\n      swap1\n      swap4\n      add\n        /* \"#utility.yul\":2792:2835   */\n      swap6\n      swap1\n      swap6\n      mstore\n      pop\n        /* \"#utility.yul\":2922:2934   */\n      swap5\n      dup8\n      add\n      swap5\n        /* \"#utility.yul\":2690:2752   */\n      swap3\n      pop\n        /* \"#utility.yul\":2887:2902   */\n      swap1\n      dup7\n      add\n      swap1\n        /* \"#utility.yul\":2270:2271   */\n      0x01\n        /* \"#utility.yul\":2263:2272   */\n      add\n        /* \"#utility.yul\":2234:2944   */\n      jump(tag_119)\n    tag_121:\n      pop\n        /* \"#utility.yul\":2961:2967   */\n      swap1\n      swap9\n        /* \"#utility.yul\":1664:2973   */\n      swap8\n      pop\n      pop\n      pop\n      pop\n      pop\n      pop\n      pop\n      pop\n      jump\t// out\n        /* \"#utility.yul\":3209:3395   */\n    tag_37:\n        /* \"#utility.yul\":3268:3274   */\n      0x00\n        /* \"#utility.yul\":3321:3323   */\n      0x20\n        /* \"#utility.yul\":3309:3318   */\n      dup3\n        /* \"#utility.yul\":3300:3307   */\n      dup5\n        /* \"#utility.yul\":3296:3319   */\n      sub\n        /* \"#utility.yul\":3292:3324   */\n      slt\n        /* \"#utility.yul\":3289:3341   */\n      iszero\n      tag_125\n      jumpi\n        /* \"#utility.yul\":3337:3338   */\n      0x00\n        /* \"#utility.yul\":3334:3335   */\n      dup1\n        /* \"#utility.yul\":3327:3339   */\n      revert\n        /* \"#utility.yul\":3289:3341   */\n    tag_125:\n        /* \"#utility.yul\":3360:3389   */\n      tag_126\n        /* \"#utility.yul\":3379:3388   */\n      dup3\n        /* \"#utility.yul\":3360:3389   */\n      tag_100\n      jump\t// in\n    tag_126:\n        /* \"#utility.yul\":3350:3389   */\n      swap4\n        /* \"#utility.yul\":3209:3395   */\n      swap3\n      pop\n      pop\n      pop\n      jump\t// out\n        /* \"#utility.yul\":3400:3527   */\n    tag_101:\n        /* \"#utility.yul\":3461:3471   */\n      0x4e487b71\n        /* \"#utility.yul\":3456:3459   */\n      0xe0\n        /* \"#utility.yul\":3452:3472   */\n      shl\n        /* \"#utility.yul\":3449:3450   */\n      0x00\n        /* \"#utility.yul\":3442:3473   */\n      mstore\n        /* \"#utility.yul\":3492:3496   */\n      0x41\n        /* \"#utility.yul\":3489:3490   */\n      0x04\n        /* \"#utility.yul\":3482:3497   */\n      mstore\n        /* \"#utility.yul\":3516:3520   */\n      0x24\n        /* \"#utility.yul\":3513:3514   */\n      0x00\n        /* \"#utility.yul\":3506:3521   */\n      revert\n        /* \"#utility.yul\":3532:4251   */\n    tag_102:\n        /* \"#utility.yul\":3575:3580   */\n      0x00\n        /* \"#utility.yul\":3628:3631   */\n      dup3\n        /* \"#utility.yul\":3621:3625   */\n      0x1f\n        /* \"#utility.yul\":3613:3619   */\n      dup4\n        /* \"#utility.yul\":3609:3626   */\n      add\n        /* \"#utility.yul\":3605:3632   */\n      slt\n        /* \"#utility.yul\":3595:3650   */\n      tag_129\n      jumpi\n        /* \"#utility.yul\":3646:3647   */\n      0x00\n        /* \"#utility.yul\":3643:3644   */\n      dup1\n        /* \"#utility.yul\":3636:3648   */\n      revert\n        /* \"#utility.yul\":3595:3650   */\n    tag_129:\n        /* \"#utility.yul\":3682:3688   */\n      dup2\n        /* \"#utility.yul\":3669:3689   */\n      calldataload\n        /* \"#utility.yul\":3708:3726   */\n      0xffffffffffffffff\n        /* \"#utility.yul\":3745:3747   */\n      dup1\n        /* \"#utility.yul\":3741:3743   */\n      dup3\n        /* \"#utility.yul\":3738:3748   */\n      gt\n        /* \"#utility.yul\":3735:3771   */\n      iszero\n      tag_131\n      jumpi\n        /* \"#utility.yul\":3751:3769   */\n      tag_131\n      tag_101\n      jump\t// in\n    tag_131:\n        /* \"#utility.yul\":3826:3828   */\n      0x40\n        /* \"#utility.yul\":3820:3829   */\n      mload\n        /* \"#utility.yul\":3794:3796   */\n      0x1f\n        /* \"#utility.yul\":3880:3893   */\n      dup4\n      add\n      not(0x1f)\n        /* \"#utility.yul\":3876:3898   */\n      swap1\n      dup2\n      and\n        /* \"#utility.yul\":3900:3902   */\n      0x3f\n        /* \"#utility.yul\":3872:3903   */\n      add\n        /* \"#utility.yul\":3868:3908   */\n      and\n        /* \"#utility.yul\":3856:3909   */\n      dup2\n      add\n      swap1\n        /* \"#utility.yul\":3924:3942   */\n      dup3\n      dup3\n      gt\n        /* \"#utility.yul\":3944:3966   */\n      dup2\n      dup4\n      lt\n        /* \"#utility.yul\":3921:3967   */\n      or\n        /* \"#utility.yul\":3918:3990   */\n      iszero\n      tag_133\n      jumpi\n        /* \"#utility.yul\":3970:3988   */\n      tag_133\n      tag_101\n      jump\t// in\n    tag_133:\n        /* \"#utility.yul\":4010:4020   */\n      dup2\n        /* \"#utility.yul\":4006:4008   */\n      0x40\n        /* \"#utility.yul\":3999:4021   */\n      mstore\n        /* \"#utility.yul\":4045:4047   */\n      dup4\n        /* \"#utility.yul\":4037:4043   */\n      dup2\n        /* \"#utility.yul\":4030:4048   */\n      mstore\n        /* \"#utility.yul\":4091:4094   */\n      dup7\n        /* \"#utility.yul\":4084:4088   */\n      0x20\n        /* \"#utility.yul\":4079:4081   */\n      dup6\n        /* \"#utility.yul\":4071:4077   */\n      dup9\n        /* \"#utility.yul\":4067:4082   */\n      add\n        /* \"#utility.yul\":4063:4089   */\n      add\n        /* \"#utility.yul\":4060:4095   */\n      gt\n        /* \"#utility.yul\":4057:4112   */\n      iszero\n      tag_134\n      jumpi\n        /* \"#utility.yul\":4108:4109   */\n      0x00\n        /* \"#utility.yul\":4105:4106   */\n      dup1\n        /* \"#utility.yul\":4098:4110   */\n      revert\n        /* \"#utility.yul\":4057:4112   */\n    tag_134:\n        /* \"#utility.yul\":4172:4174   */\n      dup4\n        /* \"#utility.yul\":4165:4169   */\n      0x20\n        /* \"#utility.yul\":4157:4163   */\n      dup8\n        /* \"#utility.yul\":4153:4170   */\n      add\n        /* \"#utility.yul\":4146:4150   */\n      0x20\n        /* \"#utility.yul\":4138:4144   */\n      dup4\n        /* \"#utility.yul\":4134:4151   */\n      add\n        /* \"#utility.yul\":4121:4175   */\n      calldatacopy\n        /* \"#utility.yul\":4219:4220   */\n      0x00\n        /* \"#utility.yul\":4212:4216   */\n      0x20\n        /* \"#utility.yul\":4207:4209   */\n      dup6\n        /* \"#utility.yul\":4199:4205   */\n      dup4\n        /* \"#utility.yul\":4195:4210   */\n      add\n        /* \"#utility.yul\":4191:4217   */\n      add\n        /* \"#utility.yul\":4184:4221   */\n      mstore\n        /* \"#utility.yul\":4239:4245   */\n      dup1\n        /* \"#utility.yul\":4230:4245   */\n      swap5\n      pop\n      pop\n      pop\n      pop\n      pop\n        /* \"#utility.yul\":3532:4251   */\n      swap3\n      swap2\n      pop\n      pop\n      jump\t// out\n        /* \"#utility.yul\":4256:4936   */\n    tag_42:\n        /* \"#utility.yul\":4362:4368   */\n      0x00\n        /* \"#utility.yul\":4370:4376   */\n      dup1\n        /* \"#utility.yul\":4378:4384   */\n      0x00\n        /* \"#utility.yul\":4386:4392   */\n      dup1\n        /* \"#utility.yul\":4439:4442   */\n      0x80\n        /* \"#utility.yul\":4427:4436   */\n      dup6\n        /* \"#utility.yul\":4418:4425   */\n      dup8\n        /* \"#utility.yul\":4414:4437   */\n      sub\n        /* \"#utility.yul\":4410:4443   */\n      slt\n        /* \"#utility.yul\":4407:4460   */\n      iszero\n      tag_136\n      jumpi\n        /* \"#utility.yul\":4456:4457   */\n      0x00\n        /* \"#utility.yul\":4453:4454   */\n      dup1\n        /* \"#utility.yul\":4446:4458   */\n      revert\n        /* \"#utility.yul\":4407:4460   */\n    tag_136:\n        /* \"#utility.yul\":4496:4505   */\n      dup5\n        /* \"#utility.yul\":4483:4506   */\n      calldataload\n        /* \"#utility.yul\":4525:4543   */\n      0xffffffffffffffff\n        /* \"#utility.yul\":4566:4568   */\n      dup1\n        /* \"#utility.yul\":4558:4564   */\n      dup3\n        /* \"#utility.yul\":4555:4569   */\n      gt\n        /* \"#utility.yul\":4552:4586   */\n      iszero\n      tag_137\n      jumpi\n        /* \"#utility.yul\":4582:4583   */\n      0x00\n        /* \"#utility.yul\":4579:4580   */\n      dup1\n        /* \"#utility.yul\":4572:4584   */\n      revert\n        /* \"#utility.yul\":4552:4586   */\n    tag_137:\n        /* \"#utility.yul\":4605:4655   */\n      tag_138\n        /* \"#utility.yul\":4647:4654   */\n      dup9\n        /* \"#utility.yul\":4638:4644   */\n      dup4\n        /* \"#utility.yul\":4627:4636   */\n      dup10\n        /* \"#utility.yul\":4623:4645   */\n      add\n        /* \"#utility.yul\":4605:4655   */\n      tag_102\n      jump\t// in\n    tag_138:\n        /* \"#utility.yul\":4595:4655   */\n      swap6\n      pop\n        /* \"#utility.yul\":4708:4710   */\n      0x20\n        /* \"#utility.yul\":4697:4706   */\n      dup8\n        /* \"#utility.yul\":4693:4711   */\n      add\n        /* \"#utility.yul\":4680:4712   */\n      calldataload\n        /* \"#utility.yul\":4664:4712   */\n      swap2\n      pop\n        /* \"#utility.yul\":4737:4739   */\n      dup1\n        /* \"#utility.yul\":4727:4735   */\n      dup3\n        /* \"#utility.yul\":4724:4740   */\n      gt\n        /* \"#utility.yul\":4721:4757   */\n      iszero\n      tag_139\n      jumpi\n        /* \"#utility.yul\":4753:4754   */\n      0x00\n        /* \"#utility.yul\":4750:4751   */\n      dup1\n        /* \"#utility.yul\":4743:4755   */\n      revert\n        /* \"#utility.yul\":4721:4757   */\n    tag_139:\n      pop\n        /* \"#utility.yul\":4776:4828   */\n      tag_140\n        /* \"#utility.yul\":4820:4827   */\n      dup8\n        /* \"#utility.yul\":4809:4817   */\n      dup3\n        /* \"#utility.yul\":4798:4807   */\n      dup9\n        /* \"#utility.yul\":4794:4818   */\n      add\n        /* \"#utility.yul\":4776:4828   */\n      tag_102\n      jump\t// in\n    tag_140:\n        /* \"#utility.yul\":4256:4936   */\n      swap5\n      swap8\n        /* \"#utility.yul\":4766:4828   */\n      swap5\n      swap7\n      pop\n      pop\n      pop\n      pop\n        /* \"#utility.yul\":4875:4877   */\n      0x40\n        /* \"#utility.yul\":4860:4878   */\n      dup4\n      add\n        /* \"#utility.yul\":4847:4879   */\n      calldataload\n      swap3\n        /* \"#utility.yul\":4926:4928   */\n      0x60\n        /* \"#utility.yul\":4911:4929   */\n      add\n        /* \"#utility.yul\":4898:4930   */\n      calldataload\n      swap2\n        /* \"#utility.yul\":4256:4936   */\n      swap1\n      pop\n      jump\t// out\n        /* \"#utility.yul\":4941:5321   */\n    tag_49:\n        /* \"#utility.yul\":5020:5021   */\n      0x01\n        /* \"#utility.yul\":5016:5028   */\n      dup2\n      dup2\n      shr\n      swap1\n        /* \"#utility.yul\":5063:5075   */\n      dup3\n      and\n      dup1\n        /* \"#utility.yul\":5084:5145   */\n      tag_142\n      jumpi\n        /* \"#utility.yul\":5138:5142   */\n      0x7f\n        /* \"#utility.yul\":5130:5136   */\n      dup3\n        /* \"#utility.yul\":5126:5143   */\n      and\n        /* \"#utility.yul\":5116:5143   */\n      swap2\n      pop\n        /* \"#utility.yul\":5084:5145   */\n    tag_142:\n        /* \"#utility.yul\":5191:5193   */\n      0x20\n        /* \"#utility.yul\":5183:5189   */\n      dup3\n        /* \"#utility.yul\":5180:5194   */\n      lt\n        /* \"#utility.yul\":5160:5178   */\n      dup2\n        /* \"#utility.yul\":5157:5195   */\n      sub\n        /* \"#utility.yul\":5154:5315   */\n      tag_143\n      jumpi\n        /* \"#utility.yul\":5237:5247   */\n      0x4e487b71\n        /* \"#utility.yul\":5232:5235   */\n      0xe0\n        /* \"#utility.yul\":5228:5248   */\n      shl\n        /* \"#utility.yul\":5225:5226   */\n      0x00\n        /* \"#utility.yul\":5218:5249   */\n      mstore\n        /* \"#utility.yul\":5272:5276   */\n      0x22\n        /* \"#utility.yul\":5269:5270   */\n      0x04\n        /* \"#utility.yul\":5262:5277   */\n      mstore\n        /* \"#utility.yul\":5300:5304   */\n      0x24\n        /* \"#utility.yul\":5297:5298   */\n      0x00\n        /* \"#utility.yul\":5290:5305   */\n      revert\n        /* \"#utility.yul\":5154:5315   */\n    tag_143:\n      pop\n        /* \"#utility.yul\":4941:5321   */\n      swap2\n      swap1\n      pop\n      jump\t// out\n        /* \"#utility.yul\":5672:6320   */\n    tag_87:\n      sub(shl(0xa0, 0x01), 0x01)\n        /* \"#utility.yul\":5957:5963   */\n      dup7\n        /* \"#utility.yul\":5953:6008   */\n      and\n        /* \"#utility.yul\":5942:5951   */\n      dup2\n        /* \"#utility.yul\":5935:6009   */\n      mstore\n        /* \"#utility.yul\":6045:6048   */\n      0xa0\n        /* \"#utility.yul\":6040:6042   */\n      0x20\n        /* \"#utility.yul\":6029:6038   */\n      dup3\n        /* \"#utility.yul\":6025:6043   */\n      add\n        /* \"#utility.yul\":6018:6049   */\n      mstore\n        /* \"#utility.yul\":5916:5920   */\n      0x00\n        /* \"#utility.yul\":6072:6118   */\n      tag_146\n        /* \"#utility.yul\":6113:6116   */\n      0xa0\n        /* \"#utility.yul\":6102:6111   */\n      dup4\n        /* \"#utility.yul\":6098:6117   */\n      add\n        /* \"#utility.yul\":6090:6096   */\n      dup8\n        /* \"#utility.yul\":6072:6118   */\n      tag_99\n      jump\t// in\n    tag_146:\n        /* \"#utility.yul\":6166:6175   */\n      dup3\n        /* \"#utility.yul\":6158:6164   */\n      dup2\n        /* \"#utility.yul\":6154:6176   */\n      sub\n        /* \"#utility.yul\":6149:6151   */\n      0x40\n        /* \"#utility.yul\":6138:6147   */\n      dup5\n        /* \"#utility.yul\":6134:6152   */\n      add\n        /* \"#utility.yul\":6127:6177   */\n      mstore\n        /* \"#utility.yul\":6194:6227   */\n      tag_147\n        /* \"#utility.yul\":6220:6226   */\n      dup2\n        /* \"#utility.yul\":6212:6218   */\n      dup8\n        /* \"#utility.yul\":6194:6227   */\n      tag_99\n      jump\t// in\n    tag_147:\n        /* \"#utility.yul\":6258:6260   */\n      0x60\n        /* \"#utility.yul\":6243:6261   */\n      dup5\n      add\n        /* \"#utility.yul\":6236:6270   */\n      swap6\n      swap1\n      swap6\n      mstore\n      pop\n      pop\n        /* \"#utility.yul\":6301:6304   */\n      0x80\n        /* \"#utility.yul\":6286:6305   */\n      add\n        /* \"#utility.yul\":6279:6314   */\n      mstore\n        /* \"#utility.yul\":6186:6227   */\n      swap4\n        /* \"#utility.yul\":5672:6320   */\n      swap3\n      pop\n      pop\n      pop\n      jump\t// out\n        /* \"#utility.yul\":6451:6969   */\n    tag_104:\n        /* \"#utility.yul\":6553:6555   */\n      0x1f\n        /* \"#utility.yul\":6548:6551   */\n      dup3\n        /* \"#utility.yul\":6545:6556   */\n      gt\n        /* \"#utility.yul\":6542:6963   */\n      iszero\n      tag_150\n      jumpi\n        /* \"#utility.yul\":6589:6594   */\n      dup1\n        /* \"#utility.yul\":6586:6587   */\n      0x00\n        /* \"#utility.yul\":6579:6595   */\n      mstore\n        /* \"#utility.yul\":6633:6637   */\n      0x20\n        /* \"#utility.yul\":6630:6631   */\n      0x00\n        /* \"#utility.yul\":6620:6638   */\n      keccak256\n        /* \"#utility.yul\":6703:6705   */\n      0x1f\n        /* \"#utility.yul\":6691:6701   */\n      dup5\n        /* \"#utility.yul\":6687:6706   */\n      add\n        /* \"#utility.yul\":6684:6685   */\n      0x05\n        /* \"#utility.yul\":6680:6707   */\n      shr\n        /* \"#utility.yul\":6674:6678   */\n      dup2\n        /* \"#utility.yul\":6670:6708   */\n      add\n        /* \"#utility.yul\":6739:6743   */\n      0x20\n        /* \"#utility.yul\":6727:6737   */\n      dup6\n        /* \"#utility.yul\":6724:6744   */\n      lt\n        /* \"#utility.yul\":6721:6768   */\n      iszero\n      tag_151\n      jumpi\n      pop\n        /* \"#utility.yul\":6762:6766   */\n      dup1\n        /* \"#utility.yul\":6721:6768   */\n    tag_151:\n        /* \"#utility.yul\":6817:6819   */\n      0x1f\n        /* \"#utility.yul\":6812:6815   */\n      dup5\n        /* \"#utility.yul\":6808:6820   */\n      add\n        /* \"#utility.yul\":6805:6806   */\n      0x05\n        /* \"#utility.yul\":6801:6821   */\n      shr\n        /* \"#utility.yul\":6795:6799   */\n      dup3\n        /* \"#utility.yul\":6791:6822   */\n      add\n        /* \"#utility.yul\":6781:6822   */\n      swap2\n      pop\n        /* \"#utility.yul\":6872:6953   */\n    tag_152:\n        /* \"#utility.yul\":6890:6892   */\n      dup2\n        /* \"#utility.yul\":6883:6888   */\n      dup2\n        /* \"#utility.yul\":6880:6893   */\n      lt\n        /* \"#utility.yul\":6872:6953   */\n      iszero\n      tag_154\n      jumpi\n        /* \"#utility.yul\":6949:6950   */\n      0x00\n        /* \"#utility.yul\":6935:6951   */\n      dup2\n      sstore\n        /* \"#utility.yul\":6916:6917   */\n      0x01\n        /* \"#utility.yul\":6905:6918   */\n      add\n        /* \"#utility.yul\":6872:6953   */\n      jump(tag_152)\n    tag_154:\n        /* \"#utility.yul\":6876:6879   */\n      pop\n      pop\n        /* \"#utility.yul\":6542:6963   */\n    tag_150:\n        /* \"#utility.yul\":6451:6969   */\n      pop\n      pop\n      pop\n      jump\t// out\n        /* \"#utility.yul\":7145:8490   */\n    tag_91:\n        /* \"#utility.yul\":7271:7274   */\n      dup2\n        /* \"#utility.yul\":7265:7275   */\n      mload\n        /* \"#utility.yul\":7298:7316   */\n      0xffffffffffffffff\n        /* \"#utility.yul\":7290:7296   */\n      dup2\n        /* \"#utility.yul\":7287:7317   */\n      gt\n        /* \"#utility.yul\":7284:7340   */\n      iszero\n      tag_158\n      jumpi\n        /* \"#utility.yul\":7320:7338   */\n      tag_158\n      tag_101\n      jump\t// in\n    tag_158:\n        /* \"#utility.yul\":7349:7446   */\n      tag_159\n        /* \"#utility.yul\":7439:7445   */\n      dup2\n        /* \"#utility.yul\":7399:7437   */\n      tag_160\n        /* \"#utility.yul\":7431:7435   */\n      dup5\n        /* \"#utility.yul\":7425:7436   */\n      sload\n        /* \"#utility.yul\":7399:7437   */\n      tag_49\n      jump\t// in\n    tag_160:\n        /* \"#utility.yul\":7393:7397   */\n      dup5\n        /* \"#utility.yul\":7349:7446   */\n      tag_104\n      jump\t// in\n    tag_159:\n        /* \"#utility.yul\":7501:7505   */\n      0x20\n      dup1\n        /* \"#utility.yul\":7558:7560   */\n      0x1f\n        /* \"#utility.yul\":7547:7561   */\n      dup4\n      gt\n        /* \"#utility.yul\":7575:7576   */\n      0x01\n        /* \"#utility.yul\":7570:8233   */\n      dup2\n      eq\n      tag_162\n      jumpi\n        /* \"#utility.yul\":8277:8278   */\n      0x00\n        /* \"#utility.yul\":8294:8300   */\n      dup5\n        /* \"#utility.yul\":8291:8380   */\n      iszero\n      tag_163\n      jumpi\n      pop\n        /* \"#utility.yul\":8346:8365   */\n      dup6\n      dup4\n      add\n        /* \"#utility.yul\":8340:8366   */\n      mload\n        /* \"#utility.yul\":8291:8380   */\n    tag_163:\n      not(0x00)\n        /* \"#utility.yul\":7102:7103   */\n      0x03\n        /* \"#utility.yul\":7098:7109   */\n      dup7\n      swap1\n      shl\n        /* \"#utility.yul\":7094:7118   */\n      shr\n        /* \"#utility.yul\":7090:7119   */\n      not\n        /* \"#utility.yul\":7080:7120   */\n      and\n        /* \"#utility.yul\":7126:7127   */\n      0x01\n        /* \"#utility.yul\":7122:7133   */\n      dup6\n      swap1\n      shl\n        /* \"#utility.yul\":7077:7134   */\n      or\n        /* \"#utility.yul\":8393:8474   */\n      dup6\n      sstore\n        /* \"#utility.yul\":7540:8484   */\n      jump(tag_161)\n        /* \"#utility.yul\":7570:8233   */\n    tag_162:\n        /* \"#utility.yul\":6398:6399   */\n      0x00\n        /* \"#utility.yul\":6391:6405   */\n      dup6\n      dup2\n      mstore\n        /* \"#utility.yul\":6435:6439   */\n      0x20\n        /* \"#utility.yul\":6422:6440   */\n      dup2\n      keccak256\n      not(0x1f)\n        /* \"#utility.yul\":7606:7626   */\n      dup7\n      and\n      swap2\n        /* \"#utility.yul\":7724:7960   */\n    tag_166:\n        /* \"#utility.yul\":7738:7745   */\n      dup3\n        /* \"#utility.yul\":7735:7736   */\n      dup2\n        /* \"#utility.yul\":7732:7746   */\n      lt\n        /* \"#utility.yul\":7724:7960   */\n      iszero\n      tag_168\n      jumpi\n        /* \"#utility.yul\":7827:7846   */\n      dup9\n      dup7\n      add\n        /* \"#utility.yul\":7821:7847   */\n      mload\n        /* \"#utility.yul\":7806:7848   */\n      dup3\n      sstore\n        /* \"#utility.yul\":7919:7946   */\n      swap5\n      dup5\n      add\n      swap5\n        /* \"#utility.yul\":7887:7888   */\n      0x01\n        /* \"#utility.yul\":7875:7889   */\n      swap1\n      swap2\n      add\n      swap1\n        /* \"#utility.yul\":7754:7773   */\n      dup5\n      add\n        /* \"#utility.yul\":7724:7960   */\n      jump(tag_166)\n    tag_168:\n        /* \"#utility.yul\":7728:7731   */\n      pop\n        /* \"#utility.yul\":7988:7994   */\n      dup6\n        /* \"#utility.yul\":7979:7986   */\n      dup3\n        /* \"#utility.yul\":7976:7995   */\n      lt\n        /* \"#utility.yul\":7973:8174   */\n      iszero\n      tag_169\n      jumpi\n        /* \"#utility.yul\":8049:8068   */\n      dup8\n      dup6\n      add\n        /* \"#utility.yul\":8043:8069   */\n      mload\n      not(0x00)\n        /* \"#utility.yul\":8132:8133   */\n      0x03\n        /* \"#utility.yul\":8128:8142   */\n      dup9\n      swap1\n      shl\n        /* \"#utility.yul\":8144:8147   */\n      0xf8\n        /* \"#utility.yul\":8124:8148   */\n      and\n        /* \"#utility.yul\":8120:8157   */\n      shr\n        /* \"#utility.yul\":8116:8158   */\n      not\n        /* \"#utility.yul\":8101:8159   */\n      and\n        /* \"#utility.yul\":8086:8160   */\n      dup2\n      sstore\n        /* \"#utility.yul\":7973:8174   */\n    tag_169:\n      pop\n      pop\n        /* \"#utility.yul\":8220:8221   */\n      0x01\n        /* \"#utility.yul\":8211:8217   */\n      dup5\n        /* \"#utility.yul\":8208:8209   */\n      0x01\n        /* \"#utility.yul\":8204:8218   */\n      shl\n        /* \"#utility.yul\":8200:8222   */\n      add\n        /* \"#utility.yul\":8194:8198   */\n      dup6\n        /* \"#utility.yul\":8187:8223   */\n      sstore\n        /* \"#utility.yul\":7540:8484   */\n    tag_161:\n      pop\n      pop\n      pop\n      pop\n        /* \"#utility.yul\":7145:8490   */\n      pop\n      pop\n      jump\t// out\n    stop\n\n    sub_0: assembly {\n            /* \"Crowdfunding.sol\":57:4104  contract Crowdfunding {... */\n          mstore(0x40, 0x80)\n            /* \"Crowdfunding.sol\":929:1308  constructor(... */\n          callvalue\n          dup1\n          iszero\n          tag_1\n          jumpi\n          0x00\n          dup1\n          revert\n        tag_1:\n          pop\n          mload(0x40)\n          sub(codesize, bytecodeSize)\n          dup1\n          bytecodeSize\n          dup4\n          codecopy\n          dup2\n          add\n          0x40\n          dup2\n          swap1\n          mstore\n          tag_2\n          swap2\n          tag_3\n          jump\t// in\n        tag_2:\n            /* \"Crowdfunding.sol\":1103:1107  name */\n          0x00\n            /* \"Crowdfunding.sol\":1103:1115  name = _name */\n          tag_6\n            /* \"Crowdfunding.sol\":1110:1115  _name */\n          dup6\n            /* \"Crowdfunding.sol\":1103:1107  name */\n          dup3\n            /* \"Crowdfunding.sol\":1103:1115  name = _name */\n          tag_7\n          jump\t// in\n        tag_6:\n          pop\n            /* \"Crowdfunding.sol\":1125:1136  description */\n          0x01\n            /* \"Crowdfunding.sol\":1125:1151  description = _description */\n          tag_8\n            /* \"Crowdfunding.sol\":1139:1151  _description */\n          dup5\n            /* \"Crowdfunding.sol\":1125:1136  description */\n          dup3\n            /* \"Crowdfunding.sol\":1125:1151  description = _description */\n          tag_7\n          jump\t// in\n        tag_8:\n          pop\n            /* \"Crowdfunding.sol\":1161:1165  goal */\n          0x02\n            /* \"Crowdfunding.sol\":1161:1173  goal = _goal */\n          dup3\n          swap1\n          sstore\n            /* \"Crowdfunding.sol\":1213:1238  _duratyionInDays * 1 days */\n          tag_9\n            /* \"Crowdfunding.sol\":1213:1229  _duratyionInDays */\n          dup2\n            /* \"Crowdfunding.sol\":1232:1238  1 days */\n          0x015180\n            /* \"Crowdfunding.sol\":1213:1238  _duratyionInDays * 1 days */\n          tag_10\n          jump\t// in\n        tag_9:\n            /* \"Crowdfunding.sol\":1194:1239  block.timestamp + (_duratyionInDays * 1 days) */\n          tag_11\n          swap1\n            /* \"Crowdfunding.sol\":1194:1209  block.timestamp */\n          timestamp\n            /* \"Crowdfunding.sol\":1194:1239  block.timestamp + (_duratyionInDays * 1 days) */\n          tag_12\n          jump\t// in\n        tag_11:\n            /* \"Crowdfunding.sol\":1183:1191  deadline */\n          0x03\n            /* \"Crowdfunding.sol\":1183:1239  deadline = block.timestamp + (_duratyionInDays * 1 days) */\n          sstore\n          pop\n          pop\n            /* \"Crowdfunding.sol\":1249:1254  owner */\n          0x04\n            /* \"Crowdfunding.sol\":1249:1263  owner = _owner */\n          dup1\n          sload\n          not(sub(shl(0xa0, 0xff01), 0x01))\n            /* \"Crowdfunding.sol\":1273:1301  state = CampaignState.Active */\n          and\n          sub(shl(0xa0, 0x01), 0x01)\n            /* \"Crowdfunding.sol\":1249:1263  owner = _owner */\n          swap5\n          swap1\n          swap5\n          and\n            /* \"Crowdfunding.sol\":1273:1301  state = CampaignState.Active */\n          swap4\n          swap1\n          swap4\n          or\n          swap1\n          swap3\n          sstore\n          pop\n            /* \"Crowdfunding.sol\":57:4104  contract Crowdfunding {... */\n          tag_24\n          swap1\n          pop\n          jump\n            /* \"#utility.yul\":14:141   */\n        tag_17:\n            /* \"#utility.yul\":75:85   */\n          0x4e487b71\n            /* \"#utility.yul\":70:73   */\n          0xe0\n            /* \"#utility.yul\":66:86   */\n          shl\n            /* \"#utility.yul\":63:64   */\n          0x00\n            /* \"#utility.yul\":56:87   */\n          mstore\n            /* \"#utility.yul\":106:110   */\n          0x41\n            /* \"#utility.yul\":103:104   */\n          0x04\n            /* \"#utility.yul\":96:111   */\n          mstore\n            /* \"#utility.yul\":130:134   */\n          0x24\n            /* \"#utility.yul\":127:128   */\n          0x00\n            /* \"#utility.yul\":120:135   */\n          revert\n            /* \"#utility.yul\":146:862   */\n        tag_18:\n            /* \"#utility.yul\":200:205   */\n          0x00\n            /* \"#utility.yul\":253:256   */\n          dup3\n            /* \"#utility.yul\":246:250   */\n          0x1f\n            /* \"#utility.yul\":238:244   */\n          dup4\n            /* \"#utility.yul\":234:251   */\n          add\n            /* \"#utility.yul\":230:257   */\n          slt\n            /* \"#utility.yul\":220:275   */\n          tag_27\n          jumpi\n            /* \"#utility.yul\":271:272   */\n          0x00\n            /* \"#utility.yul\":268:269   */\n          dup1\n            /* \"#utility.yul\":261:273   */\n          revert\n            /* \"#utility.yul\":220:275   */\n        tag_27:\n            /* \"#utility.yul\":294:307   */\n          dup2\n          mload\n          sub(shl(0x40, 0x01), 0x01)\n            /* \"#utility.yul\":356:366   */\n          dup1\n          dup3\n          gt\n            /* \"#utility.yul\":353:389   */\n          iszero\n          tag_29\n          jumpi\n            /* \"#utility.yul\":369:387   */\n          tag_29\n          tag_17\n          jump\t// in\n        tag_29:\n            /* \"#utility.yul\":444:446   */\n          0x40\n            /* \"#utility.yul\":438:447   */\n          mload\n            /* \"#utility.yul\":412:414   */\n          0x1f\n            /* \"#utility.yul\":498:511   */\n          dup4\n          add\n          not(0x1f)\n            /* \"#utility.yul\":494:516   */\n          swap1\n          dup2\n          and\n            /* \"#utility.yul\":518:520   */\n          0x3f\n            /* \"#utility.yul\":490:521   */\n          add\n            /* \"#utility.yul\":486:526   */\n          and\n            /* \"#utility.yul\":474:527   */\n          dup2\n          add\n          swap1\n            /* \"#utility.yul\":542:560   */\n          dup3\n          dup3\n          gt\n            /* \"#utility.yul\":562:584   */\n          dup2\n          dup4\n          lt\n            /* \"#utility.yul\":539:585   */\n          or\n            /* \"#utility.yul\":536:608   */\n          iszero\n          tag_31\n          jumpi\n            /* \"#utility.yul\":588:606   */\n          tag_31\n          tag_17\n          jump\t// in\n        tag_31:\n            /* \"#utility.yul\":628:638   */\n          dup2\n            /* \"#utility.yul\":624:626   */\n          0x40\n            /* \"#utility.yul\":617:639   */\n          mstore\n            /* \"#utility.yul\":663:665   */\n          dup4\n            /* \"#utility.yul\":655:661   */\n          dup2\n            /* \"#utility.yul\":648:666   */\n          mstore\n            /* \"#utility.yul\":709:712   */\n          dup7\n            /* \"#utility.yul\":702:706   */\n          0x20\n            /* \"#utility.yul\":697:699   */\n          dup6\n            /* \"#utility.yul\":689:695   */\n          dup9\n            /* \"#utility.yul\":685:700   */\n          add\n            /* \"#utility.yul\":681:707   */\n          add\n            /* \"#utility.yul\":678:713   */\n          gt\n            /* \"#utility.yul\":675:730   */\n          iszero\n          tag_32\n          jumpi\n            /* \"#utility.yul\":726:727   */\n          0x00\n            /* \"#utility.yul\":723:724   */\n          dup1\n            /* \"#utility.yul\":716:728   */\n          revert\n            /* \"#utility.yul\":675:730   */\n        tag_32:\n            /* \"#utility.yul\":783:785   */\n          dup4\n            /* \"#utility.yul\":776:780   */\n          0x20\n            /* \"#utility.yul\":768:774   */\n          dup8\n            /* \"#utility.yul\":764:781   */\n          add\n            /* \"#utility.yul\":757:761   */\n          0x20\n            /* \"#utility.yul\":749:755   */\n          dup4\n            /* \"#utility.yul\":745:762   */\n          add\n            /* \"#utility.yul\":739:786   */\n          mcopy\n            /* \"#utility.yul\":830:831   */\n          0x00\n            /* \"#utility.yul\":823:827   */\n          0x20\n            /* \"#utility.yul\":818:820   */\n          dup6\n            /* \"#utility.yul\":810:816   */\n          dup4\n            /* \"#utility.yul\":806:821   */\n          add\n            /* \"#utility.yul\":802:828   */\n          add\n            /* \"#utility.yul\":795:832   */\n          mstore\n            /* \"#utility.yul\":850:856   */\n          dup1\n            /* \"#utility.yul\":841:856   */\n          swap5\n          pop\n          pop\n          pop\n          pop\n          pop\n            /* \"#utility.yul\":146:862   */\n          swap3\n          swap2\n          pop\n          pop\n          jump\t// out\n            /* \"#utility.yul\":867:1720   */\n        tag_3:\n            /* \"#utility.yul\":993:999   */\n          0x00\n            /* \"#utility.yul\":1001:1007   */\n          dup1\n            /* \"#utility.yul\":1009:1015   */\n          0x00\n            /* \"#utility.yul\":1017:1023   */\n          dup1\n            /* \"#utility.yul\":1025:1031   */\n          0x00\n            /* \"#utility.yul\":1078:1081   */\n          0xa0\n            /* \"#utility.yul\":1066:1075   */\n          dup7\n            /* \"#utility.yul\":1057:1064   */\n          dup9\n            /* \"#utility.yul\":1053:1076   */\n          sub\n            /* \"#utility.yul\":1049:1082   */\n          slt\n            /* \"#utility.yul\":1046:1099   */\n          iszero\n          tag_34\n          jumpi\n            /* \"#utility.yul\":1095:1096   */\n          0x00\n            /* \"#utility.yul\":1092:1093   */\n          dup1\n            /* \"#utility.yul\":1085:1097   */\n          revert\n            /* \"#utility.yul\":1046:1099   */\n        tag_34:\n            /* \"#utility.yul\":1121:1137   */\n          dup6\n          mload\n          sub(shl(0xa0, 0x01), 0x01)\n            /* \"#utility.yul\":1166:1197   */\n          dup2\n          and\n            /* \"#utility.yul\":1156:1198   */\n          dup2\n          eq\n            /* \"#utility.yul\":1146:1216   */\n          tag_35\n          jumpi\n            /* \"#utility.yul\":1212:1213   */\n          0x00\n            /* \"#utility.yul\":1209:1210   */\n          dup1\n            /* \"#utility.yul\":1202:1214   */\n          revert\n            /* \"#utility.yul\":1146:1216   */\n        tag_35:\n            /* \"#utility.yul\":1284:1286   */\n          0x20\n            /* \"#utility.yul\":1269:1287   */\n          dup8\n          add\n            /* \"#utility.yul\":1263:1288   */\n          mload\n            /* \"#utility.yul\":1235:1240   */\n          swap1\n          swap6\n          pop\n          sub(shl(0x40, 0x01), 0x01)\n            /* \"#utility.yul\":1337:1351   */\n          dup1\n          dup3\n          gt\n            /* \"#utility.yul\":1334:1368   */\n          iszero\n          tag_36\n          jumpi\n            /* \"#utility.yul\":1364:1365   */\n          0x00\n            /* \"#utility.yul\":1361:1362   */\n          dup1\n            /* \"#utility.yul\":1354:1366   */\n          revert\n            /* \"#utility.yul\":1334:1368   */\n        tag_36:\n            /* \"#utility.yul\":1387:1448   */\n          tag_37\n            /* \"#utility.yul\":1440:1447   */\n          dup10\n            /* \"#utility.yul\":1431:1437   */\n          dup4\n            /* \"#utility.yul\":1420:1429   */\n          dup11\n            /* \"#utility.yul\":1416:1438   */\n          add\n            /* \"#utility.yul\":1387:1448   */\n          tag_18\n          jump\t// in\n        tag_37:\n            /* \"#utility.yul\":1377:1448   */\n          swap6\n          pop\n            /* \"#utility.yul\":1494:1496   */\n          0x40\n            /* \"#utility.yul\":1483:1492   */\n          dup9\n            /* \"#utility.yul\":1479:1497   */\n          add\n            /* \"#utility.yul\":1473:1498   */\n          mload\n            /* \"#utility.yul\":1457:1498   */\n          swap2\n          pop\n            /* \"#utility.yul\":1523:1525   */\n          dup1\n            /* \"#utility.yul\":1513:1521   */\n          dup3\n            /* \"#utility.yul\":1510:1526   */\n          gt\n            /* \"#utility.yul\":1507:1543   */\n          iszero\n          tag_38\n          jumpi\n            /* \"#utility.yul\":1539:1540   */\n          0x00\n            /* \"#utility.yul\":1536:1537   */\n          dup1\n            /* \"#utility.yul\":1529:1541   */\n          revert\n            /* \"#utility.yul\":1507:1543   */\n        tag_38:\n          pop\n            /* \"#utility.yul\":1562:1625   */\n          tag_39\n            /* \"#utility.yul\":1617:1624   */\n          dup9\n            /* \"#utility.yul\":1606:1614   */\n          dup3\n            /* \"#utility.yul\":1595:1604   */\n          dup10\n            /* \"#utility.yul\":1591:1615   */\n          add\n            /* \"#utility.yul\":1562:1625   */\n          tag_18\n          jump\t// in\n        tag_39:\n            /* \"#utility.yul\":1665:1667   */\n          0x60\n            /* \"#utility.yul\":1650:1668   */\n          dup9\n          add\n            /* \"#utility.yul\":1644:1669   */\n          mload\n            /* \"#utility.yul\":1709:1712   */\n          0x80\n            /* \"#utility.yul\":1694:1713   */\n          swap1\n          swap9\n          add\n            /* \"#utility.yul\":1688:1714   */\n          mload\n            /* \"#utility.yul\":867:1720   */\n          swap7\n          swap10\n          swap6\n          swap9\n          pop\n            /* \"#utility.yul\":1552:1625   */\n          swap7\n            /* \"#utility.yul\":1644:1669   */\n          swap6\n            /* \"#utility.yul\":1688:1714   */\n          swap5\n            /* \"#utility.yul\":867:1720   */\n          swap4\n          pop\n          pop\n          pop\n          pop\n          jump\t// out\n            /* \"#utility.yul\":1725:2105   */\n        tag_19:\n            /* \"#utility.yul\":1804:1805   */\n          0x01\n            /* \"#utility.yul\":1800:1812   */\n          dup2\n          dup2\n          shr\n          swap1\n            /* \"#utility.yul\":1847:1859   */\n          dup3\n          and\n          dup1\n            /* \"#utility.yul\":1868:1929   */\n          tag_41\n          jumpi\n            /* \"#utility.yul\":1922:1926   */\n          0x7f\n            /* \"#utility.yul\":1914:1920   */\n          dup3\n            /* \"#utility.yul\":1910:1927   */\n          and\n            /* \"#utility.yul\":1900:1927   */\n          swap2\n          pop\n            /* \"#utility.yul\":1868:1929   */\n        tag_41:\n            /* \"#utility.yul\":1975:1977   */\n          0x20\n            /* \"#utility.yul\":1967:1973   */\n          dup3\n            /* \"#utility.yul\":1964:1978   */\n          lt\n            /* \"#utility.yul\":1944:1962   */\n          dup2\n            /* \"#utility.yul\":1941:1979   */\n          sub\n            /* \"#utility.yul\":1938:2099   */\n          tag_42\n          jumpi\n            /* \"#utility.yul\":2021:2031   */\n          0x4e487b71\n            /* \"#utility.yul\":2016:2019   */\n          0xe0\n            /* \"#utility.yul\":2012:2032   */\n          shl\n            /* \"#utility.yul\":2009:2010   */\n          0x00\n            /* \"#utility.yul\":2002:2033   */\n          mstore\n            /* \"#utility.yul\":2056:2060   */\n          0x22\n            /* \"#utility.yul\":2053:2054   */\n          0x04\n            /* \"#utility.yul\":2046:2061   */\n          mstore\n            /* \"#utility.yul\":2084:2088   */\n          0x24\n            /* \"#utility.yul\":2081:2082   */\n          0x00\n            /* \"#utility.yul\":2074:2089   */\n          revert\n            /* \"#utility.yul\":1938:2099   */\n        tag_42:\n          pop\n            /* \"#utility.yul\":1725:2105   */\n          swap2\n          swap1\n          pop\n          jump\t// out\n            /* \"#utility.yul\":2236:2754   */\n        tag_21:\n            /* \"#utility.yul\":2338:2340   */\n          0x1f\n            /* \"#utility.yul\":2333:2336   */\n          dup3\n            /* \"#utility.yul\":2330:2341   */\n          gt\n            /* \"#utility.yul\":2327:2748   */\n          iszero\n          tag_45\n          jumpi\n            /* \"#utility.yul\":2374:2379   */\n          dup1\n            /* \"#utility.yul\":2371:2372   */\n          0x00\n            /* \"#utility.yul\":2364:2380   */\n          mstore\n            /* \"#utility.yul\":2418:2422   */\n          0x20\n            /* \"#utility.yul\":2415:2416   */\n          0x00\n            /* \"#utility.yul\":2405:2423   */\n          keccak256\n            /* \"#utility.yul\":2488:2490   */\n          0x1f\n            /* \"#utility.yul\":2476:2486   */\n          dup5\n            /* \"#utility.yul\":2472:2491   */\n          add\n            /* \"#utility.yul\":2469:2470   */\n          0x05\n            /* \"#utility.yul\":2465:2492   */\n          shr\n            /* \"#utility.yul\":2459:2463   */\n          dup2\n            /* \"#utility.yul\":2455:2493   */\n          add\n            /* \"#utility.yul\":2524:2528   */\n          0x20\n            /* \"#utility.yul\":2512:2522   */\n          dup6\n            /* \"#utility.yul\":2509:2529   */\n          lt\n            /* \"#utility.yul\":2506:2553   */\n          iszero\n          tag_46\n          jumpi\n          pop\n            /* \"#utility.yul\":2547:2551   */\n          dup1\n            /* \"#utility.yul\":2506:2553   */\n        tag_46:\n            /* \"#utility.yul\":2602:2604   */\n          0x1f\n            /* \"#utility.yul\":2597:2600   */\n          dup5\n            /* \"#utility.yul\":2593:2605   */\n          add\n            /* \"#utility.yul\":2590:2591   */\n          0x05\n            /* \"#utility.yul\":2586:2606   */\n          shr\n            /* \"#utility.yul\":2580:2584   */\n          dup3\n            /* \"#utility.yul\":2576:2607   */\n          add\n            /* \"#utility.yul\":2566:2607   */\n          swap2\n          pop\n            /* \"#utility.yul\":2657:2738   */\n        tag_47:\n            /* \"#utility.yul\":2675:2677   */\n          dup2\n            /* \"#utility.yul\":2668:2673   */\n          dup2\n            /* \"#utility.yul\":2665:2678   */\n          lt\n            /* \"#utility.yul\":2657:2738   */\n          iszero\n          tag_49\n          jumpi\n            /* \"#utility.yul\":2734:2735   */\n          0x00\n            /* \"#utility.yul\":2720:2736   */\n          dup2\n          sstore\n            /* \"#utility.yul\":2701:2702   */\n          0x01\n            /* \"#utility.yul\":2690:2703   */\n          add\n            /* \"#utility.yul\":2657:2738   */\n          jump(tag_47)\n        tag_49:\n            /* \"#utility.yul\":2661:2664   */\n          pop\n          pop\n            /* \"#utility.yul\":2327:2748   */\n        tag_45:\n            /* \"#utility.yul\":2236:2754   */\n          pop\n          pop\n          pop\n          jump\t// out\n            /* \"#utility.yul\":2930:4275   */\n        tag_7:\n            /* \"#utility.yul\":3050:3060   */\n          dup2\n          mload\n          sub(shl(0x40, 0x01), 0x01)\n            /* \"#utility.yul\":3072:3102   */\n          dup2\n          gt\n            /* \"#utility.yul\":3069:3125   */\n          iszero\n          tag_53\n          jumpi\n            /* \"#utility.yul\":3105:3123   */\n          tag_53\n          tag_17\n          jump\t// in\n        tag_53:\n            /* \"#utility.yul\":3134:3231   */\n          tag_54\n            /* \"#utility.yul\":3224:3230   */\n          dup2\n            /* \"#utility.yul\":3184:3222   */\n          tag_55\n            /* \"#utility.yul\":3216:3220   */\n          dup5\n            /* \"#utility.yul\":3210:3221   */\n          sload\n            /* \"#utility.yul\":3184:3222   */\n          tag_19\n          jump\t// in\n        tag_55:\n            /* \"#utility.yul\":3178:3182   */\n          dup5\n            /* \"#utility.yul\":3134:3231   */\n          tag_21\n          jump\t// in\n        tag_54:\n            /* \"#utility.yul\":3286:3290   */\n          0x20\n          dup1\n            /* \"#utility.yul\":3343:3345   */\n          0x1f\n            /* \"#utility.yul\":3332:3346   */\n          dup4\n          gt\n            /* \"#utility.yul\":3360:3361   */\n          0x01\n            /* \"#utility.yul\":3355:4018   */\n          dup2\n          eq\n          tag_57\n          jumpi\n            /* \"#utility.yul\":4062:4063   */\n          0x00\n            /* \"#utility.yul\":4079:4085   */\n          dup5\n            /* \"#utility.yul\":4076:4165   */\n          iszero\n          tag_58\n          jumpi\n          pop\n            /* \"#utility.yul\":4131:4150   */\n          dup6\n          dup4\n          add\n            /* \"#utility.yul\":4125:4151   */\n          mload\n            /* \"#utility.yul\":4076:4165   */\n        tag_58:\n          not(0x00)\n            /* \"#utility.yul\":2887:2888   */\n          0x03\n            /* \"#utility.yul\":2883:2894   */\n          dup7\n          swap1\n          shl\n            /* \"#utility.yul\":2879:2903   */\n          shr\n            /* \"#utility.yul\":2875:2904   */\n          not\n            /* \"#utility.yul\":2865:2905   */\n          and\n            /* \"#utility.yul\":2911:2912   */\n          0x01\n            /* \"#utility.yul\":2907:2918   */\n          dup6\n          swap1\n          shl\n            /* \"#utility.yul\":2862:2919   */\n          or\n            /* \"#utility.yul\":4178:4259   */\n          dup6\n          sstore\n            /* \"#utility.yul\":3325:4269   */\n          jump(tag_56)\n            /* \"#utility.yul\":3355:4018   */\n        tag_57:\n            /* \"#utility.yul\":2183:2184   */\n          0x00\n            /* \"#utility.yul\":2176:2190   */\n          dup6\n          dup2\n          mstore\n            /* \"#utility.yul\":2220:2224   */\n          0x20\n            /* \"#utility.yul\":2207:2225   */\n          dup2\n          keccak256\n          not(0x1f)\n            /* \"#utility.yul\":3391:3411   */\n          dup7\n          and\n          swap2\n            /* \"#utility.yul\":3509:3745   */\n        tag_61:\n            /* \"#utility.yul\":3523:3530   */\n          dup3\n            /* \"#utility.yul\":3520:3521   */\n          dup2\n            /* \"#utility.yul\":3517:3531   */\n          lt\n            /* \"#utility.yul\":3509:3745   */\n          iszero\n          tag_63\n          jumpi\n            /* \"#utility.yul\":3612:3631   */\n          dup9\n          dup7\n          add\n            /* \"#utility.yul\":3606:3632   */\n          mload\n            /* \"#utility.yul\":3591:3633   */\n          dup3\n          sstore\n            /* \"#utility.yul\":3704:3731   */\n          swap5\n          dup5\n          add\n          swap5\n            /* \"#utility.yul\":3672:3673   */\n          0x01\n            /* \"#utility.yul\":3660:3674   */\n          swap1\n          swap2\n          add\n          swap1\n            /* \"#utility.yul\":3539:3558   */\n          dup5\n          add\n            /* \"#utility.yul\":3509:3745   */\n          jump(tag_61)\n        tag_63:\n            /* \"#utility.yul\":3513:3516   */\n          pop\n            /* \"#utility.yul\":3773:3779   */\n          dup6\n            /* \"#utility.yul\":3764:3771   */\n          dup3\n            /* \"#utility.yul\":3761:3780   */\n          lt\n            /* \"#utility.yul\":3758:3959   */\n          iszero\n          tag_64\n          jumpi\n            /* \"#utility.yul\":3834:3853   */\n          dup8\n          dup6\n          add\n            /* \"#utility.yul\":3828:3854   */\n          mload\n          not(0x00)\n            /* \"#utility.yul\":3917:3918   */\n          0x03\n            /* \"#utility.yul\":3913:3927   */\n          dup9\n          swap1\n          shl\n            /* \"#utility.yul\":3929:3932   */\n          0xf8\n            /* \"#utility.yul\":3909:3933   */\n          and\n            /* \"#utility.yul\":3905:3942   */\n          shr\n            /* \"#utility.yul\":3901:3943   */\n          not\n            /* \"#utility.yul\":3886:3944   */\n          and\n            /* \"#utility.yul\":3871:3945   */\n          dup2\n          sstore\n            /* \"#utility.yul\":3758:3959   */\n        tag_64:\n          pop\n          pop\n            /* \"#utility.yul\":4005:4006   */\n          0x01\n            /* \"#utility.yul\":3996:4002   */\n          dup5\n            /* \"#utility.yul\":3993:3994   */\n          0x01\n            /* \"#utility.yul\":3989:4003   */\n          shl\n            /* \"#utility.yul\":3985:4007   */\n          add\n            /* \"#utility.yul\":3979:3983   */\n          dup6\n            /* \"#utility.yul\":3972:4008   */\n          sstore\n            /* \"#utility.yul\":3325:4269   */\n        tag_56:\n          pop\n          pop\n          pop\n          pop\n            /* \"#utility.yul\":2930:4275   */\n          pop\n          pop\n          jump\t// out\n            /* \"#utility.yul\":4280:4407   */\n        tag_23:\n            /* \"#utility.yul\":4341:4351   */\n          0x4e487b71\n            /* \"#utility.yul\":4336:4339   */\n          0xe0\n            /* \"#utility.yul\":4332:4352   */\n          shl\n            /* \"#utility.yul\":4329:4330   */\n          0x00\n            /* \"#utility.yul\":4322:4353   */\n          mstore\n            /* \"#utility.yul\":4372:4376   */\n          0x11\n            /* \"#utility.yul\":4369:4370   */\n          0x04\n            /* \"#utility.yul\":4362:4377   */\n          mstore\n            /* \"#utility.yul\":4396:4400   */\n          0x24\n            /* \"#utility.yul\":4393:4394   */\n          0x00\n            /* \"#utility.yul\":4386:4401   */\n          revert\n            /* \"#utility.yul\":4412:4580   */\n        tag_10:\n            /* \"#utility.yul\":4485:4494   */\n          dup1\n          dup3\n          mul\n            /* \"#utility.yul\":4516:4525   */\n          dup2\n          iszero\n            /* \"#utility.yul\":4533:4548   */\n          dup3\n          dup3\n          div\n            /* \"#utility.yul\":4527:4549   */\n          dup5\n          eq\n            /* \"#utility.yul\":4513:4550   */\n          or\n            /* \"#utility.yul\":4503:4574   */\n          tag_68\n          jumpi\n            /* \"#utility.yul\":4554:4572   */\n          tag_68\n          tag_23\n          jump\t// in\n        tag_68:\n            /* \"#utility.yul\":4412:4580   */\n          swap3\n          swap2\n          pop\n          pop\n          jump\t// out\n            /* \"#utility.yul\":4585:4710   */\n        tag_12:\n            /* \"#utility.yul\":4650:4659   */\n          dup1\n          dup3\n          add\n            /* \"#utility.yul\":4671:4681   */\n          dup1\n          dup3\n          gt\n            /* \"#utility.yul\":4668:4704   */\n          iszero\n          tag_68\n          jumpi\n            /* \"#utility.yul\":4684:4702   */\n          tag_68\n          tag_23\n          jump\t// in\n            /* \"#utility.yul\":4715:4842   */\n        tag_24:\n            /* \"Crowdfunding.sol\":57:4104  contract Crowdfunding {... */\n          dataSize(sub_0)\n          dup1\n          dataOffset(sub_0)\n          0x00\n          codecopy\n          0x00\n          return\n        stop\n\n        sub_0: assembly {\n                /* \"Crowdfunding.sol\":57:4104  contract Crowdfunding {... */\n              mstore(0x40, 0x80)\n              jumpi(tag_1, lt(calldatasize, 0x04))\n              shr(0xe0, calldataload(0x00))\n              dup1\n              0x7284e416\n              gt\n              tag_22\n              jumpi\n              dup1\n              0xb85dfb80\n              gt\n              tag_23\n              jumpi\n              dup1\n              0xc4ae3168\n              gt\n              tag_24\n              jumpi\n              dup1\n              0xc4ae3168\n              eq\n              tag_19\n              jumpi\n              dup1\n              0xca1d209d\n              eq\n              tag_20\n              jumpi\n              dup1\n              0xde170570\n              eq\n              tag_21\n              jumpi\n              0x00\n              dup1\n              revert\n            tag_24:\n              dup1\n              0xb85dfb80\n              eq\n              tag_17\n              jumpi\n              dup1\n              0xc19d93fb\n              eq\n              tag_18\n              jumpi\n              0x00\n              dup1\n              revert\n            tag_23:\n              dup1\n              0x7adba527\n              gt\n              tag_25\n              jumpi\n              dup1\n              0x7adba527\n              eq\n              tag_14\n              jumpi\n              dup1\n              0x8da5cb5b\n              eq\n              tag_15\n              jumpi\n              dup1\n              0x8ece7b91\n              eq\n              tag_16\n              jumpi\n              0x00\n              dup1\n              revert\n            tag_25:\n              dup1\n              0x7284e416\n              eq\n              tag_12\n              jumpi\n              dup1\n              0x7497211b\n              eq\n              tag_13\n              jumpi\n              0x00\n              dup1\n              revert\n            tag_22:\n              dup1\n              0x3ccfd60b\n              gt\n              tag_26\n              jumpi\n              dup1\n              0x590e1ae3\n              gt\n              tag_27\n              jumpi\n              dup1\n              0x590e1ae3\n              eq\n              tag_9\n              jumpi\n              dup1\n              0x5c975abb\n              eq\n              tag_10\n              jumpi\n              dup1\n              0x6f9fb98a\n              eq\n              tag_11\n              jumpi\n              0x00\n              dup1\n              revert\n            tag_27:\n              dup1\n              0x3ccfd60b\n              eq\n              tag_7\n              jumpi\n              dup1\n              0x40193883\n              eq\n              tag_8\n              jumpi\n              0x00\n              dup1\n              revert\n            tag_26:\n              dup1\n              0x10550515\n              gt\n              tag_28\n              jumpi\n              dup1\n              0x10550515\n              eq\n              tag_4\n              jumpi\n              dup1\n              0x29dcb0cf\n              eq\n              tag_5\n              jumpi\n              dup1\n              0x389b7533\n              eq\n              tag_6\n              jumpi\n              0x00\n              dup1\n              revert\n            tag_28:\n              dup1\n              0x039af9eb\n              eq\n              tag_2\n              jumpi\n              dup1\n              0x06fdde03\n              eq\n              tag_3\n              jumpi\n            tag_1:\n              0x00\n              dup1\n              revert\n                /* \"Crowdfunding.sol\":535:554  Tier[] public tiers */\n            tag_2:\n              callvalue\n              dup1\n              iszero\n              tag_29\n              jumpi\n              0x00\n              dup1\n              revert\n            tag_29:\n              pop\n              tag_30\n              tag_31\n              calldatasize\n              0x04\n              tag_32\n              jump\t// in\n            tag_31:\n              tag_33\n              jump\t// in\n            tag_30:\n              mload(0x40)\n              tag_34\n              swap4\n              swap3\n              swap2\n              swap1\n              tag_35\n              jump\t// in\n            tag_34:\n              mload(0x40)\n              dup1\n              swap2\n              sub\n              swap1\n              return\n                /* \"Crowdfunding.sol\":85:103  string public name */\n            tag_3:\n              callvalue\n              dup1\n              iszero\n              tag_36\n              jumpi\n              0x00\n              dup1\n              revert\n            tag_36:\n              pop\n              tag_37\n              tag_38\n              jump\t// in\n            tag_37:\n              mload(0x40)\n              tag_34\n              swap2\n              swap1\n              tag_40\n              jump\t// in\n                /* \"Crowdfunding.sol\":3695:3974  function getCampaignStatus() public view returns (CampaignState) {... */\n            tag_4:\n              callvalue\n              dup1\n              iszero\n              tag_41\n              jumpi\n              0x00\n              dup1\n              revert\n            tag_41:\n              pop\n              tag_42\n              tag_43\n              jump\t// in\n            tag_42:\n              mload(0x40)\n              tag_34\n              swap2\n              swap1\n              tag_45\n              jump\t// in\n                /* \"Crowdfunding.sol\":165:188  uint256 public deadline */\n            tag_5:\n              callvalue\n              dup1\n              iszero\n              tag_46\n              jumpi\n              0x00\n              dup1\n              revert\n            tag_46:\n              pop\n              tag_47\n              sload(0x03)\n              dup2\n              jump\n            tag_47:\n              mload(0x40)\n                /* \"#utility.yul\":1712:1737   */\n              swap1\n              dup2\n              mstore\n                /* \"#utility.yul\":1700:1702   */\n              0x20\n                /* \"#utility.yul\":1685:1703   */\n              add\n                /* \"Crowdfunding.sol\":165:188  uint256 public deadline */\n              tag_34\n                /* \"#utility.yul\":1566:1743   */\n              jump\n                /* \"Crowdfunding.sol\":3980:4102  function extendDeadline(uint256 _daysToAdd) public onlyOwner campaignOpen {... */\n            tag_6:\n              callvalue\n              dup1\n              iszero\n              tag_51\n              jumpi\n              0x00\n              dup1\n              revert\n            tag_51:\n              pop\n              tag_52\n              tag_53\n              calldatasize\n              0x04\n              tag_32\n              jump\t// in\n            tag_53:\n              tag_54\n              jump\t// in\n            tag_52:\n              stop\n                /* \"Crowdfunding.sol\":2568:2880  function withdraw() public onlyOwner {... */\n            tag_7:\n              callvalue\n              dup1\n              iszero\n              tag_55\n              jumpi\n              0x00\n              dup1\n              revert\n            tag_55:\n              pop\n              tag_52\n              tag_57\n              jump\t// in\n                /* \"Crowdfunding.sol\":140:159  uint256 public goal */\n            tag_8:\n              callvalue\n              dup1\n              iszero\n              tag_58\n              jumpi\n              0x00\n              dup1\n              revert\n            tag_58:\n              pop\n              tag_47\n              sload(0x02)\n              dup2\n              jump\n                /* \"Crowdfunding.sol\":2997:3362  function refund() public {... */\n            tag_9:\n              callvalue\n              dup1\n              iszero\n              tag_62\n              jumpi\n              0x00\n              dup1\n              revert\n            tag_62:\n              pop\n              tag_52\n              tag_64\n              jump\t// in\n                /* \"Crowdfunding.sol\":220:238  bool public paused */\n            tag_10:\n              callvalue\n              dup1\n              iszero\n              tag_65\n              jumpi\n              0x00\n              dup1\n              revert\n            tag_65:\n              pop\n              sload(0x04)\n              tag_66\n              swap1\n              shl(0xa0, 0x01)\n              swap1\n              div\n              0xff\n              and\n              dup2\n              jump\n            tag_66:\n              mload(0x40)\n                /* \"#utility.yul\":1913:1927   */\n              swap1\n              iszero\n                /* \"#utility.yul\":1906:1928   */\n              iszero\n                /* \"#utility.yul\":1888:1929   */\n              dup2\n              mstore\n                /* \"#utility.yul\":1876:1878   */\n              0x20\n                /* \"#utility.yul\":1861:1879   */\n              add\n                /* \"Crowdfunding.sol\":220:238  bool public paused */\n              tag_34\n                /* \"#utility.yul\":1748:1935   */\n              jump\n                /* \"Crowdfunding.sol\":2886:2991  function getContractBalance() public view returns (uint256) {... */\n            tag_11:\n              callvalue\n              dup1\n              iszero\n              tag_70\n              jumpi\n              0x00\n              dup1\n              revert\n            tag_70:\n              pop\n                /* \"Crowdfunding.sol\":2963:2984  address(this).balance */\n              selfbalance\n                /* \"Crowdfunding.sol\":2886:2991  function getContractBalance() public view returns (uint256) {... */\n              jump(tag_47)\n                /* \"Crowdfunding.sol\":109:134  string public description */\n            tag_12:\n              callvalue\n              dup1\n              iszero\n              tag_74\n              jumpi\n              0x00\n              dup1\n              revert\n            tag_74:\n              pop\n              tag_37\n              tag_76\n              jump\t// in\n                /* \"Crowdfunding.sol\":2369:2562  function removeTier(uint256 _index) public onlyOwner {... */\n            tag_13:\n              callvalue\n              dup1\n              iszero\n              tag_78\n              jumpi\n              0x00\n              dup1\n              revert\n            tag_78:\n              pop\n              tag_52\n              tag_80\n              calldatasize\n              0x04\n              tag_32\n              jump\t// in\n            tag_80:\n              tag_81\n              jump\t// in\n                /* \"Crowdfunding.sol\":3368:3519  function hasFundedTier(address _backer, uint256 _tierIndex) public view returns (bool) {... */\n            tag_14:\n              callvalue\n              dup1\n              iszero\n              tag_82\n              jumpi\n              0x00\n              dup1\n              revert\n            tag_82:\n              pop\n              tag_66\n              tag_84\n              calldatasize\n              0x04\n              tag_85\n              jump\t// in\n            tag_84:\n              tag_86\n              jump\t// in\n                /* \"Crowdfunding.sol\":194:214  address public owner */\n            tag_15:\n              callvalue\n              dup1\n              iszero\n              tag_88\n              jumpi\n              0x00\n              dup1\n              revert\n            tag_88:\n              pop\n              sload(0x04)\n              tag_89\n              swap1\n              sub(shl(0xa0, 0x01), 0x01)\n              and\n              dup2\n              jump\n            tag_89:\n              mload(0x40)\n              sub(shl(0xa0, 0x01), 0x01)\n                /* \"#utility.yul\":2564:2619   */\n              swap1\n              swap2\n              and\n                /* \"#utility.yul\":2546:2620   */\n              dup2\n              mstore\n                /* \"#utility.yul\":2534:2536   */\n              0x20\n                /* \"#utility.yul\":2519:2537   */\n              add\n                /* \"Crowdfunding.sol\":194:214  address public owner */\n              tag_34\n                /* \"#utility.yul\":2400:2626   */\n              jump\n                /* \"Crowdfunding.sol\":2153:2363  function addTier(... */\n            tag_16:\n              callvalue\n              dup1\n              iszero\n              tag_93\n              jumpi\n              0x00\n              dup1\n              revert\n            tag_93:\n              pop\n              tag_52\n              tag_95\n              calldatasize\n              0x04\n              tag_96\n              jump\t// in\n            tag_95:\n              tag_97\n              jump\t// in\n                /* \"Crowdfunding.sol\":560:601  mapping(address => Backer) public backers */\n            tag_17:\n              callvalue\n              dup1\n              iszero\n              tag_98\n              jumpi\n              0x00\n              dup1\n              revert\n            tag_98:\n              pop\n              tag_47\n              tag_100\n              calldatasize\n              0x04\n              tag_101\n              jump\t// in\n            tag_100:\n              mstore(0x20, 0x06)\n              0x00\n              swap1\n              dup2\n              mstore\n              0x40\n              swap1\n              keccak256\n              sload\n              dup2\n              jump\n                /* \"Crowdfunding.sol\":299:325  CampaignState public state */\n            tag_18:\n              callvalue\n              dup1\n              iszero\n              tag_104\n              jumpi\n              0x00\n              dup1\n              revert\n            tag_104:\n              pop\n              sload(0x04)\n              tag_42\n              swap1\n              shl(0xa8, 0x01)\n              swap1\n              div\n              0xff\n              and\n              dup2\n              jump\n                /* \"Crowdfunding.sol\":3616:3689  function togglePause() public onlyOwner {... */\n            tag_19:\n              callvalue\n              dup1\n              iszero\n              tag_108\n              jumpi\n              0x00\n              dup1\n              revert\n            tag_108:\n              pop\n              tag_52\n              tag_110\n              jump\t// in\n                /* \"Crowdfunding.sol\":1732:2147  function fund(uint256 _tierIndex) public payable campaignOpen notPaused {... */\n            tag_20:\n              tag_52\n              tag_112\n              calldatasize\n              0x04\n              tag_32\n              jump\t// in\n            tag_112:\n              tag_113\n              jump\t// in\n                /* \"Crowdfunding.sol\":3525:3610  function getTiers() public view returns (Tier[] memory) {... */\n            tag_21:\n              callvalue\n              dup1\n              iszero\n              tag_114\n              jumpi\n              0x00\n              dup1\n              revert\n            tag_114:\n              pop\n              tag_115\n              tag_116\n              jump\t// in\n            tag_115:\n              mload(0x40)\n              tag_34\n              swap2\n              swap1\n              tag_118\n              jump\t// in\n                /* \"Crowdfunding.sol\":535:554  Tier[] public tiers */\n            tag_33:\n              0x05\n              dup2\n              dup2\n              sload\n              dup2\n              lt\n              tag_119\n              jumpi\n              0x00\n              dup1\n              revert\n            tag_119:\n              swap1\n              0x00\n              mstore\n              keccak256(0x00, 0x20)\n              swap1\n              0x03\n              mul\n              add\n              0x00\n              swap2\n              pop\n              swap1\n              pop\n              dup1\n              0x00\n              add\n              dup1\n              sload\n              tag_121\n              swap1\n              tag_122\n              jump\t// in\n            tag_121:\n              dup1\n              0x1f\n              add\n              0x20\n              dup1\n              swap2\n              div\n              mul\n              0x20\n              add\n              mload(0x40)\n              swap1\n              dup2\n              add\n              0x40\n              mstore\n              dup1\n              swap3\n              swap2\n              swap1\n              dup2\n              dup2\n              mstore\n              0x20\n              add\n              dup3\n              dup1\n              sload\n              tag_123\n              swap1\n              tag_122\n              jump\t// in\n            tag_123:\n              dup1\n              iszero\n              tag_124\n              jumpi\n              dup1\n              0x1f\n              lt\n              tag_125\n              jumpi\n              0x0100\n              dup1\n              dup4\n              sload\n              div\n              mul\n              dup4\n              mstore\n              swap2\n              0x20\n              add\n              swap2\n              jump(tag_124)\n            tag_125:\n              dup3\n              add\n              swap2\n              swap1\n              0x00\n              mstore\n              keccak256(0x00, 0x20)\n              swap1\n            tag_126:\n              dup2\n              sload\n              dup2\n              mstore\n              swap1\n              0x01\n              add\n              swap1\n              0x20\n              add\n              dup1\n              dup4\n              gt\n              tag_126\n              jumpi\n              dup3\n              swap1\n              sub\n              0x1f\n              and\n              dup3\n              add\n              swap2\n            tag_124:\n              pop\n              pop\n              pop\n              pop\n              pop\n              swap1\n              dup1\n              0x01\n              add\n              sload\n              swap1\n              dup1\n              0x02\n              add\n              sload\n              swap1\n              pop\n              dup4\n              jump\t// out\n                /* \"Crowdfunding.sol\":85:103  string public name */\n            tag_38:\n              0x00\n              dup1\n              sload\n              tag_127\n              swap1\n              tag_122\n              jump\t// in\n            tag_127:\n              dup1\n              0x1f\n              add\n              0x20\n              dup1\n              swap2\n              div\n              mul\n              0x20\n              add\n              mload(0x40)\n              swap1\n              dup2\n              add\n              0x40\n              mstore\n              dup1\n              swap3\n              swap2\n              swap1\n              dup2\n              dup2\n              mstore\n              0x20\n              add\n              dup3\n              dup1\n              sload\n              tag_128\n              swap1\n              tag_122\n              jump\t// in\n            tag_128:\n              dup1\n              iszero\n              tag_129\n              jumpi\n              dup1\n              0x1f\n              lt\n              tag_130\n              jumpi\n              0x0100\n              dup1\n              dup4\n              sload\n              div\n              mul\n              dup4\n              mstore\n              swap2\n              0x20\n              add\n              swap2\n              jump(tag_129)\n            tag_130:\n              dup3\n              add\n              swap2\n              swap1\n              0x00\n              mstore\n              keccak256(0x00, 0x20)\n              swap1\n            tag_131:\n              dup2\n              sload\n              dup2\n              mstore\n              swap1\n              0x01\n              add\n              swap1\n              0x20\n              add\n              dup1\n              dup4\n              gt\n              tag_131\n              jumpi\n              dup3\n              swap1\n              sub\n              0x1f\n              and\n              dup3\n              add\n              swap2\n            tag_129:\n              pop\n              pop\n              pop\n              pop\n              pop\n              dup2\n              jump\t// out\n                /* \"Crowdfunding.sol\":3695:3974  function getCampaignStatus() public view returns (CampaignState) {... */\n            tag_43:\n                /* \"Crowdfunding.sol\":3745:3758  CampaignState */\n              0x00\n              dup1\n                /* \"Crowdfunding.sol\":3774:3779  state */\n              sload(0x04)\n              shl(0xa8, 0x01)\n              swap1\n              div\n              0xff\n              and\n                /* \"Crowdfunding.sol\":3774:3803  state == CampaignState.Active */\n              0x02\n              dup2\n              gt\n              iszero\n              tag_137\n              jumpi\n              tag_137\n              tag_135\n              jump\t// in\n            tag_137:\n              eq\n                /* \"Crowdfunding.sol\":3774:3833  state == CampaignState.Active && block.timestamp > deadline */\n              dup1\n              iszero\n              tag_138\n              jumpi\n              pop\n                /* \"Crowdfunding.sol\":3825:3833  deadline */\n              sload(0x03)\n                /* \"Crowdfunding.sol\":3807:3822  block.timestamp */\n              timestamp\n                /* \"Crowdfunding.sol\":3807:3833  block.timestamp > deadline */\n              gt\n                /* \"Crowdfunding.sol\":3774:3833  state == CampaignState.Active && block.timestamp > deadline */\n            tag_138:\n                /* \"Crowdfunding.sol\":3770:3946  if (state == CampaignState.Active && block.timestamp > deadline) {... */\n              iszero\n              tag_139\n              jumpi\n                /* \"Crowdfunding.sol\":3881:3885  goal */\n              sload(0x02)\n                /* \"Crowdfunding.sol\":3856:3877  address(this).balance */\n              selfbalance\n                /* \"Crowdfunding.sol\":3856:3885  address(this).balance >= goal */\n              lt\n              iszero\n                /* \"Crowdfunding.sol\":3856:3935  address(this).balance >= goal ? CampaignState.Successful : CampaignState.Failed */\n              tag_140\n              jumpi\n              pop\n                /* \"Crowdfunding.sol\":3915:3935  CampaignState.Failed */\n              0x02\n              swap1\n                /* \"Crowdfunding.sol\":3695:3974  function getCampaignStatus() public view returns (CampaignState) {... */\n              jump\t// out\n                /* \"Crowdfunding.sol\":3856:3935  address(this).balance >= goal ? CampaignState.Successful : CampaignState.Failed */\n            tag_140:\n              pop\n                /* \"Crowdfunding.sol\":3888:3912  CampaignState.Successful */\n              0x01\n              swap1\n                /* \"Crowdfunding.sol\":3695:3974  function getCampaignStatus() public view returns (CampaignState) {... */\n              jump\t// out\n                /* \"Crowdfunding.sol\":3770:3946  if (state == CampaignState.Active && block.timestamp > deadline) {... */\n            tag_139:\n              pop\n                /* \"Crowdfunding.sol\":3962:3967  state */\n              sload(0x04)\n              shl(0xa8, 0x01)\n              swap1\n              div\n              0xff\n              and\n              swap1\n                /* \"Crowdfunding.sol\":3695:3974  function getCampaignStatus() public view returns (CampaignState) {... */\n              jump\t// out\n                /* \"Crowdfunding.sol\":3980:4102  function extendDeadline(uint256 _daysToAdd) public onlyOwner campaignOpen {... */\n            tag_54:\n                /* \"Crowdfunding.sol\":661:666  owner */\n              and(sub(shl(0xa0, 0x01), 0x01), sload(0x04))\n                /* \"Crowdfunding.sol\":647:657  msg.sender */\n              caller\n                /* \"Crowdfunding.sol\":647:666  msg.sender == owner */\n              eq\n                /* \"Crowdfunding.sol\":639:684  require(msg.sender == owner, \"Not the owner\") */\n              tag_143\n              jumpi\n              mload(0x40)\n              shl(0xe5, 0x461bcd)\n              dup2\n              mstore\n                /* \"#utility.yul\":5684:5686   */\n              0x20\n                /* \"Crowdfunding.sol\":639:684  require(msg.sender == owner, \"Not the owner\") */\n              0x04\n              dup3\n              add\n                /* \"#utility.yul\":5666:5687   */\n              mstore\n                /* \"#utility.yul\":5723:5725   */\n              0x0d\n                /* \"#utility.yul\":5703:5721   */\n              0x24\n              dup3\n              add\n                /* \"#utility.yul\":5696:5726   */\n              mstore\n              shl(0x99, 0x2737ba103a34329037bbb732b9)\n                /* \"#utility.yul\":5742:5760   */\n              0x44\n              dup3\n              add\n                /* \"#utility.yul\":5735:5778   */\n              mstore\n                /* \"#utility.yul\":5795:5813   */\n              0x64\n              add\n                /* \"Crowdfunding.sol\":639:684  require(msg.sender == owner, \"Not the owner\") */\n            tag_144:\n              mload(0x40)\n              dup1\n              swap2\n              sub\n              swap1\n              revert\n            tag_143:\n                /* \"Crowdfunding.sol\":759:779  CampaignState.Active */\n              0x00\n                /* \"Crowdfunding.sol\":750:755  state */\n              sload(0x04)\n              shl(0xa8, 0x01)\n              swap1\n              div\n              0xff\n              and\n                /* \"Crowdfunding.sol\":750:779  state == CampaignState.Active */\n              0x02\n              dup2\n              gt\n              iszero\n              tag_150\n              jumpi\n              tag_150\n              tag_135\n              jump\t// in\n            tag_150:\n              eq\n                /* \"Crowdfunding.sol\":742:807  require(state == CampaignState.Active, \"Campaign is not active.\") */\n              tag_151\n              jumpi\n              mload(0x40)\n              shl(0xe5, 0x461bcd)\n              dup2\n              mstore\n                /* \"#utility.yul\":6026:6028   */\n              0x20\n                /* \"Crowdfunding.sol\":742:807  require(state == CampaignState.Active, \"Campaign is not active.\") */\n              0x04\n              dup3\n              add\n                /* \"#utility.yul\":6008:6029   */\n              mstore\n                /* \"#utility.yul\":6065:6067   */\n              0x17\n                /* \"#utility.yul\":6045:6063   */\n              0x24\n              dup3\n              add\n                /* \"#utility.yul\":6038:6068   */\n              mstore\n                /* \"#utility.yul\":6104:6129   */\n              0x43616d706169676e206973206e6f74206163746976652e000000000000000000\n                /* \"#utility.yul\":6084:6102   */\n              0x44\n              dup3\n              add\n                /* \"#utility.yul\":6077:6130   */\n              mstore\n                /* \"#utility.yul\":6147:6165   */\n              0x64\n              add\n                /* \"Crowdfunding.sol\":742:807  require(state == CampaignState.Active, \"Campaign is not active.\") */\n              tag_144\n                /* \"#utility.yul\":5824:6171   */\n              jump\n                /* \"Crowdfunding.sol\":742:807  require(state == CampaignState.Active, \"Campaign is not active.\") */\n            tag_151:\n                /* \"Crowdfunding.sol\":4076:4095  _daysToAdd * 1 days */\n              tag_155\n                /* \"Crowdfunding.sol\":4076:4086  _daysToAdd */\n              dup2\n                /* \"Crowdfunding.sol\":4089:4095  1 days */\n              0x015180\n                /* \"Crowdfunding.sol\":4076:4095  _daysToAdd * 1 days */\n              tag_156\n              jump\t// in\n            tag_155:\n                /* \"Crowdfunding.sol\":4064:4072  deadline */\n              0x03\n              0x00\n                /* \"Crowdfunding.sol\":4064:4095  deadline += _daysToAdd * 1 days */\n              dup3\n              dup3\n              sload\n              tag_157\n              swap2\n              swap1\n              tag_158\n              jump\t// in\n            tag_157:\n              swap1\n              swap2\n              sstore\n              pop\n              pop\n              pop\n                /* \"Crowdfunding.sol\":3980:4102  function extendDeadline(uint256 _daysToAdd) public onlyOwner campaignOpen {... */\n              jump\t// out\n                /* \"Crowdfunding.sol\":2568:2880  function withdraw() public onlyOwner {... */\n            tag_57:\n                /* \"Crowdfunding.sol\":661:666  owner */\n              and(sub(shl(0xa0, 0x01), 0x01), sload(0x04))\n                /* \"Crowdfunding.sol\":647:657  msg.sender */\n              caller\n                /* \"Crowdfunding.sol\":647:666  msg.sender == owner */\n              eq\n                /* \"Crowdfunding.sol\":639:684  require(msg.sender == owner, \"Not the owner\") */\n              tag_160\n              jumpi\n              mload(0x40)\n              shl(0xe5, 0x461bcd)\n              dup2\n              mstore\n                /* \"#utility.yul\":5684:5686   */\n              0x20\n                /* \"Crowdfunding.sol\":639:684  require(msg.sender == owner, \"Not the owner\") */\n              0x04\n              dup3\n              add\n                /* \"#utility.yul\":5666:5687   */\n              mstore\n                /* \"#utility.yul\":5723:5725   */\n              0x0d\n                /* \"#utility.yul\":5703:5721   */\n              0x24\n              dup3\n              add\n                /* \"#utility.yul\":5696:5726   */\n              mstore\n              shl(0x99, 0x2737ba103a34329037bbb732b9)\n                /* \"#utility.yul\":5742:5760   */\n              0x44\n              dup3\n              add\n                /* \"#utility.yul\":5735:5778   */\n              mstore\n                /* \"#utility.yul\":5795:5813   */\n              0x64\n              add\n                /* \"Crowdfunding.sol\":639:684  require(msg.sender == owner, \"Not the owner\") */\n              tag_144\n                /* \"#utility.yul\":5482:5819   */\n              jump\n                /* \"Crowdfunding.sol\":639:684  require(msg.sender == owner, \"Not the owner\") */\n            tag_160:\n                /* \"Crowdfunding.sol\":2615:2644  checkAndUpdateCampaignState() */\n              tag_163\n                /* \"Crowdfunding.sol\":2615:2642  checkAndUpdateCampaignState */\n              tag_164\n                /* \"Crowdfunding.sol\":2615:2644  checkAndUpdateCampaignState() */\n              jump\t// in\n            tag_163:\n                /* \"Crowdfunding.sol\":2671:2695  CampaignState.Successful */\n              0x01\n                /* \"Crowdfunding.sol\":2662:2667  state */\n              sload(0x04)\n              shl(0xa8, 0x01)\n              swap1\n              div\n              0xff\n              and\n                /* \"Crowdfunding.sol\":2662:2695  state == CampaignState.Successful */\n              0x02\n              dup2\n              gt\n              iszero\n              tag_168\n              jumpi\n              tag_168\n              tag_135\n              jump\t// in\n            tag_168:\n              eq\n                /* \"Crowdfunding.sol\":2654:2724  require(state == CampaignState.Successful, \"Campaign not successful.\") */\n              tag_169\n              jumpi\n              mload(0x40)\n              shl(0xe5, 0x461bcd)\n              dup2\n              mstore\n                /* \"#utility.yul\":6813:6815   */\n              0x20\n                /* \"Crowdfunding.sol\":2654:2724  require(state == CampaignState.Successful, \"Campaign not successful.\") */\n              0x04\n              dup3\n              add\n                /* \"#utility.yul\":6795:6816   */\n              mstore\n                /* \"#utility.yul\":6852:6854   */\n              0x18\n                /* \"#utility.yul\":6832:6850   */\n              0x24\n              dup3\n              add\n                /* \"#utility.yul\":6825:6855   */\n              mstore\n                /* \"#utility.yul\":6891:6917   */\n              0x43616d706169676e206e6f74207375636365737366756c2e0000000000000000\n                /* \"#utility.yul\":6871:6889   */\n              0x44\n              dup3\n              add\n                /* \"#utility.yul\":6864:6918   */\n              mstore\n                /* \"#utility.yul\":6935:6953   */\n              0x64\n              add\n                /* \"Crowdfunding.sol\":2654:2724  require(state == CampaignState.Successful, \"Campaign not successful.\") */\n              tag_144\n                /* \"#utility.yul\":6611:6959   */\n              jump\n                /* \"Crowdfunding.sol\":2654:2724  require(state == CampaignState.Successful, \"Campaign not successful.\") */\n            tag_169:\n                /* \"Crowdfunding.sol\":2753:2774  address(this).balance */\n              selfbalance\n                /* \"Crowdfunding.sol\":2792:2803  balance > 0 */\n              dup1\n                /* \"Crowdfunding.sol\":2784:2830  require(balance > 0, \"No balance to withdraw\") */\n              tag_172\n              jumpi\n              mload(0x40)\n              shl(0xe5, 0x461bcd)\n              dup2\n              mstore\n                /* \"#utility.yul\":7166:7168   */\n              0x20\n                /* \"Crowdfunding.sol\":2784:2830  require(balance > 0, \"No balance to withdraw\") */\n              0x04\n              dup3\n              add\n                /* \"#utility.yul\":7148:7169   */\n              mstore\n                /* \"#utility.yul\":7205:7207   */\n              0x16\n                /* \"#utility.yul\":7185:7203   */\n              0x24\n              dup3\n              add\n                /* \"#utility.yul\":7178:7208   */\n              mstore\n                /* \"#utility.yul\":7244:7268   */\n              0x4e6f2062616c616e636520746f20776974686472617700000000000000000000\n                /* \"#utility.yul\":7224:7242   */\n              0x44\n              dup3\n              add\n                /* \"#utility.yul\":7217:7269   */\n              mstore\n                /* \"#utility.yul\":7286:7304   */\n              0x64\n              add\n                /* \"Crowdfunding.sol\":2784:2830  require(balance > 0, \"No balance to withdraw\") */\n              tag_144\n                /* \"#utility.yul\":6964:7310   */\n              jump\n                /* \"Crowdfunding.sol\":2784:2830  require(balance > 0, \"No balance to withdraw\") */\n            tag_172:\n                /* \"Crowdfunding.sol\":2849:2854  owner */\n              sload(0x04)\n                /* \"Crowdfunding.sol\":2841:2873  payable(owner).transfer(balance) */\n              mload(0x40)\n              sub(shl(0xa0, 0x01), 0x01)\n                /* \"Crowdfunding.sol\":2849:2854  owner */\n              swap1\n              swap2\n              and\n              swap1\n                /* \"Crowdfunding.sol\":2841:2873  payable(owner).transfer(balance) */\n              dup3\n              iszero\n              0x08fc\n              mul\n              swap1\n                /* \"Crowdfunding.sol\":2865:2872  balance */\n              dup4\n              swap1\n                /* \"Crowdfunding.sol\":2849:2854  owner */\n              0x00\n                /* \"Crowdfunding.sol\":2841:2873  payable(owner).transfer(balance) */\n              dup2\n                /* \"Crowdfunding.sol\":2849:2854  owner */\n              dup2\n                /* \"Crowdfunding.sol\":2841:2873  payable(owner).transfer(balance) */\n              dup2\n                /* \"Crowdfunding.sol\":2865:2872  balance */\n              dup6\n                /* \"Crowdfunding.sol\":2849:2854  owner */\n              dup9\n                /* \"Crowdfunding.sol\":2841:2873  payable(owner).transfer(balance) */\n              dup9\n              call\n              swap4\n              pop\n              pop\n              pop\n              pop\n              iszero\n              dup1\n              iszero\n              tag_176\n              jumpi\n              returndatasize\n              0x00\n              dup1\n              returndatacopy\n              revert(0x00, returndatasize)\n            tag_176:\n              pop\n                /* \"Crowdfunding.sol\":2605:2880  {... */\n              pop\n                /* \"Crowdfunding.sol\":2568:2880  function withdraw() public onlyOwner {... */\n              jump\t// out\n                /* \"Crowdfunding.sol\":2997:3362  function refund() public {... */\n            tag_64:\n                /* \"Crowdfunding.sol\":3032:3061  checkAndUpdateCampaignState() */\n              tag_178\n                /* \"Crowdfunding.sol\":3032:3059  checkAndUpdateCampaignState */\n              tag_164\n                /* \"Crowdfunding.sol\":3032:3061  checkAndUpdateCampaignState() */\n              jump\t// in\n            tag_178:\n                /* \"Crowdfunding.sol\":3088:3108  CampaignState.Failed */\n              0x02\n                /* \"Crowdfunding.sol\":3079:3084  state */\n              sload(0x04)\n              shl(0xa8, 0x01)\n              swap1\n              div\n              0xff\n              and\n                /* \"Crowdfunding.sol\":3079:3108  state == CampaignState.Failed */\n              0x02\n              dup2\n              gt\n              iszero\n              tag_182\n              jumpi\n              tag_182\n              tag_135\n              jump\t// in\n            tag_182:\n              eq\n                /* \"Crowdfunding.sol\":3071:3135  require(state == CampaignState.Failed, \"Refunds not available.\") */\n              tag_183\n              jumpi\n              mload(0x40)\n              shl(0xe5, 0x461bcd)\n              dup2\n              mstore\n                /* \"#utility.yul\":7517:7519   */\n              0x20\n                /* \"Crowdfunding.sol\":3071:3135  require(state == CampaignState.Failed, \"Refunds not available.\") */\n              0x04\n              dup3\n              add\n                /* \"#utility.yul\":7499:7520   */\n              mstore\n                /* \"#utility.yul\":7556:7558   */\n              0x16\n                /* \"#utility.yul\":7536:7554   */\n              0x24\n              dup3\n              add\n                /* \"#utility.yul\":7529:7559   */\n              mstore\n                /* \"#utility.yul\":7595:7619   */\n              0x526566756e6473206e6f7420617661696c61626c652e00000000000000000000\n                /* \"#utility.yul\":7575:7593   */\n              0x44\n              dup3\n              add\n                /* \"#utility.yul\":7568:7620   */\n              mstore\n                /* \"#utility.yul\":7637:7655   */\n              0x64\n              add\n                /* \"Crowdfunding.sol\":3071:3135  require(state == CampaignState.Failed, \"Refunds not available.\") */\n              tag_144\n                /* \"#utility.yul\":7315:7661   */\n              jump\n                /* \"Crowdfunding.sol\":3071:3135  require(state == CampaignState.Failed, \"Refunds not available.\") */\n            tag_183:\n                /* \"Crowdfunding.sol\":3170:3180  msg.sender */\n              caller\n                /* \"Crowdfunding.sol\":3145:3159  uint256 amount */\n              0x00\n                /* \"Crowdfunding.sol\":3162:3181  backers[msg.sender] */\n              swap1\n              dup2\n              mstore\n                /* \"Crowdfunding.sol\":3162:3169  backers */\n              0x06\n                /* \"Crowdfunding.sol\":3162:3181  backers[msg.sender] */\n              0x20\n              mstore\n              0x40\n              swap1\n              keccak256\n                /* \"Crowdfunding.sol\":3162:3199  backers[msg.sender].totalContribution */\n              sload\n                /* \"Crowdfunding.sol\":3217:3227  amount > 0 */\n              dup1\n                /* \"Crowdfunding.sol\":3209:3257  require(amount > 0, \"No contribution to refund\") */\n              tag_186\n              jumpi\n              mload(0x40)\n              shl(0xe5, 0x461bcd)\n              dup2\n              mstore\n                /* \"#utility.yul\":7868:7870   */\n              0x20\n                /* \"Crowdfunding.sol\":3209:3257  require(amount > 0, \"No contribution to refund\") */\n              0x04\n              dup3\n              add\n                /* \"#utility.yul\":7850:7871   */\n              mstore\n                /* \"#utility.yul\":7907:7909   */\n              0x19\n                /* \"#utility.yul\":7887:7905   */\n              0x24\n              dup3\n              add\n                /* \"#utility.yul\":7880:7910   */\n              mstore\n                /* \"#utility.yul\":7946:7973   */\n              0x4e6f20636f6e747269627574696f6e20746f20726566756e6400000000000000\n                /* \"#utility.yul\":7926:7944   */\n              0x44\n              dup3\n              add\n                /* \"#utility.yul\":7919:7974   */\n              mstore\n                /* \"#utility.yul\":7991:8009   */\n              0x64\n              add\n                /* \"Crowdfunding.sol\":3209:3257  require(amount > 0, \"No contribution to refund\") */\n              tag_144\n                /* \"#utility.yul\":7666:8015   */\n              jump\n                /* \"Crowdfunding.sol\":3209:3257  require(amount > 0, \"No contribution to refund\") */\n            tag_186:\n                /* \"Crowdfunding.sol\":3276:3286  msg.sender */\n              caller\n                /* \"Crowdfunding.sol\":3308:3309  0 */\n              0x00\n                /* \"Crowdfunding.sol\":3268:3287  backers[msg.sender] */\n              dup2\n              dup2\n              mstore\n                /* \"Crowdfunding.sol\":3268:3275  backers */\n              0x06\n                /* \"Crowdfunding.sol\":3268:3287  backers[msg.sender] */\n              0x20\n              mstore\n              0x40\n              dup1\n              dup3\n              keccak256\n                /* \"Crowdfunding.sol\":3268:3309  backers[msg.sender].totalContribution = 0 */\n              dup3\n              swap1\n              sstore\n                /* \"Crowdfunding.sol\":3319:3355  payable(msg.sender).transfer(amount) */\n              mload\n              dup4\n              iszero\n              0x08fc\n              mul\n              swap2\n                /* \"Crowdfunding.sol\":3348:3354  amount */\n              dup5\n              swap2\n                /* \"Crowdfunding.sol\":3319:3355  payable(msg.sender).transfer(amount) */\n              swap1\n              dup2\n                /* \"Crowdfunding.sol\":3308:3309  0 */\n              dup2\n                /* \"Crowdfunding.sol\":3319:3355  payable(msg.sender).transfer(amount) */\n              dup2\n                /* \"Crowdfunding.sol\":3348:3354  amount */\n              dup6\n                /* \"Crowdfunding.sol\":3276:3286  msg.sender */\n              dup9\n                /* \"Crowdfunding.sol\":3319:3355  payable(msg.sender).transfer(amount) */\n              dup9\n              call\n              swap4\n              pop\n              pop\n              pop\n              pop\n              iszero\n              dup1\n              iszero\n              tag_176\n              jumpi\n              returndatasize\n              0x00\n              dup1\n              returndatacopy\n              revert(0x00, returndatasize)\n                /* \"Crowdfunding.sol\":109:134  string public description */\n            tag_76:\n              0x01\n              dup1\n              sload\n              tag_127\n              swap1\n              tag_122\n              jump\t// in\n                /* \"Crowdfunding.sol\":2369:2562  function removeTier(uint256 _index) public onlyOwner {... */\n            tag_81:\n                /* \"Crowdfunding.sol\":661:666  owner */\n              and(sub(shl(0xa0, 0x01), 0x01), sload(0x04))\n                /* \"Crowdfunding.sol\":647:657  msg.sender */\n              caller\n                /* \"Crowdfunding.sol\":647:666  msg.sender == owner */\n              eq\n                /* \"Crowdfunding.sol\":639:684  require(msg.sender == owner, \"Not the owner\") */\n              tag_198\n              jumpi\n              mload(0x40)\n              shl(0xe5, 0x461bcd)\n              dup2\n              mstore\n                /* \"#utility.yul\":5684:5686   */\n              0x20\n                /* \"Crowdfunding.sol\":639:684  require(msg.sender == owner, \"Not the owner\") */\n              0x04\n              dup3\n              add\n                /* \"#utility.yul\":5666:5687   */\n              mstore\n                /* \"#utility.yul\":5723:5725   */\n              0x0d\n                /* \"#utility.yul\":5703:5721   */\n              0x24\n              dup3\n              add\n                /* \"#utility.yul\":5696:5726   */\n              mstore\n              shl(0x99, 0x2737ba103a34329037bbb732b9)\n                /* \"#utility.yul\":5742:5760   */\n              0x44\n              dup3\n              add\n                /* \"#utility.yul\":5735:5778   */\n              mstore\n                /* \"#utility.yul\":5795:5813   */\n              0x64\n              add\n                /* \"Crowdfunding.sol\":639:684  require(msg.sender == owner, \"Not the owner\") */\n              tag_144\n                /* \"#utility.yul\":5482:5819   */\n              jump\n                /* \"Crowdfunding.sol\":639:684  require(msg.sender == owner, \"Not the owner\") */\n            tag_198:\n                /* \"Crowdfunding.sol\":2449:2454  tiers */\n              0x05\n                /* \"Crowdfunding.sol\":2449:2461  tiers.length */\n              sload\n                /* \"Crowdfunding.sol\":2440:2461  _index < tiers.length */\n              dup2\n              lt\n                /* \"Crowdfunding.sol\":2432:2486  require(_index < tiers.length, \"Tier does not exist.\") */\n              tag_201\n              jumpi\n              mload(0x40)\n              shl(0xe5, 0x461bcd)\n              dup2\n              mstore\n                /* \"#utility.yul\":8222:8224   */\n              0x20\n                /* \"Crowdfunding.sol\":2432:2486  require(_index < tiers.length, \"Tier does not exist.\") */\n              0x04\n              dup3\n              add\n                /* \"#utility.yul\":8204:8225   */\n              mstore\n                /* \"#utility.yul\":8261:8263   */\n              0x14\n                /* \"#utility.yul\":8241:8259   */\n              0x24\n              dup3\n              add\n                /* \"#utility.yul\":8234:8264   */\n              mstore\n                /* \"#utility.yul\":8300:8322   */\n              0x5469657220646f6573206e6f742065786973742e000000000000000000000000\n                /* \"#utility.yul\":8280:8298   */\n              0x44\n              dup3\n              add\n                /* \"#utility.yul\":8273:8323   */\n              mstore\n                /* \"#utility.yul\":8340:8358   */\n              0x64\n              add\n                /* \"Crowdfunding.sol\":2432:2486  require(_index < tiers.length, \"Tier does not exist.\") */\n              tag_144\n                /* \"#utility.yul\":8020:8364   */\n              jump\n                /* \"Crowdfunding.sol\":2432:2486  require(_index < tiers.length, \"Tier does not exist.\") */\n            tag_201:\n                /* \"Crowdfunding.sol\":2512:2517  tiers */\n              0x05\n                /* \"Crowdfunding.sol\":2518:2530  tiers.length */\n              dup1\n              sload\n                /* \"Crowdfunding.sol\":2518:2533  tiers.length -1 */\n              tag_204\n              swap1\n                /* \"Crowdfunding.sol\":2532:2533  1 */\n              0x01\n              swap1\n                /* \"Crowdfunding.sol\":2518:2533  tiers.length -1 */\n              tag_205\n              jump\t// in\n            tag_204:\n                /* \"Crowdfunding.sol\":2512:2534  tiers[tiers.length -1] */\n              dup2\n              sload\n              dup2\n              lt\n              tag_207\n              jumpi\n              tag_207\n              tag_208\n              jump\t// in\n            tag_207:\n              swap1\n              0x00\n              mstore\n              keccak256(0x00, 0x20)\n              swap1\n              0x03\n              mul\n              add\n                /* \"Crowdfunding.sol\":2496:2501  tiers */\n              0x05\n                /* \"Crowdfunding.sol\":2502:2508  _index */\n              dup3\n                /* \"Crowdfunding.sol\":2496:2509  tiers[_index] */\n              dup2\n              sload\n              dup2\n              lt\n              tag_211\n              jumpi\n              tag_211\n              tag_208\n              jump\t// in\n            tag_211:\n              0x00\n              swap2\n              dup3\n              mstore\n              0x20\n              swap1\n              swap2\n              keccak256\n              0x03\n              swap1\n              swap2\n              mul\n              add\n              dup1\n                /* \"Crowdfunding.sol\":2496:2534  tiers[_index] = tiers[tiers.length -1] */\n              tag_213\n              dup4\n                /* \"Crowdfunding.sol\":2496:2509  tiers[_index] */\n              dup3\n                /* \"Crowdfunding.sol\":2496:2534  tiers[_index] = tiers[tiers.length -1] */\n              tag_214\n              jump\t// in\n            tag_213:\n              pop\n              0x01\n              dup3\n              dup2\n              add\n              sload\n              swap1\n              dup3\n              add\n              sstore\n              0x02\n              swap2\n              dup3\n              add\n              sload\n              swap2\n              add\n              sstore\n                /* \"Crowdfunding.sol\":2544:2549  tiers */\n              0x05\n                /* \"Crowdfunding.sol\":2544:2555  tiers.pop() */\n              dup1\n              sload\n              dup1\n              tag_216\n              jumpi\n              tag_216\n              tag_217\n              jump\t// in\n            tag_216:\n              0x00\n              dup3\n              dup2\n              mstore\n              0x20\n              dup2\n              keccak256\n              not(0x00)\n              swap1\n              swap3\n              add\n              swap2\n              0x03\n              dup4\n              mul\n              add\n              swap1\n              tag_219\n              dup3\n              dup3\n              tag_220\n              jump\t// in\n            tag_219:\n              pop\n              0x00\n              0x01\n              dup3\n              add\n              dup2\n              swap1\n              sstore\n              0x02\n              swap1\n              swap2\n              add\n              sstore\n              swap1\n              sstore\n              pop\n                /* \"Crowdfunding.sol\":2369:2562  function removeTier(uint256 _index) public onlyOwner {... */\n              jump\t// out\n                /* \"Crowdfunding.sol\":3368:3519  function hasFundedTier(address _backer, uint256 _tierIndex) public view returns (bool) {... */\n            tag_86:\n              sub(shl(0xa0, 0x01), 0x01)\n                /* \"Crowdfunding.sol\":3472:3488  backers[_backer] */\n              dup3\n              and\n                /* \"Crowdfunding.sol\":3449:3453  bool */\n              0x00\n                /* \"Crowdfunding.sol\":3472:3488  backers[_backer] */\n              swap1\n              dup2\n              mstore\n                /* \"Crowdfunding.sol\":3472:3479  backers */\n              0x06\n                /* \"Crowdfunding.sol\":3472:3488  backers[_backer] */\n              0x20\n              swap1\n              dup2\n              mstore\n              0x40\n              dup1\n              dup4\n              keccak256\n                /* \"Crowdfunding.sol\":3472:3512  backers[_backer].fundedTiers[_tierIndex] */\n              dup5\n              dup5\n              mstore\n                /* \"Crowdfunding.sol\":3472:3500  backers[_backer].fundedTiers */\n              0x01\n              add\n                /* \"Crowdfunding.sol\":3472:3512  backers[_backer].fundedTiers[_tierIndex] */\n              swap1\n              swap2\n              mstore\n              swap1\n              keccak256\n              sload\n              0xff\n              and\n                /* \"Crowdfunding.sol\":3368:3519  function hasFundedTier(address _backer, uint256 _tierIndex) public view returns (bool) {... */\n            tag_221:\n              swap3\n              swap2\n              pop\n              pop\n              jump\t// out\n                /* \"Crowdfunding.sol\":2153:2363  function addTier(... */\n            tag_97:\n                /* \"Crowdfunding.sol\":661:666  owner */\n              and(sub(shl(0xa0, 0x01), 0x01), sload(0x04))\n                /* \"Crowdfunding.sol\":647:657  msg.sender */\n              caller\n                /* \"Crowdfunding.sol\":647:666  msg.sender == owner */\n              eq\n                /* \"Crowdfunding.sol\":639:684  require(msg.sender == owner, \"Not the owner\") */\n              tag_223\n              jumpi\n              mload(0x40)\n              shl(0xe5, 0x461bcd)\n              dup2\n              mstore\n                /* \"#utility.yul\":5684:5686   */\n              0x20\n                /* \"Crowdfunding.sol\":639:684  require(msg.sender == owner, \"Not the owner\") */\n              0x04\n              dup3\n              add\n                /* \"#utility.yul\":5666:5687   */\n              mstore\n                /* \"#utility.yul\":5723:5725   */\n              0x0d\n                /* \"#utility.yul\":5703:5721   */\n              0x24\n              dup3\n              add\n                /* \"#utility.yul\":5696:5726   */\n              mstore\n              shl(0x99, 0x2737ba103a34329037bbb732b9)\n                /* \"#utility.yul\":5742:5760   */\n              0x44\n              dup3\n              add\n                /* \"#utility.yul\":5735:5778   */\n              mstore\n                /* \"#utility.yul\":5795:5813   */\n              0x64\n              add\n                /* \"Crowdfunding.sol\":639:684  require(msg.sender == owner, \"Not the owner\") */\n              tag_144\n                /* \"#utility.yul\":5482:5819   */\n              jump\n                /* \"Crowdfunding.sol\":639:684  require(msg.sender == owner, \"Not the owner\") */\n            tag_223:\n                /* \"Crowdfunding.sol\":2275:2276  0 */\n              0x00\n                /* \"Crowdfunding.sol\":2265:2272  _amount */\n              dup2\n                /* \"Crowdfunding.sol\":2265:2276  _amount > 0 */\n              gt\n                /* \"Crowdfunding.sol\":2257:2311  require(_amount > 0, \"Amount must be greater than 0.\") */\n              tag_226\n              jumpi\n              mload(0x40)\n              shl(0xe5, 0x461bcd)\n              dup2\n              mstore\n                /* \"#utility.yul\":11216:11218   */\n              0x20\n                /* \"Crowdfunding.sol\":2257:2311  require(_amount > 0, \"Amount must be greater than 0.\") */\n              0x04\n              dup3\n              add\n                /* \"#utility.yul\":11198:11219   */\n              mstore\n                /* \"#utility.yul\":11255:11257   */\n              0x1e\n                /* \"#utility.yul\":11235:11253   */\n              0x24\n              dup3\n              add\n                /* \"#utility.yul\":11228:11258   */\n              mstore\n                /* \"#utility.yul\":11294:11326   */\n              0x416d6f756e74206d7573742062652067726561746572207468616e20302e0000\n                /* \"#utility.yul\":11274:11292   */\n              0x44\n              dup3\n              add\n                /* \"#utility.yul\":11267:11327   */\n              mstore\n                /* \"#utility.yul\":11344:11362   */\n              0x64\n              add\n                /* \"Crowdfunding.sol\":2257:2311  require(_amount > 0, \"Amount must be greater than 0.\") */\n              tag_144\n                /* \"#utility.yul\":11014:11368   */\n              jump\n                /* \"Crowdfunding.sol\":2257:2311  require(_amount > 0, \"Amount must be greater than 0.\") */\n            tag_226:\n                /* \"Crowdfunding.sol\":2332:2355  Tier(_name, _amount, 0) */\n              0x40\n              dup1\n              mload\n              0x60\n              dup2\n              add\n              dup3\n              mstore\n              dup4\n              dup2\n              mstore\n              0x20\n              dup2\n              add\n              dup4\n              swap1\n              mstore\n              0x00\n              swap2\n              dup2\n              add\n              dup3\n              swap1\n              mstore\n                /* \"Crowdfunding.sol\":2321:2326  tiers */\n              0x05\n                /* \"Crowdfunding.sol\":2321:2356  tiers.push(Tier(_name, _amount, 0)) */\n              dup1\n              sload\n              0x01\n              dup2\n              add\n              dup3\n              sstore\n              swap3\n              mstore\n              dup1\n              mload\n                /* \"Crowdfunding.sol\":2332:2355  Tier(_name, _amount, 0) */\n              swap1\n              swap2\n                /* \"Crowdfunding.sol\":2321:2356  tiers.push(Tier(_name, _amount, 0)) */\n              0x03\n              mul\n              0x036b6384b5eca791c62761152d0c79bb0604c104a5fb6f4eb0703f3154bb3db0\n              add\n              swap1\n              dup2\n              swap1\n              tag_230\n              swap1\n              dup3\n              tag_231\n              jump\t// in\n            tag_230:\n              pop\n              0x20\n              dup3\n              add\n              mload\n              dup2\n              0x01\n              add\n              sstore\n              0x40\n              dup3\n              add\n              mload\n              dup2\n              0x02\n              add\n              sstore\n              pop\n              pop\n                /* \"Crowdfunding.sol\":2153:2363  function addTier(... */\n              pop\n              pop\n              jump\t// out\n                /* \"Crowdfunding.sol\":3616:3689  function togglePause() public onlyOwner {... */\n            tag_110:\n                /* \"Crowdfunding.sol\":661:666  owner */\n              and(sub(shl(0xa0, 0x01), 0x01), sload(0x04))\n                /* \"Crowdfunding.sol\":647:657  msg.sender */\n              caller\n                /* \"Crowdfunding.sol\":647:666  msg.sender == owner */\n              eq\n                /* \"Crowdfunding.sol\":639:684  require(msg.sender == owner, \"Not the owner\") */\n              tag_233\n              jumpi\n              mload(0x40)\n              shl(0xe5, 0x461bcd)\n              dup2\n              mstore\n                /* \"#utility.yul\":5684:5686   */\n              0x20\n                /* \"Crowdfunding.sol\":639:684  require(msg.sender == owner, \"Not the owner\") */\n              0x04\n              dup3\n              add\n                /* \"#utility.yul\":5666:5687   */\n              mstore\n                /* \"#utility.yul\":5723:5725   */\n              0x0d\n                /* \"#utility.yul\":5703:5721   */\n              0x24\n              dup3\n              add\n                /* \"#utility.yul\":5696:5726   */\n              mstore\n              shl(0x99, 0x2737ba103a34329037bbb732b9)\n                /* \"#utility.yul\":5742:5760   */\n              0x44\n              dup3\n              add\n                /* \"#utility.yul\":5735:5778   */\n              mstore\n                /* \"#utility.yul\":5795:5813   */\n              0x64\n              add\n                /* \"Crowdfunding.sol\":639:684  require(msg.sender == owner, \"Not the owner\") */\n              tag_144\n                /* \"#utility.yul\":5482:5819   */\n              jump\n                /* \"Crowdfunding.sol\":639:684  require(msg.sender == owner, \"Not the owner\") */\n            tag_233:\n                /* \"Crowdfunding.sol\":3676:3682  paused */\n              0x04\n              dup1\n              sload\n                /* \"Crowdfunding.sol\":3666:3682  paused = !paused */\n              0xffffffffffffffffffffff00ffffffffffffffffffffffffffffffffffffffff\n              dup2\n              and\n              shl(0xa0, 0x01)\n                /* \"Crowdfunding.sol\":3676:3682  paused */\n              swap2\n              dup3\n              swap1\n              div\n              0xff\n              and\n                /* \"Crowdfunding.sol\":3675:3682  !paused */\n              iszero\n                /* \"Crowdfunding.sol\":3666:3682  paused = !paused */\n              swap1\n              swap2\n              mul\n              or\n              swap1\n              sstore\n                /* \"Crowdfunding.sol\":3616:3689  function togglePause() public onlyOwner {... */\n              jump\t// out\n                /* \"Crowdfunding.sol\":1732:2147  function fund(uint256 _tierIndex) public payable campaignOpen notPaused {... */\n            tag_113:\n                /* \"Crowdfunding.sol\":759:779  CampaignState.Active */\n              0x00\n                /* \"Crowdfunding.sol\":750:755  state */\n              sload(0x04)\n              shl(0xa8, 0x01)\n              swap1\n              div\n              0xff\n              and\n                /* \"Crowdfunding.sol\":750:779  state == CampaignState.Active */\n              0x02\n              dup2\n              gt\n              iszero\n              tag_240\n              jumpi\n              tag_240\n              tag_135\n              jump\t// in\n            tag_240:\n              eq\n                /* \"Crowdfunding.sol\":742:807  require(state == CampaignState.Active, \"Campaign is not active.\") */\n              tag_241\n              jumpi\n              mload(0x40)\n              shl(0xe5, 0x461bcd)\n              dup2\n              mstore\n                /* \"#utility.yul\":6026:6028   */\n              0x20\n                /* \"Crowdfunding.sol\":742:807  require(state == CampaignState.Active, \"Campaign is not active.\") */\n              0x04\n              dup3\n              add\n                /* \"#utility.yul\":6008:6029   */\n              mstore\n                /* \"#utility.yul\":6065:6067   */\n              0x17\n                /* \"#utility.yul\":6045:6063   */\n              0x24\n              dup3\n              add\n                /* \"#utility.yul\":6038:6068   */\n              mstore\n                /* \"#utility.yul\":6104:6129   */\n              0x43616d706169676e206973206e6f74206163746976652e000000000000000000\n                /* \"#utility.yul\":6084:6102   */\n              0x44\n              dup3\n              add\n                /* \"#utility.yul\":6077:6130   */\n              mstore\n                /* \"#utility.yul\":6147:6165   */\n              0x64\n              add\n                /* \"Crowdfunding.sol\":742:807  require(state == CampaignState.Active, \"Campaign is not active.\") */\n              tag_144\n                /* \"#utility.yul\":5824:6171   */\n              jump\n                /* \"Crowdfunding.sol\":742:807  require(state == CampaignState.Active, \"Campaign is not active.\") */\n            tag_241:\n                /* \"Crowdfunding.sol\":871:877  paused */\n              sload(0x04)\n              shl(0xa0, 0x01)\n              swap1\n              div\n              0xff\n              and\n                /* \"Crowdfunding.sol\":870:877  !paused */\n              iszero\n                /* \"Crowdfunding.sol\":862:901  require(!paused, \"Contract is paused.\") */\n              tag_244\n              jumpi\n              mload(0x40)\n              shl(0xe5, 0x461bcd)\n              dup2\n              mstore\n                /* \"#utility.yul\":12925:12927   */\n              0x20\n                /* \"Crowdfunding.sol\":862:901  require(!paused, \"Contract is paused.\") */\n              0x04\n              dup3\n              add\n                /* \"#utility.yul\":12907:12928   */\n              mstore\n                /* \"#utility.yul\":12964:12966   */\n              0x13\n                /* \"#utility.yul\":12944:12962   */\n              0x24\n              dup3\n              add\n                /* \"#utility.yul\":12937:12967   */\n              mstore\n                /* \"#utility.yul\":13003:13024   */\n              0x436f6e7472616374206973207061757365642e00000000000000000000000000\n                /* \"#utility.yul\":12983:13001   */\n              0x44\n              dup3\n              add\n                /* \"#utility.yul\":12976:13025   */\n              mstore\n                /* \"#utility.yul\":13042:13060   */\n              0x64\n              add\n                /* \"Crowdfunding.sol\":862:901  require(!paused, \"Contract is paused.\") */\n              tag_144\n                /* \"#utility.yul\":12723:13066   */\n              jump\n                /* \"Crowdfunding.sol\":862:901  require(!paused, \"Contract is paused.\") */\n            tag_244:\n                /* \"Crowdfunding.sol\":1835:1840  tiers */\n              0x05\n                /* \"Crowdfunding.sol\":1835:1847  tiers.length */\n              sload\n                /* \"Crowdfunding.sol\":1822:1847  _tierIndex < tiers.length */\n              dup2\n              lt\n                /* \"Crowdfunding.sol\":1814:1865  require(_tierIndex < tiers.length, \"Invalid tier.\") */\n              tag_248\n              jumpi\n              mload(0x40)\n              shl(0xe5, 0x461bcd)\n              dup2\n              mstore\n                /* \"#utility.yul\":13273:13275   */\n              0x20\n                /* \"Crowdfunding.sol\":1814:1865  require(_tierIndex < tiers.length, \"Invalid tier.\") */\n              0x04\n              dup3\n              add\n                /* \"#utility.yul\":13255:13276   */\n              mstore\n                /* \"#utility.yul\":13312:13314   */\n              0x0d\n                /* \"#utility.yul\":13292:13310   */\n              0x24\n              dup3\n              add\n                /* \"#utility.yul\":13285:13315   */\n              mstore\n                /* \"#utility.yul\":13351:13366   */\n              0x496e76616c696420746965722e00000000000000000000000000000000000000\n                /* \"#utility.yul\":13331:13349   */\n              0x44\n              dup3\n              add\n                /* \"#utility.yul\":13324:13367   */\n              mstore\n                /* \"#utility.yul\":13384:13402   */\n              0x64\n              add\n                /* \"Crowdfunding.sol\":1814:1865  require(_tierIndex < tiers.length, \"Invalid tier.\") */\n              tag_144\n                /* \"#utility.yul\":13071:13408   */\n              jump\n                /* \"Crowdfunding.sol\":1814:1865  require(_tierIndex < tiers.length, \"Invalid tier.\") */\n            tag_248:\n                /* \"Crowdfunding.sol\":1896:1901  tiers */\n              0x05\n                /* \"Crowdfunding.sol\":1902:1912  _tierIndex */\n              dup2\n                /* \"Crowdfunding.sol\":1896:1913  tiers[_tierIndex] */\n              dup2\n              sload\n              dup2\n              lt\n              tag_252\n              jumpi\n              tag_252\n              tag_208\n              jump\t// in\n            tag_252:\n              swap1\n              0x00\n              mstore\n              keccak256(0x00, 0x20)\n              swap1\n              0x03\n              mul\n              add\n                /* \"Crowdfunding.sol\":1896:1920  tiers[_tierIndex].amount */\n              0x01\n              add\n              sload\n                /* \"Crowdfunding.sol\":1883:1892  msg.value */\n              callvalue\n                /* \"Crowdfunding.sol\":1883:1920  msg.value == tiers[_tierIndex].amount */\n              eq\n                /* \"Crowdfunding.sol\":1875:1942  require(msg.value == tiers[_tierIndex].amount, \"Incorrect amount.\") */\n              tag_254\n              jumpi\n              mload(0x40)\n              shl(0xe5, 0x461bcd)\n              dup2\n              mstore\n                /* \"#utility.yul\":13615:13617   */\n              0x20\n                /* \"Crowdfunding.sol\":1875:1942  require(msg.value == tiers[_tierIndex].amount, \"Incorrect amount.\") */\n              0x04\n              dup3\n              add\n                /* \"#utility.yul\":13597:13618   */\n              mstore\n                /* \"#utility.yul\":13654:13656   */\n              0x11\n                /* \"#utility.yul\":13634:13652   */\n              0x24\n              dup3\n              add\n                /* \"#utility.yul\":13627:13657   */\n              mstore\n                /* \"#utility.yul\":13693:13712   */\n              0x496e636f727265637420616d6f756e742e000000000000000000000000000000\n                /* \"#utility.yul\":13673:13691   */\n              0x44\n              dup3\n              add\n                /* \"#utility.yul\":13666:13713   */\n              mstore\n                /* \"#utility.yul\":13730:13748   */\n              0x64\n              add\n                /* \"Crowdfunding.sol\":1875:1942  require(msg.value == tiers[_tierIndex].amount, \"Incorrect amount.\") */\n              tag_144\n                /* \"#utility.yul\":13413:13754   */\n              jump\n                /* \"Crowdfunding.sol\":1875:1942  require(msg.value == tiers[_tierIndex].amount, \"Incorrect amount.\") */\n            tag_254:\n                /* \"Crowdfunding.sol\":1953:1958  tiers */\n              0x05\n                /* \"Crowdfunding.sol\":1959:1969  _tierIndex */\n              dup2\n                /* \"Crowdfunding.sol\":1953:1970  tiers[_tierIndex] */\n              dup2\n              sload\n              dup2\n              lt\n              tag_258\n              jumpi\n              tag_258\n              tag_208\n              jump\t// in\n            tag_258:\n              0x00\n              swap2\n              dup3\n              mstore\n              0x20\n              dup3\n              keccak256\n                /* \"Crowdfunding.sol\":1953:1978  tiers[_tierIndex].backers */\n              0x02\n                /* \"Crowdfunding.sol\":1953:1970  tiers[_tierIndex] */\n              0x03\n              swap1\n              swap3\n              mul\n              add\n                /* \"Crowdfunding.sol\":1953:1978  tiers[_tierIndex].backers */\n              add\n                /* \"Crowdfunding.sol\":1953:1980  tiers[_tierIndex].backers++ */\n              dup1\n              sload\n              swap2\n              tag_260\n              dup4\n              tag_261\n              jump\t// in\n            tag_260:\n              swap1\n              swap2\n              sstore\n              pop\n              pop\n                /* \"Crowdfunding.sol\":1998:2008  msg.sender */\n              caller\n                /* \"Crowdfunding.sol\":1990:2009  backers[msg.sender] */\n              0x00\n              swap1\n              dup2\n              mstore\n                /* \"Crowdfunding.sol\":1990:1997  backers */\n              0x06\n                /* \"Crowdfunding.sol\":1990:2009  backers[msg.sender] */\n              0x20\n              mstore\n              0x40\n              dup2\n              keccak256\n                /* \"Crowdfunding.sol\":1990:2040  backers[msg.sender].totalContribution += msg.value */\n              dup1\n              sload\n                /* \"Crowdfunding.sol\":2031:2040  msg.value */\n              callvalue\n              swap3\n                /* \"Crowdfunding.sol\":1990:2009  backers[msg.sender] */\n              swap1\n                /* \"Crowdfunding.sol\":1990:2040  backers[msg.sender].totalContribution += msg.value */\n              tag_262\n              swap1\n                /* \"Crowdfunding.sol\":2031:2040  msg.value */\n              dup5\n              swap1\n                /* \"Crowdfunding.sol\":1990:2040  backers[msg.sender].totalContribution += msg.value */\n              tag_158\n              jump\t// in\n            tag_262:\n              swap1\n              swap2\n              sstore\n              pop\n              pop\n                /* \"Crowdfunding.sol\":2058:2068  msg.sender */\n              caller\n                /* \"Crowdfunding.sol\":2050:2069  backers[msg.sender] */\n              0x00\n              swap1\n              dup2\n              mstore\n                /* \"Crowdfunding.sol\":2050:2057  backers */\n              0x06\n                /* \"Crowdfunding.sol\":2050:2069  backers[msg.sender] */\n              0x20\n              swap1\n              dup2\n              mstore\n              0x40\n              dup1\n              dup4\n              keccak256\n                /* \"Crowdfunding.sol\":2050:2093  backers[msg.sender].fundedTiers[_tierIndex] */\n              dup5\n              dup5\n              mstore\n                /* \"Crowdfunding.sol\":2096:2100  true */\n              0x01\n                /* \"Crowdfunding.sol\":2050:2081  backers[msg.sender].fundedTiers */\n              swap1\n              dup2\n              add\n                /* \"Crowdfunding.sol\":2050:2093  backers[msg.sender].fundedTiers[_tierIndex] */\n              swap1\n              swap3\n              mstore\n              swap1\n              swap2\n              keccak256\n                /* \"Crowdfunding.sol\":2050:2100  backers[msg.sender].fundedTiers[_tierIndex] = true */\n              dup1\n              sload\n              not(0xff)\n              and\n              swap1\n              swap2\n              or\n              swap1\n              sstore\n                /* \"Crowdfunding.sol\":2111:2140  checkAndUpdateCampaignState() */\n              tag_263\n                /* \"Crowdfunding.sol\":2111:2138  checkAndUpdateCampaignState */\n              tag_164\n                /* \"Crowdfunding.sol\":2111:2140  checkAndUpdateCampaignState() */\n              jump\t// in\n            tag_263:\n                /* \"Crowdfunding.sol\":1732:2147  function fund(uint256 _tierIndex) public payable campaignOpen notPaused {... */\n              pop\n              jump\t// out\n                /* \"Crowdfunding.sol\":3525:3610  function getTiers() public view returns (Tier[] memory) {... */\n            tag_116:\n                /* \"Crowdfunding.sol\":3566:3579  Tier[] memory */\n              0x60\n                /* \"Crowdfunding.sol\":3598:3603  tiers */\n              0x05\n                /* \"Crowdfunding.sol\":3591:3603  return tiers */\n              dup1\n              sload\n              dup1\n              0x20\n              mul\n              0x20\n              add\n              mload(0x40)\n              swap1\n              dup2\n              add\n              0x40\n              mstore\n              dup1\n              swap3\n              swap2\n              swap1\n              dup2\n              dup2\n              mstore\n              0x20\n              add\n              0x00\n              swap1\n            tag_265:\n              dup3\n              dup3\n              lt\n              iszero\n              tag_266\n              jumpi\n              dup4\n              dup3\n              swap1\n              0x00\n              mstore\n              keccak256(0x00, 0x20)\n              swap1\n              0x03\n              mul\n              add\n              mload(0x40)\n              dup1\n              0x60\n              add\n              0x40\n              mstore\n              swap1\n              dup2\n              0x00\n              dup3\n              add\n              dup1\n              sload\n              tag_268\n              swap1\n              tag_122\n              jump\t// in\n            tag_268:\n              dup1\n              0x1f\n              add\n              0x20\n              dup1\n              swap2\n              div\n              mul\n              0x20\n              add\n              mload(0x40)\n              swap1\n              dup2\n              add\n              0x40\n              mstore\n              dup1\n              swap3\n              swap2\n              swap1\n              dup2\n              dup2\n              mstore\n              0x20\n              add\n              dup3\n              dup1\n              sload\n              tag_269\n              swap1\n              tag_122\n              jump\t// in\n            tag_269:\n              dup1\n              iszero\n              tag_270\n              jumpi\n              dup1\n              0x1f\n              lt\n              tag_271\n              jumpi\n              0x0100\n              dup1\n              dup4\n              sload\n              div\n              mul\n              dup4\n              mstore\n              swap2\n              0x20\n              add\n              swap2\n              jump(tag_270)\n            tag_271:\n              dup3\n              add\n              swap2\n              swap1\n              0x00\n              mstore\n              keccak256(0x00, 0x20)\n              swap1\n            tag_272:\n              dup2\n              sload\n              dup2\n              mstore\n              swap1\n              0x01\n              add\n              swap1\n              0x20\n              add\n              dup1\n              dup4\n              gt\n              tag_272\n              jumpi\n              dup3\n              swap1\n              sub\n              0x1f\n              and\n              dup3\n              add\n              swap2\n            tag_270:\n              pop\n              pop\n              pop\n              pop\n              pop\n              dup2\n              mstore\n              0x20\n              add\n              0x01\n              dup3\n              add\n              sload\n              dup2\n              mstore\n              0x20\n              add\n              0x02\n              dup3\n              add\n              sload\n              dup2\n              mstore\n              pop\n              pop\n              dup2\n              mstore\n              0x20\n              add\n              swap1\n              0x01\n              add\n              swap1\n              jump(tag_265)\n            tag_266:\n              pop\n              pop\n              pop\n              pop\n              swap1\n              pop\n                /* \"Crowdfunding.sol\":3525:3610  function getTiers() public view returns (Tier[] memory) {... */\n              swap1\n              jump\t// out\n                /* \"Crowdfunding.sol\":1314:1726  function checkAndUpdateCampaignState() internal {... */\n            tag_164:\n                /* \"Crowdfunding.sol\":1384:1404  CampaignState.Active */\n              0x00\n                /* \"Crowdfunding.sol\":1375:1380  state */\n              sload(0x04)\n              shl(0xa8, 0x01)\n              swap1\n              div\n              0xff\n              and\n                /* \"Crowdfunding.sol\":1375:1404  state == CampaignState.Active */\n              0x02\n              dup2\n              gt\n              iszero\n              tag_277\n              jumpi\n              tag_277\n              tag_135\n              jump\t// in\n            tag_277:\n              sub\n                /* \"Crowdfunding.sol\":1372:1720  if(state == CampaignState.Active) {... */\n              tag_284\n              jumpi\n                /* \"Crowdfunding.sol\":1442:1450  deadline */\n              sload(0x03)\n                /* \"Crowdfunding.sol\":1423:1438  block.timestamp */\n              timestamp\n                /* \"Crowdfunding.sol\":1423:1450  block.timestamp >= deadline */\n              lt\n                /* \"Crowdfunding.sol\":1420:1710  if(block.timestamp >= deadline) {... */\n              tag_279\n              jumpi\n                /* \"Crowdfunding.sol\":1503:1507  goal */\n              sload(0x02)\n                /* \"Crowdfunding.sol\":1478:1499  address(this).balance */\n              selfbalance\n                /* \"Crowdfunding.sol\":1478:1507  address(this).balance >= goal */\n              lt\n              iszero\n                /* \"Crowdfunding.sol\":1478:1557  address(this).balance >= goal ? CampaignState.Successful : CampaignState.Failed */\n              tag_280\n              jumpi\n                /* \"Crowdfunding.sol\":1537:1557  CampaignState.Failed */\n              0x02\n                /* \"Crowdfunding.sol\":1478:1557  address(this).balance >= goal ? CampaignState.Successful : CampaignState.Failed */\n              jump(tag_281)\n            tag_280:\n                /* \"Crowdfunding.sol\":1510:1534  CampaignState.Successful */\n              0x01\n                /* \"Crowdfunding.sol\":1478:1557  address(this).balance >= goal ? CampaignState.Successful : CampaignState.Failed */\n            tag_281:\n                /* \"Crowdfunding.sol\":1470:1475  state */\n              0x04\n                /* \"Crowdfunding.sol\":1470:1557  state = address(this).balance >= goal ? CampaignState.Successful : CampaignState.Failed */\n              dup1\n              sload\n              0xffffffffffffffffffff00ffffffffffffffffffffffffffffffffffffffffff\n              and\n              shl(0xa8, 0x01)\n              dup4\n              0x02\n              dup2\n              gt\n              iszero\n              tag_283\n              jumpi\n              tag_283\n              tag_135\n              jump\t// in\n            tag_283:\n              mul\n              or\n              swap1\n              sstore\n              pop\n                /* \"Crowdfunding.sol\":1314:1726  function checkAndUpdateCampaignState() internal {... */\n              jump\t// out\n                /* \"Crowdfunding.sol\":1420:1710  if(block.timestamp >= deadline) {... */\n            tag_279:\n                /* \"Crowdfunding.sol\":1641:1645  goal */\n              sload(0x02)\n                /* \"Crowdfunding.sol\":1616:1637  address(this).balance */\n              selfbalance\n                /* \"Crowdfunding.sol\":1616:1645  address(this).balance >= goal */\n              lt\n              iszero\n                /* \"Crowdfunding.sol\":1616:1695  address(this).balance >= goal ? CampaignState.Successful : CampaignState.Active */\n              tag_280\n              jumpi\n                /* \"Crowdfunding.sol\":1675:1695  CampaignState.Active */\n              0x00\n                /* \"Crowdfunding.sol\":1616:1695  address(this).balance >= goal ? CampaignState.Successful : CampaignState.Active */\n              jump(tag_281)\n                /* \"Crowdfunding.sol\":1420:1710  if(block.timestamp >= deadline) {... */\n            tag_284:\n                /* \"Crowdfunding.sol\":1314:1726  function checkAndUpdateCampaignState() internal {... */\n              jump\t// out\n            tag_220:\n              pop\n              dup1\n              sload\n              tag_289\n              swap1\n              tag_122\n              jump\t// in\n            tag_289:\n              0x00\n              dup3\n              sstore\n              dup1\n              0x1f\n              lt\n              tag_291\n              jumpi\n              pop\n              pop\n              jump\t// out\n            tag_291:\n              0x1f\n              add\n              0x20\n              swap1\n              div\n              swap1\n              0x00\n              mstore\n              keccak256(0x00, 0x20)\n              swap1\n              dup2\n              add\n              swap1\n              tag_263\n              swap2\n              swap1\n            tag_294:\n              dup1\n              dup3\n              gt\n              iszero\n              tag_295\n              jumpi\n              0x00\n              dup2\n              sstore\n              0x01\n              add\n              jump(tag_294)\n            tag_295:\n              pop\n              swap1\n              jump\t// out\n                /* \"#utility.yul\":14:194   */\n            tag_32:\n                /* \"#utility.yul\":73:79   */\n              0x00\n                /* \"#utility.yul\":126:128   */\n              0x20\n                /* \"#utility.yul\":114:123   */\n              dup3\n                /* \"#utility.yul\":105:112   */\n              dup5\n                /* \"#utility.yul\":101:124   */\n              sub\n                /* \"#utility.yul\":97:129   */\n              slt\n                /* \"#utility.yul\":94:146   */\n              iszero\n              tag_305\n              jumpi\n                /* \"#utility.yul\":142:143   */\n              0x00\n                /* \"#utility.yul\":139:140   */\n              dup1\n                /* \"#utility.yul\":132:144   */\n              revert\n                /* \"#utility.yul\":94:146   */\n            tag_305:\n              pop\n                /* \"#utility.yul\":165:188   */\n              calldataload\n              swap2\n                /* \"#utility.yul\":14:194   */\n              swap1\n              pop\n              jump\t// out\n                /* \"#utility.yul\":199:488   */\n            tag_296:\n                /* \"#utility.yul\":241:244   */\n              0x00\n                /* \"#utility.yul\":279:284   */\n              dup2\n                /* \"#utility.yul\":273:285   */\n              mload\n                /* \"#utility.yul\":306:312   */\n              dup1\n                /* \"#utility.yul\":301:304   */\n              dup5\n                /* \"#utility.yul\":294:313   */\n              mstore\n                /* \"#utility.yul\":362:368   */\n              dup1\n                /* \"#utility.yul\":355:359   */\n              0x20\n                /* \"#utility.yul\":348:353   */\n              dup5\n                /* \"#utility.yul\":344:360   */\n              add\n                /* \"#utility.yul\":337:341   */\n              0x20\n                /* \"#utility.yul\":332:335   */\n              dup7\n                /* \"#utility.yul\":328:342   */\n              add\n                /* \"#utility.yul\":322:369   */\n              mcopy\n                /* \"#utility.yul\":414:415   */\n              0x00\n                /* \"#utility.yul\":407:411   */\n              0x20\n                /* \"#utility.yul\":398:404   */\n              dup3\n                /* \"#utility.yul\":393:396   */\n              dup7\n                /* \"#utility.yul\":389:405   */\n              add\n                /* \"#utility.yul\":385:412   */\n              add\n                /* \"#utility.yul\":378:416   */\n              mstore\n                /* \"#utility.yul\":477:481   */\n              0x20\n                /* \"#utility.yul\":470:472   */\n              0x1f\n                /* \"#utility.yul\":466:473   */\n              not\n                /* \"#utility.yul\":461:463   */\n              0x1f\n                /* \"#utility.yul\":453:459   */\n              dup4\n                /* \"#utility.yul\":449:464   */\n              add\n                /* \"#utility.yul\":445:474   */\n              and\n                /* \"#utility.yul\":440:443   */\n              dup6\n                /* \"#utility.yul\":436:475   */\n              add\n                /* \"#utility.yul\":432:482   */\n              add\n                /* \"#utility.yul\":425:482   */\n              swap2\n              pop\n              pop\n                /* \"#utility.yul\":199:488   */\n              swap3\n              swap2\n              pop\n              pop\n              jump\t// out\n                /* \"#utility.yul\":493:855   */\n            tag_35:\n                /* \"#utility.yul\":698:700   */\n              0x60\n                /* \"#utility.yul\":687:696   */\n              dup2\n                /* \"#utility.yul\":680:701   */\n              mstore\n                /* \"#utility.yul\":661:665   */\n              0x00\n                /* \"#utility.yul\":718:763   */\n              tag_308\n                /* \"#utility.yul\":759:761   */\n              0x60\n                /* \"#utility.yul\":748:757   */\n              dup4\n                /* \"#utility.yul\":744:762   */\n              add\n                /* \"#utility.yul\":736:742   */\n              dup7\n                /* \"#utility.yul\":718:763   */\n              tag_296\n              jump\t// in\n            tag_308:\n                /* \"#utility.yul\":794:796   */\n              0x20\n                /* \"#utility.yul\":779:797   */\n              dup4\n              add\n                /* \"#utility.yul\":772:806   */\n              swap5\n              swap1\n              swap5\n              mstore\n              pop\n                /* \"#utility.yul\":837:839   */\n              0x40\n                /* \"#utility.yul\":822:840   */\n              add\n                /* \"#utility.yul\":815:849   */\n              mstore\n                /* \"#utility.yul\":710:763   */\n              swap2\n                /* \"#utility.yul\":493:855   */\n              swap1\n              pop\n              jump\t// out\n                /* \"#utility.yul\":860:1080   */\n            tag_40:\n                /* \"#utility.yul\":1009:1011   */\n              0x20\n                /* \"#utility.yul\":998:1007   */\n              dup2\n                /* \"#utility.yul\":991:1012   */\n              mstore\n                /* \"#utility.yul\":972:976   */\n              0x00\n                /* \"#utility.yul\":1029:1074   */\n              tag_310\n                /* \"#utility.yul\":1070:1072   */\n              0x20\n                /* \"#utility.yul\":1059:1068   */\n              dup4\n                /* \"#utility.yul\":1055:1073   */\n              add\n                /* \"#utility.yul\":1047:1053   */\n              dup5\n                /* \"#utility.yul\":1029:1074   */\n              tag_296\n              jump\t// in\n            tag_310:\n                /* \"#utility.yul\":1021:1074   */\n              swap4\n                /* \"#utility.yul\":860:1080   */\n              swap3\n              pop\n              pop\n              pop\n              jump\t// out\n                /* \"#utility.yul\":1085:1212   */\n            tag_135:\n                /* \"#utility.yul\":1146:1156   */\n              0x4e487b71\n                /* \"#utility.yul\":1141:1144   */\n              0xe0\n                /* \"#utility.yul\":1137:1157   */\n              shl\n                /* \"#utility.yul\":1134:1135   */\n              0x00\n                /* \"#utility.yul\":1127:1158   */\n              mstore\n                /* \"#utility.yul\":1177:1181   */\n              0x21\n                /* \"#utility.yul\":1174:1175   */\n              0x04\n                /* \"#utility.yul\":1167:1182   */\n              mstore\n                /* \"#utility.yul\":1201:1205   */\n              0x24\n                /* \"#utility.yul\":1198:1199   */\n              0x00\n                /* \"#utility.yul\":1191:1206   */\n              revert\n                /* \"#utility.yul\":1217:1561   */\n            tag_45:\n                /* \"#utility.yul\":1365:1367   */\n              0x20\n                /* \"#utility.yul\":1350:1368   */\n              dup2\n              add\n                /* \"#utility.yul\":1398:1399   */\n              0x03\n                /* \"#utility.yul\":1387:1400   */\n              dup4\n              lt\n                /* \"#utility.yul\":1377:1521   */\n              tag_313\n              jumpi\n                /* \"#utility.yul\":1443:1453   */\n              0x4e487b71\n                /* \"#utility.yul\":1438:1441   */\n              0xe0\n                /* \"#utility.yul\":1434:1454   */\n              shl\n                /* \"#utility.yul\":1431:1432   */\n              0x00\n                /* \"#utility.yul\":1424:1455   */\n              mstore\n                /* \"#utility.yul\":1478:1482   */\n              0x21\n                /* \"#utility.yul\":1475:1476   */\n              0x04\n                /* \"#utility.yul\":1468:1483   */\n              mstore\n                /* \"#utility.yul\":1506:1510   */\n              0x24\n                /* \"#utility.yul\":1503:1504   */\n              0x00\n                /* \"#utility.yul\":1496:1511   */\n              revert\n                /* \"#utility.yul\":1377:1521   */\n            tag_313:\n                /* \"#utility.yul\":1530:1555   */\n              swap2\n              swap1\n              mstore\n                /* \"#utility.yul\":1217:1561   */\n              swap1\n              jump\t// out\n                /* \"#utility.yul\":1940:2136   */\n            tag_297:\n                /* \"#utility.yul\":2008:2028   */\n              dup1\n              calldataload\n              sub(shl(0xa0, 0x01), 0x01)\n                /* \"#utility.yul\":2057:2111   */\n              dup2\n              and\n                /* \"#utility.yul\":2047:2112   */\n              dup2\n              eq\n                /* \"#utility.yul\":2037:2130   */\n              tag_317\n              jumpi\n                /* \"#utility.yul\":2126:2127   */\n              0x00\n                /* \"#utility.yul\":2123:2124   */\n              dup1\n                /* \"#utility.yul\":2116:2128   */\n              revert\n                /* \"#utility.yul\":2037:2130   */\n            tag_317:\n                /* \"#utility.yul\":1940:2136   */\n              swap2\n              swap1\n              pop\n              jump\t// out\n                /* \"#utility.yul\":2141:2395   */\n            tag_85:\n                /* \"#utility.yul\":2209:2215   */\n              0x00\n                /* \"#utility.yul\":2217:2223   */\n              dup1\n                /* \"#utility.yul\":2270:2272   */\n              0x40\n                /* \"#utility.yul\":2258:2267   */\n              dup4\n                /* \"#utility.yul\":2249:2256   */\n              dup6\n                /* \"#utility.yul\":2245:2268   */\n              sub\n                /* \"#utility.yul\":2241:2273   */\n              slt\n                /* \"#utility.yul\":2238:2290   */\n              iszero\n              tag_319\n              jumpi\n                /* \"#utility.yul\":2286:2287   */\n              0x00\n                /* \"#utility.yul\":2283:2284   */\n              dup1\n                /* \"#utility.yul\":2276:2288   */\n              revert\n                /* \"#utility.yul\":2238:2290   */\n            tag_319:\n                /* \"#utility.yul\":2309:2338   */\n              tag_320\n                /* \"#utility.yul\":2328:2337   */\n              dup4\n                /* \"#utility.yul\":2309:2338   */\n              tag_297\n              jump\t// in\n            tag_320:\n                /* \"#utility.yul\":2299:2338   */\n              swap5\n                /* \"#utility.yul\":2385:2387   */\n              0x20\n                /* \"#utility.yul\":2370:2388   */\n              swap4\n              swap1\n              swap4\n              add\n                /* \"#utility.yul\":2357:2389   */\n              calldataload\n              swap4\n              pop\n              pop\n              pop\n                /* \"#utility.yul\":2141:2395   */\n              jump\t// out\n                /* \"#utility.yul\":2631:2758   */\n            tag_298:\n                /* \"#utility.yul\":2692:2702   */\n              0x4e487b71\n                /* \"#utility.yul\":2687:2690   */\n              0xe0\n                /* \"#utility.yul\":2683:2703   */\n              shl\n                /* \"#utility.yul\":2680:2681   */\n              0x00\n                /* \"#utility.yul\":2673:2704   */\n              mstore\n                /* \"#utility.yul\":2723:2727   */\n              0x41\n                /* \"#utility.yul\":2720:2721   */\n              0x04\n                /* \"#utility.yul\":2713:2728   */\n              mstore\n                /* \"#utility.yul\":2747:2751   */\n              0x24\n                /* \"#utility.yul\":2744:2745   */\n              0x00\n                /* \"#utility.yul\":2737:2752   */\n              revert\n                /* \"#utility.yul\":2763:3763   */\n            tag_96:\n                /* \"#utility.yul\":2841:2847   */\n              0x00\n                /* \"#utility.yul\":2849:2855   */\n              dup1\n                /* \"#utility.yul\":2902:2904   */\n              0x40\n                /* \"#utility.yul\":2890:2899   */\n              dup4\n                /* \"#utility.yul\":2881:2888   */\n              dup6\n                /* \"#utility.yul\":2877:2900   */\n              sub\n                /* \"#utility.yul\":2873:2905   */\n              slt\n                /* \"#utility.yul\":2870:2922   */\n              iszero\n              tag_324\n              jumpi\n                /* \"#utility.yul\":2918:2919   */\n              0x00\n                /* \"#utility.yul\":2915:2916   */\n              dup1\n                /* \"#utility.yul\":2908:2920   */\n              revert\n                /* \"#utility.yul\":2870:2922   */\n            tag_324:\n                /* \"#utility.yul\":2958:2967   */\n              dup3\n                /* \"#utility.yul\":2945:2968   */\n              calldataload\n                /* \"#utility.yul\":2987:3005   */\n              0xffffffffffffffff\n                /* \"#utility.yul\":3028:3030   */\n              dup1\n                /* \"#utility.yul\":3020:3026   */\n              dup3\n                /* \"#utility.yul\":3017:3031   */\n              gt\n                /* \"#utility.yul\":3014:3048   */\n              iszero\n              tag_325\n              jumpi\n                /* \"#utility.yul\":3044:3045   */\n              0x00\n                /* \"#utility.yul\":3041:3042   */\n              dup1\n                /* \"#utility.yul\":3034:3046   */\n              revert\n                /* \"#utility.yul\":3014:3048   */\n            tag_325:\n                /* \"#utility.yul\":3082:3088   */\n              dup2\n                /* \"#utility.yul\":3071:3080   */\n              dup6\n                /* \"#utility.yul\":3067:3089   */\n              add\n                /* \"#utility.yul\":3057:3089   */\n              swap2\n              pop\n                /* \"#utility.yul\":3127:3134   */\n              dup6\n                /* \"#utility.yul\":3120:3124   */\n              0x1f\n                /* \"#utility.yul\":3116:3118   */\n              dup4\n                /* \"#utility.yul\":3112:3125   */\n              add\n                /* \"#utility.yul\":3108:3135   */\n              slt\n                /* \"#utility.yul\":3098:3153   */\n              tag_326\n              jumpi\n                /* \"#utility.yul\":3149:3150   */\n              0x00\n                /* \"#utility.yul\":3146:3147   */\n              dup1\n                /* \"#utility.yul\":3139:3151   */\n              revert\n                /* \"#utility.yul\":3098:3153   */\n            tag_326:\n                /* \"#utility.yul\":3185:3187   */\n              dup2\n                /* \"#utility.yul\":3172:3188   */\n              calldataload\n                /* \"#utility.yul\":3207:3209   */\n              dup2\n                /* \"#utility.yul\":3203:3205   */\n              dup2\n                /* \"#utility.yul\":3200:3210   */\n              gt\n                /* \"#utility.yul\":3197:3233   */\n              iszero\n              tag_328\n              jumpi\n                /* \"#utility.yul\":3213:3231   */\n              tag_328\n              tag_298\n              jump\t// in\n            tag_328:\n                /* \"#utility.yul\":3288:3290   */\n              0x40\n                /* \"#utility.yul\":3282:3291   */\n              mload\n                /* \"#utility.yul\":3256:3258   */\n              0x1f\n                /* \"#utility.yul\":3342:3355   */\n              dup3\n              add\n              not(0x1f)\n                /* \"#utility.yul\":3338:3360   */\n              swap1\n              dup2\n              and\n                /* \"#utility.yul\":3362:3364   */\n              0x3f\n                /* \"#utility.yul\":3334:3365   */\n              add\n                /* \"#utility.yul\":3330:3370   */\n              and\n                /* \"#utility.yul\":3318:3371   */\n              dup2\n              add\n              swap1\n                /* \"#utility.yul\":3386:3404   */\n              dup4\n              dup3\n              gt\n                /* \"#utility.yul\":3406:3428   */\n              dup2\n              dup4\n              lt\n                /* \"#utility.yul\":3383:3429   */\n              or\n                /* \"#utility.yul\":3380:3452   */\n              iszero\n              tag_330\n              jumpi\n                /* \"#utility.yul\":3432:3450   */\n              tag_330\n              tag_298\n              jump\t// in\n            tag_330:\n                /* \"#utility.yul\":3472:3482   */\n              dup2\n                /* \"#utility.yul\":3468:3470   */\n              0x40\n                /* \"#utility.yul\":3461:3483   */\n              mstore\n                /* \"#utility.yul\":3507:3509   */\n              dup3\n                /* \"#utility.yul\":3499:3505   */\n              dup2\n                /* \"#utility.yul\":3492:3510   */\n              mstore\n                /* \"#utility.yul\":3549:3556   */\n              dup9\n                /* \"#utility.yul\":3542:3546   */\n              0x20\n                /* \"#utility.yul\":3537:3539   */\n              dup5\n                /* \"#utility.yul\":3533:3535   */\n              dup8\n                /* \"#utility.yul\":3529:3540   */\n              add\n                /* \"#utility.yul\":3525:3547   */\n              add\n                /* \"#utility.yul\":3522:3557   */\n              gt\n                /* \"#utility.yul\":3519:3574   */\n              iszero\n              tag_331\n              jumpi\n                /* \"#utility.yul\":3570:3571   */\n              0x00\n                /* \"#utility.yul\":3567:3568   */\n              dup1\n                /* \"#utility.yul\":3560:3572   */\n              revert\n                /* \"#utility.yul\":3519:3574   */\n            tag_331:\n                /* \"#utility.yul\":3630:3632   */\n              dup3\n                /* \"#utility.yul\":3623:3627   */\n              0x20\n                /* \"#utility.yul\":3619:3621   */\n              dup7\n                /* \"#utility.yul\":3615:3628   */\n              add\n                /* \"#utility.yul\":3608:3612   */\n              0x20\n                /* \"#utility.yul\":3600:3606   */\n              dup4\n                /* \"#utility.yul\":3596:3613   */\n              add\n                /* \"#utility.yul\":3583:3633   */\n              calldatacopy\n                /* \"#utility.yul\":3677:3678   */\n              0x00\n                /* \"#utility.yul\":3670:3674   */\n              0x20\n                /* \"#utility.yul\":3653:3668   */\n              swap4\n              dup3\n              add\n                /* \"#utility.yul\":3649:3675   */\n              dup5\n              add\n                /* \"#utility.yul\":3642:3679   */\n              mstore\n                /* \"#utility.yul\":3653:3668   */\n              swap9\n                /* \"#utility.yul\":3736:3756   */\n              swap7\n              swap1\n              swap2\n              add\n                /* \"#utility.yul\":3723:3757   */\n              calldataload\n              swap7\n              pop\n              pop\n              pop\n              pop\n              pop\n              pop\n                /* \"#utility.yul\":2763:3763   */\n              jump\t// out\n                /* \"#utility.yul\":3768:3954   */\n            tag_101:\n                /* \"#utility.yul\":3827:3833   */\n              0x00\n                /* \"#utility.yul\":3880:3882   */\n              0x20\n                /* \"#utility.yul\":3868:3877   */\n              dup3\n                /* \"#utility.yul\":3859:3866   */\n              dup5\n                /* \"#utility.yul\":3855:3878   */\n              sub\n                /* \"#utility.yul\":3851:3883   */\n              slt\n                /* \"#utility.yul\":3848:3900   */\n              iszero\n              tag_333\n              jumpi\n                /* \"#utility.yul\":3896:3897   */\n              0x00\n                /* \"#utility.yul\":3893:3894   */\n              dup1\n                /* \"#utility.yul\":3886:3898   */\n              revert\n                /* \"#utility.yul\":3848:3900   */\n            tag_333:\n                /* \"#utility.yul\":3919:3948   */\n              tag_310\n                /* \"#utility.yul\":3938:3947   */\n              dup3\n                /* \"#utility.yul\":3919:3948   */\n              tag_297\n              jump\t// in\n                /* \"#utility.yul\":3959:5092   */\n            tag_118:\n                /* \"#utility.yul\":4141:4145   */\n              0x00\n                /* \"#utility.yul\":4170:4172   */\n              0x20\n                /* \"#utility.yul\":4210:4212   */\n              dup1\n                /* \"#utility.yul\":4199:4208   */\n              dup4\n                /* \"#utility.yul\":4195:4213   */\n              add\n                /* \"#utility.yul\":4240:4242   */\n              dup2\n                /* \"#utility.yul\":4229:4238   */\n              dup5\n                /* \"#utility.yul\":4222:4243   */\n              mstore\n                /* \"#utility.yul\":4263:4269   */\n              dup1\n                /* \"#utility.yul\":4298:4304   */\n              dup6\n                /* \"#utility.yul\":4292:4305   */\n              mload\n                /* \"#utility.yul\":4329:4335   */\n              dup1\n                /* \"#utility.yul\":4321:4327   */\n              dup4\n                /* \"#utility.yul\":4314:4336   */\n              mstore\n                /* \"#utility.yul\":4355:4357   */\n              0x40\n                /* \"#utility.yul\":4345:4357   */\n              swap3\n              pop\n                /* \"#utility.yul\":4388:4390   */\n              0x40\n                /* \"#utility.yul\":4377:4386   */\n              dup7\n                /* \"#utility.yul\":4373:4391   */\n              add\n                /* \"#utility.yul\":4366:4391   */\n              swap2\n              pop\n                /* \"#utility.yul\":4450:4452   */\n              0x40\n                /* \"#utility.yul\":4440:4446   */\n              dup2\n                /* \"#utility.yul\":4437:4438   */\n              0x05\n                /* \"#utility.yul\":4433:4447   */\n              shl\n                /* \"#utility.yul\":4422:4431   */\n              dup8\n                /* \"#utility.yul\":4418:4448   */\n              add\n                /* \"#utility.yul\":4414:4453   */\n              add\n                /* \"#utility.yul\":4488:4490   */\n              dup5\n                /* \"#utility.yul\":4480:4486   */\n              dup9\n                /* \"#utility.yul\":4476:4491   */\n              add\n                /* \"#utility.yul\":4509:4510   */\n              0x00\n                /* \"#utility.yul\":4519:5063   */\n            tag_336:\n                /* \"#utility.yul\":4533:4539   */\n              dup4\n                /* \"#utility.yul\":4530:4531   */\n              dup2\n                /* \"#utility.yul\":4527:4540   */\n              lt\n                /* \"#utility.yul\":4519:5063   */\n              iszero\n              tag_338\n              jumpi\n                /* \"#utility.yul\":4626:4628   */\n              0x3f\n                /* \"#utility.yul\":4622:4629   */\n              not\n                /* \"#utility.yul\":4610:4619   */\n              dup10\n                /* \"#utility.yul\":4602:4608   */\n              dup5\n                /* \"#utility.yul\":4598:4620   */\n              sub\n                /* \"#utility.yul\":4594:4630   */\n              add\n                /* \"#utility.yul\":4589:4592   */\n              dup6\n                /* \"#utility.yul\":4582:4631   */\n              mstore\n                /* \"#utility.yul\":4660:4666   */\n              dup2\n                /* \"#utility.yul\":4654:4667   */\n              mload\n                /* \"#utility.yul\":4690:4694   */\n              0x60\n                /* \"#utility.yul\":4733:4735   */\n              dup2\n                /* \"#utility.yul\":4727:4736   */\n              mload\n                /* \"#utility.yul\":4764:4766   */\n              dup2\n                /* \"#utility.yul\":4756:4762   */\n              dup7\n                /* \"#utility.yul\":4749:4767   */\n              mstore\n                /* \"#utility.yul\":4794:4842   */\n              tag_339\n                /* \"#utility.yul\":4838:4840   */\n              dup3\n                /* \"#utility.yul\":4830:4836   */\n              dup8\n                /* \"#utility.yul\":4826:4841   */\n              add\n                /* \"#utility.yul\":4812:4824   */\n              dup3\n                /* \"#utility.yul\":4794:4842   */\n              tag_296\n              jump\t// in\n            tag_339:\n                /* \"#utility.yul\":4885:4896   */\n              dup4\n              dup12\n              add\n                /* \"#utility.yul\":4879:4897   */\n              mload\n                /* \"#utility.yul\":4862:4877   */\n              dup8\n              dup13\n              add\n                /* \"#utility.yul\":4855:4898   */\n              mstore\n                /* \"#utility.yul\":4941:4952   */\n              swap3\n              dup10\n              add\n                /* \"#utility.yul\":4935:4953   */\n              mload\n                /* \"#utility.yul\":4918:4933   */\n              swap6\n              dup10\n              add\n                /* \"#utility.yul\":4911:4954   */\n              swap6\n              swap1\n              swap6\n              mstore\n              pop\n                /* \"#utility.yul\":5041:5053   */\n              swap5\n              dup8\n              add\n              swap5\n                /* \"#utility.yul\":4780:4842   */\n              swap3\n              pop\n                /* \"#utility.yul\":5006:5021   */\n              swap1\n              dup7\n              add\n              swap1\n                /* \"#utility.yul\":4555:4556   */\n              0x01\n                /* \"#utility.yul\":4548:4557   */\n              add\n                /* \"#utility.yul\":4519:5063   */\n              jump(tag_336)\n            tag_338:\n              pop\n                /* \"#utility.yul\":5080:5086   */\n              swap1\n              swap9\n                /* \"#utility.yul\":3959:5092   */\n              swap8\n              pop\n              pop\n              pop\n              pop\n              pop\n              pop\n              pop\n              pop\n              jump\t// out\n                /* \"#utility.yul\":5097:5477   */\n            tag_122:\n                /* \"#utility.yul\":5176:5177   */\n              0x01\n                /* \"#utility.yul\":5172:5184   */\n              dup2\n              dup2\n              shr\n              swap1\n                /* \"#utility.yul\":5219:5231   */\n              dup3\n              and\n              dup1\n                /* \"#utility.yul\":5240:5301   */\n              tag_341\n              jumpi\n                /* \"#utility.yul\":5294:5298   */\n              0x7f\n                /* \"#utility.yul\":5286:5292   */\n              dup3\n                /* \"#utility.yul\":5282:5299   */\n              and\n                /* \"#utility.yul\":5272:5299   */\n              swap2\n              pop\n                /* \"#utility.yul\":5240:5301   */\n            tag_341:\n                /* \"#utility.yul\":5347:5349   */\n              0x20\n                /* \"#utility.yul\":5339:5345   */\n              dup3\n                /* \"#utility.yul\":5336:5350   */\n              lt\n                /* \"#utility.yul\":5316:5334   */\n              dup2\n                /* \"#utility.yul\":5313:5351   */\n              sub\n                /* \"#utility.yul\":5310:5471   */\n              tag_342\n              jumpi\n                /* \"#utility.yul\":5393:5403   */\n              0x4e487b71\n                /* \"#utility.yul\":5388:5391   */\n              0xe0\n                /* \"#utility.yul\":5384:5404   */\n              shl\n                /* \"#utility.yul\":5381:5382   */\n              0x00\n                /* \"#utility.yul\":5374:5405   */\n              mstore\n                /* \"#utility.yul\":5428:5432   */\n              0x22\n                /* \"#utility.yul\":5425:5426   */\n              0x04\n                /* \"#utility.yul\":5418:5433   */\n              mstore\n                /* \"#utility.yul\":5456:5460   */\n              0x24\n                /* \"#utility.yul\":5453:5454   */\n              0x00\n                /* \"#utility.yul\":5446:5461   */\n              revert\n                /* \"#utility.yul\":5310:5471   */\n            tag_342:\n              pop\n                /* \"#utility.yul\":5097:5477   */\n              swap2\n              swap1\n              pop\n              jump\t// out\n                /* \"#utility.yul\":6176:6303   */\n            tag_299:\n                /* \"#utility.yul\":6237:6247   */\n              0x4e487b71\n                /* \"#utility.yul\":6232:6235   */\n              0xe0\n                /* \"#utility.yul\":6228:6248   */\n              shl\n                /* \"#utility.yul\":6225:6226   */\n              0x00\n                /* \"#utility.yul\":6218:6249   */\n              mstore\n                /* \"#utility.yul\":6268:6272   */\n              0x11\n                /* \"#utility.yul\":6265:6266   */\n              0x04\n                /* \"#utility.yul\":6258:6273   */\n              mstore\n                /* \"#utility.yul\":6292:6296   */\n              0x24\n                /* \"#utility.yul\":6289:6290   */\n              0x00\n                /* \"#utility.yul\":6282:6297   */\n              revert\n                /* \"#utility.yul\":6308:6476   */\n            tag_156:\n                /* \"#utility.yul\":6381:6390   */\n              dup1\n              dup3\n              mul\n                /* \"#utility.yul\":6412:6421   */\n              dup2\n              iszero\n                /* \"#utility.yul\":6429:6444   */\n              dup3\n              dup3\n              div\n                /* \"#utility.yul\":6423:6445   */\n              dup5\n              eq\n                /* \"#utility.yul\":6409:6446   */\n              or\n                /* \"#utility.yul\":6399:6470   */\n              tag_221\n              jumpi\n                /* \"#utility.yul\":6450:6468   */\n              tag_221\n              tag_299\n              jump\t// in\n                /* \"#utility.yul\":6481:6606   */\n            tag_158:\n                /* \"#utility.yul\":6546:6555   */\n              dup1\n              dup3\n              add\n                /* \"#utility.yul\":6567:6577   */\n              dup1\n              dup3\n              gt\n                /* \"#utility.yul\":6564:6600   */\n              iszero\n              tag_221\n              jumpi\n                /* \"#utility.yul\":6580:6598   */\n              tag_221\n              tag_299\n              jump\t// in\n                /* \"#utility.yul\":8369:8497   */\n            tag_205:\n                /* \"#utility.yul\":8436:8445   */\n              dup2\n              dup2\n              sub\n                /* \"#utility.yul\":8457:8468   */\n              dup2\n              dup2\n              gt\n                /* \"#utility.yul\":8454:8491   */\n              iszero\n              tag_221\n              jumpi\n                /* \"#utility.yul\":8471:8489   */\n              tag_221\n              tag_299\n              jump\t// in\n                /* \"#utility.yul\":8502:8629   */\n            tag_208:\n                /* \"#utility.yul\":8563:8573   */\n              0x4e487b71\n                /* \"#utility.yul\":8558:8561   */\n              0xe0\n                /* \"#utility.yul\":8554:8574   */\n              shl\n                /* \"#utility.yul\":8551:8552   */\n              0x00\n                /* \"#utility.yul\":8544:8575   */\n              mstore\n                /* \"#utility.yul\":8594:8598   */\n              0x32\n                /* \"#utility.yul\":8591:8592   */\n              0x04\n                /* \"#utility.yul\":8584:8599   */\n              mstore\n                /* \"#utility.yul\":8618:8622   */\n              0x24\n                /* \"#utility.yul\":8615:8616   */\n              0x00\n                /* \"#utility.yul\":8608:8623   */\n              revert\n                /* \"#utility.yul\":8760:9278   */\n            tag_301:\n                /* \"#utility.yul\":8862:8864   */\n              0x1f\n                /* \"#utility.yul\":8857:8860   */\n              dup3\n                /* \"#utility.yul\":8854:8865   */\n              gt\n                /* \"#utility.yul\":8851:9272   */\n              iszero\n              tag_363\n              jumpi\n                /* \"#utility.yul\":8898:8903   */\n              dup1\n                /* \"#utility.yul\":8895:8896   */\n              0x00\n                /* \"#utility.yul\":8888:8904   */\n              mstore\n                /* \"#utility.yul\":8942:8946   */\n              0x20\n                /* \"#utility.yul\":8939:8940   */\n              0x00\n                /* \"#utility.yul\":8929:8947   */\n              keccak256\n                /* \"#utility.yul\":9012:9014   */\n              0x1f\n                /* \"#utility.yul\":9000:9010   */\n              dup5\n                /* \"#utility.yul\":8996:9015   */\n              add\n                /* \"#utility.yul\":8993:8994   */\n              0x05\n                /* \"#utility.yul\":8989:9016   */\n              shr\n                /* \"#utility.yul\":8983:8987   */\n              dup2\n                /* \"#utility.yul\":8979:9017   */\n              add\n                /* \"#utility.yul\":9048:9052   */\n              0x20\n                /* \"#utility.yul\":9036:9046   */\n              dup6\n                /* \"#utility.yul\":9033:9053   */\n              lt\n                /* \"#utility.yul\":9030:9077   */\n              iszero\n              tag_364\n              jumpi\n              pop\n                /* \"#utility.yul\":9071:9075   */\n              dup1\n                /* \"#utility.yul\":9030:9077   */\n            tag_364:\n                /* \"#utility.yul\":9126:9128   */\n              0x1f\n                /* \"#utility.yul\":9121:9124   */\n              dup5\n                /* \"#utility.yul\":9117:9129   */\n              add\n                /* \"#utility.yul\":9114:9115   */\n              0x05\n                /* \"#utility.yul\":9110:9130   */\n              shr\n                /* \"#utility.yul\":9104:9108   */\n              dup3\n                /* \"#utility.yul\":9100:9131   */\n              add\n                /* \"#utility.yul\":9090:9131   */\n              swap2\n              pop\n                /* \"#utility.yul\":9181:9262   */\n            tag_365:\n                /* \"#utility.yul\":9199:9201   */\n              dup2\n                /* \"#utility.yul\":9192:9197   */\n              dup2\n                /* \"#utility.yul\":9189:9202   */\n              lt\n                /* \"#utility.yul\":9181:9262   */\n              iszero\n              tag_367\n              jumpi\n                /* \"#utility.yul\":9258:9259   */\n              0x00\n                /* \"#utility.yul\":9244:9260   */\n              dup2\n              sstore\n                /* \"#utility.yul\":9225:9226   */\n              0x01\n                /* \"#utility.yul\":9214:9227   */\n              add\n                /* \"#utility.yul\":9181:9262   */\n              jump(tag_365)\n            tag_367:\n                /* \"#utility.yul\":9185:9188   */\n              pop\n              pop\n                /* \"#utility.yul\":8851:9272   */\n            tag_363:\n                /* \"#utility.yul\":8760:9278   */\n              pop\n              pop\n              pop\n              jump\t// out\n                /* \"#utility.yul\":9454:10877   */\n            tag_214:\n                /* \"#utility.yul\":9569:9572   */\n              dup2\n                /* \"#utility.yul\":9563:9567   */\n              dup2\n                /* \"#utility.yul\":9560:9573   */\n              sub\n                /* \"#utility.yul\":9557:9583   */\n              tag_370\n              jumpi\n                /* \"#utility.yul\":9576:9581   */\n              pop\n              pop\n                /* \"#utility.yul\":9454:10877   */\n              jump\t// out\n                /* \"#utility.yul\":9557:9583   */\n            tag_370:\n                /* \"#utility.yul\":9606:9643   */\n              tag_371\n                /* \"#utility.yul\":9638:9641   */\n              dup3\n                /* \"#utility.yul\":9632:9642   */\n              sload\n                /* \"#utility.yul\":9606:9643   */\n              tag_122\n              jump\t// in\n            tag_371:\n                /* \"#utility.yul\":9666:9684   */\n              0xffffffffffffffff\n                /* \"#utility.yul\":9658:9664   */\n              dup2\n                /* \"#utility.yul\":9655:9685   */\n              gt\n                /* \"#utility.yul\":9652:9708   */\n              iszero\n              tag_373\n              jumpi\n                /* \"#utility.yul\":9688:9706   */\n              tag_373\n              tag_298\n              jump\t// in\n            tag_373:\n                /* \"#utility.yul\":9717:9814   */\n              tag_374\n                /* \"#utility.yul\":9807:9813   */\n              dup2\n                /* \"#utility.yul\":9767:9805   */\n              tag_375\n                /* \"#utility.yul\":9799:9803   */\n              dup5\n                /* \"#utility.yul\":9793:9804   */\n              sload\n                /* \"#utility.yul\":9767:9805   */\n              tag_122\n              jump\t// in\n            tag_375:\n                /* \"#utility.yul\":9761:9765   */\n              dup5\n                /* \"#utility.yul\":9717:9814   */\n              tag_301\n              jump\t// in\n            tag_374:\n                /* \"#utility.yul\":9840:9841   */\n              0x00\n                /* \"#utility.yul\":9868:9870   */\n              0x1f\n                /* \"#utility.yul\":9860:9866   */\n              dup3\n                /* \"#utility.yul\":9857:9871   */\n              gt\n                /* \"#utility.yul\":9885:9886   */\n              0x01\n                /* \"#utility.yul\":9880:10620   */\n              dup2\n              eq\n              tag_377\n              jumpi\n                /* \"#utility.yul\":10664:10665   */\n              0x00\n                /* \"#utility.yul\":10681:10687   */\n              dup4\n                /* \"#utility.yul\":10678:10767   */\n              iszero\n              tag_378\n              jumpi\n              pop\n                /* \"#utility.yul\":10733:10752   */\n              dup5\n              dup3\n              add\n                /* \"#utility.yul\":10727:10753   */\n              sload\n                /* \"#utility.yul\":10678:10767   */\n            tag_378:\n              not(0x00)\n                /* \"#utility.yul\":9411:9412   */\n              0x03\n                /* \"#utility.yul\":9407:9418   */\n              dup6\n              swap1\n              shl\n                /* \"#utility.yul\":9403:9427   */\n              shr\n                /* \"#utility.yul\":9399:9428   */\n              not\n                /* \"#utility.yul\":9389:9429   */\n              and\n                /* \"#utility.yul\":9435:9436   */\n              0x01\n                /* \"#utility.yul\":9431:9442   */\n              dup5\n              swap1\n              shl\n                /* \"#utility.yul\":9386:9443   */\n              or\n                /* \"#utility.yul\":10780:10861   */\n              dup5\n              sstore\n                /* \"#utility.yul\":9850:10871   */\n              jump(tag_367)\n                /* \"#utility.yul\":9880:10620   */\n            tag_377:\n                /* \"#utility.yul\":8707:8708   */\n              0x00\n                /* \"#utility.yul\":8700:8714   */\n              dup6\n              dup2\n              mstore\n                /* \"#utility.yul\":8744:8748   */\n              0x20\n                /* \"#utility.yul\":8731:8749   */\n              dup1\n              dup3\n              keccak256\n                /* \"#utility.yul\":8700:8714   */\n              dup7\n              dup4\n              mstore\n                /* \"#utility.yul\":8731:8749   */\n              swap1\n              dup3\n              keccak256\n              not(0x1f)\n                /* \"#utility.yul\":9916:9936   */\n              dup7\n              and\n              swap3\n                /* \"#utility.yul\":10094:10345   */\n            tag_382:\n                /* \"#utility.yul\":10108:10115   */\n              dup4\n                /* \"#utility.yul\":10105:10106   */\n              dup2\n                /* \"#utility.yul\":10102:10116   */\n              lt\n                /* \"#utility.yul\":10094:10345   */\n              iszero\n              tag_384\n              jumpi\n                /* \"#utility.yul\":10190:10211   */\n              dup3\n              dup7\n              add\n                /* \"#utility.yul\":10184:10212   */\n              sload\n                /* \"#utility.yul\":10169:10213   */\n              dup3\n              sstore\n                /* \"#utility.yul\":10240:10241   */\n              0x01\n                /* \"#utility.yul\":10313:10331   */\n              swap6\n              dup7\n              add\n              swap6\n                /* \"#utility.yul\":10268:10283   */\n              swap1\n              swap2\n              add\n              swap1\n                /* \"#utility.yul\":10131:10135   */\n              0x20\n                /* \"#utility.yul\":10124:10136   */\n              add\n                /* \"#utility.yul\":10094:10345   */\n              jump(tag_382)\n            tag_384:\n                /* \"#utility.yul\":10098:10101   */\n              pop\n                /* \"#utility.yul\":10373:10379   */\n              dup6\n                /* \"#utility.yul\":10364:10371   */\n              dup4\n                /* \"#utility.yul\":10361:10380   */\n              lt\n                /* \"#utility.yul\":10358:10561   */\n              iszero\n              tag_385\n              jumpi\n                /* \"#utility.yul\":10434:10455   */\n              dup2\n              dup6\n              add\n                /* \"#utility.yul\":10428:10456   */\n              sload\n              not(0x00)\n                /* \"#utility.yul\":10519:10520   */\n              0x03\n                /* \"#utility.yul\":10515:10529   */\n              dup9\n              swap1\n              shl\n                /* \"#utility.yul\":10531:10534   */\n              0xf8\n                /* \"#utility.yul\":10511:10535   */\n              and\n                /* \"#utility.yul\":10507:10544   */\n              shr\n                /* \"#utility.yul\":10503:10545   */\n              not\n                /* \"#utility.yul\":10488:10546   */\n              and\n                /* \"#utility.yul\":10473:10547   */\n              dup2\n              sstore\n                /* \"#utility.yul\":10358:10561   */\n            tag_385:\n              pop\n              pop\n              pop\n              pop\n              pop\n                /* \"#utility.yul\":10607:10608   */\n              0x01\n                /* \"#utility.yul\":10591:10605   */\n              swap1\n              dup2\n              shl\n                /* \"#utility.yul\":10587:10609   */\n              add\n                /* \"#utility.yul\":10574:10610   */\n              swap1\n              sstore\n              pop\n                /* \"#utility.yul\":9454:10877   */\n              jump\t// out\n                /* \"#utility.yul\":10882:11009   */\n            tag_217:\n                /* \"#utility.yul\":10943:10953   */\n              0x4e487b71\n                /* \"#utility.yul\":10938:10941   */\n              0xe0\n                /* \"#utility.yul\":10934:10954   */\n              shl\n                /* \"#utility.yul\":10931:10932   */\n              0x00\n                /* \"#utility.yul\":10924:10955   */\n              mstore\n                /* \"#utility.yul\":10974:10978   */\n              0x31\n                /* \"#utility.yul\":10971:10972   */\n              0x04\n                /* \"#utility.yul\":10964:10979   */\n              mstore\n                /* \"#utility.yul\":10998:11002   */\n              0x24\n                /* \"#utility.yul\":10995:10996   */\n              0x00\n                /* \"#utility.yul\":10988:11003   */\n              revert\n                /* \"#utility.yul\":11373:12718   */\n            tag_231:\n                /* \"#utility.yul\":11499:11502   */\n              dup2\n                /* \"#utility.yul\":11493:11503   */\n              mload\n                /* \"#utility.yul\":11526:11544   */\n              0xffffffffffffffff\n                /* \"#utility.yul\":11518:11524   */\n              dup2\n                /* \"#utility.yul\":11515:11545   */\n              gt\n                /* \"#utility.yul\":11512:11568   */\n              iszero\n              tag_390\n              jumpi\n                /* \"#utility.yul\":11548:11566   */\n              tag_390\n              tag_298\n              jump\t// in\n            tag_390:\n                /* \"#utility.yul\":11577:11674   */\n              tag_391\n                /* \"#utility.yul\":11667:11673   */\n              dup2\n                /* \"#utility.yul\":11627:11665   */\n              tag_375\n                /* \"#utility.yul\":11659:11663   */\n              dup5\n                /* \"#utility.yul\":11653:11664   */\n              sload\n                /* \"#utility.yul\":11627:11665   */\n              tag_122\n              jump\t// in\n                /* \"#utility.yul\":11577:11674   */\n            tag_391:\n                /* \"#utility.yul\":11729:11733   */\n              0x20\n              dup1\n                /* \"#utility.yul\":11786:11788   */\n              0x1f\n                /* \"#utility.yul\":11775:11789   */\n              dup4\n              gt\n                /* \"#utility.yul\":11803:11804   */\n              0x01\n                /* \"#utility.yul\":11798:12461   */\n              dup2\n              eq\n              tag_394\n              jumpi\n                /* \"#utility.yul\":12505:12506   */\n              0x00\n                /* \"#utility.yul\":12522:12528   */\n              dup5\n                /* \"#utility.yul\":12519:12608   */\n              iszero\n              tag_395\n              jumpi\n              pop\n                /* \"#utility.yul\":12574:12593   */\n              dup6\n              dup4\n              add\n                /* \"#utility.yul\":12568:12594   */\n              mload\n                /* \"#utility.yul\":12519:12608   */\n            tag_395:\n              not(0x00)\n                /* \"#utility.yul\":9411:9412   */\n              0x03\n                /* \"#utility.yul\":9407:9418   */\n              dup7\n              swap1\n              shl\n                /* \"#utility.yul\":9403:9427   */\n              shr\n                /* \"#utility.yul\":9399:9428   */\n              not\n                /* \"#utility.yul\":9389:9429   */\n              and\n                /* \"#utility.yul\":9435:9436   */\n              0x01\n                /* \"#utility.yul\":9431:9442   */\n              dup6\n              swap1\n              shl\n                /* \"#utility.yul\":9386:9443   */\n              or\n                /* \"#utility.yul\":12621:12702   */\n              dup6\n              sstore\n                /* \"#utility.yul\":11768:12712   */\n              jump(tag_393)\n                /* \"#utility.yul\":11798:12461   */\n            tag_394:\n                /* \"#utility.yul\":8707:8708   */\n              0x00\n                /* \"#utility.yul\":8700:8714   */\n              dup6\n              dup2\n              mstore\n                /* \"#utility.yul\":8744:8748   */\n              0x20\n                /* \"#utility.yul\":8731:8749   */\n              dup2\n              keccak256\n              not(0x1f)\n                /* \"#utility.yul\":11834:11854   */\n              dup7\n              and\n              swap2\n                /* \"#utility.yul\":11952:12188   */\n            tag_398:\n                /* \"#utility.yul\":11966:11973   */\n              dup3\n                /* \"#utility.yul\":11963:11964   */\n              dup2\n                /* \"#utility.yul\":11960:11974   */\n              lt\n                /* \"#utility.yul\":11952:12188   */\n              iszero\n              tag_400\n              jumpi\n                /* \"#utility.yul\":12055:12074   */\n              dup9\n              dup7\n              add\n                /* \"#utility.yul\":12049:12075   */\n              mload\n                /* \"#utility.yul\":12034:12076   */\n              dup3\n              sstore\n                /* \"#utility.yul\":12147:12174   */\n              swap5\n              dup5\n              add\n              swap5\n                /* \"#utility.yul\":12115:12116   */\n              0x01\n                /* \"#utility.yul\":12103:12117   */\n              swap1\n              swap2\n              add\n              swap1\n                /* \"#utility.yul\":11982:12001   */\n              dup5\n              add\n                /* \"#utility.yul\":11952:12188   */\n              jump(tag_398)\n            tag_400:\n                /* \"#utility.yul\":11956:11959   */\n              pop\n                /* \"#utility.yul\":12216:12222   */\n              dup6\n                /* \"#utility.yul\":12207:12214   */\n              dup3\n                /* \"#utility.yul\":12204:12223   */\n              lt\n                /* \"#utility.yul\":12201:12402   */\n              iszero\n              tag_401\n              jumpi\n                /* \"#utility.yul\":12277:12296   */\n              dup8\n              dup6\n              add\n                /* \"#utility.yul\":12271:12297   */\n              mload\n              not(0x00)\n                /* \"#utility.yul\":12360:12361   */\n              0x03\n                /* \"#utility.yul\":12356:12370   */\n              dup9\n              swap1\n              shl\n                /* \"#utility.yul\":12372:12375   */\n              0xf8\n                /* \"#utility.yul\":12352:12376   */\n              and\n                /* \"#utility.yul\":12348:12385   */\n              shr\n                /* \"#utility.yul\":12344:12386   */\n              not\n                /* \"#utility.yul\":12329:12387   */\n              and\n                /* \"#utility.yul\":12314:12388   */\n              dup2\n              sstore\n                /* \"#utility.yul\":12201:12402   */\n            tag_401:\n              pop\n              pop\n                /* \"#utility.yul\":12448:12449   */\n              0x01\n                /* \"#utility.yul\":12439:12445   */\n              dup5\n                /* \"#utility.yul\":12436:12437   */\n              0x01\n                /* \"#utility.yul\":12432:12446   */\n              shl\n                /* \"#utility.yul\":12428:12450   */\n              add\n                /* \"#utility.yul\":12422:12426   */\n              dup6\n                /* \"#utility.yul\":12415:12451   */\n              sstore\n                /* \"#utility.yul\":11768:12712   */\n            tag_393:\n              pop\n              pop\n              pop\n              pop\n                /* \"#utility.yul\":11373:12718   */\n              pop\n              pop\n              jump\t// out\n                /* \"#utility.yul\":13759:13894   */\n            tag_261:\n                /* \"#utility.yul\":13798:13801   */\n              0x00\n                /* \"#utility.yul\":13819:13836   */\n              0x01\n              dup3\n              add\n                /* \"#utility.yul\":13816:13859   */\n              tag_407\n              jumpi\n                /* \"#utility.yul\":13839:13857   */\n              tag_407\n              tag_299\n              jump\t// in\n            tag_407:\n              pop\n                /* \"#utility.yul\":13886:13887   */\n              0x01\n                /* \"#utility.yul\":13875:13888   */\n              add\n              swap1\n                /* \"#utility.yul\":13759:13894   */\n              jump\t// out\n\n            auxdata: 0xa264697066735822122086e42ff753e44d357a9bafb85daff801390bcee9363a4db506c888acf757262264736f6c63430008190033\n        }\n    }\n\n    auxdata: 0xa2646970667358221220b6ce59ee0da60d59e44143bc72c18b8742b10b7fb2a466119e03204ea6eae1d364736f6c63430008190033\n}\n",
    "bytecode": {
      "linkReferences": {},
      "object": "6080604052348015600e575f80fd5b505f80546001600160a01b031916331790556124128061002d5f395ff3fe608060405234801561000f575f80fd5b5060043610610085575f3560e01c80638da5cb5b116100585780638da5cb5b14610100578063a1e5084c1461012a578063a318f2691461013d578063c4ae316814610152575f80fd5b8063141961bc1461008957806319ac74bd146100b55780635c975abb146100c857806386cdf604146100eb575b5f80fd5b61009c61009736600461078a565b61015a565b6040516100ac94939291906107cf565b60405180910390f35b61009c6100c3366004610826565b610228565b5f546100db90600160a01b900460ff1681565b60405190151581526020016100ac565b6100f3610279565b6040516100ac919061084e565b5f54610112906001600160a01b031681565b6040516001600160a01b0390911681526020016100ac565b6100f36101383660046108e7565b610393565b61015061014b3660046109a4565b6104c3565b005b6101506106e9565b60018181548110610169575f80fd5b5f9182526020909120600490910201805460018201546002830180546001600160a01b0393841695509290911692916101a190610a13565b80601f01602080910402602001604051908101604052809291908181526020018280546101cd90610a13565b80156102185780601f106101ef57610100808354040283529160200191610218565b820191905f5260205f20905b8154815290600101906020018083116101fb57829003601f168201915b5050505050908060030154905084565b6002602052815f5260405f208181548110610241575f80fd5b5f9182526020909120600490910201805460018201546002830180546001600160a01b0393841696509190921693506101a190610a13565b60606001805480602002602001604051908101604052809291908181526020015f905b8282101561038a575f848152602090819020604080516080810182526004860290920180546001600160a01b03908116845260018201541693830193909352600283018054929392918401916102f190610a13565b80601f016020809104026020016040519081016040528092919081815260200182805461031d90610a13565b80156103685780601f1061033f57610100808354040283529160200191610368565b820191905f5260205f20905b81548152906001019060200180831161034b57829003601f168201915b505050505081526020016003820154815250508152602001906001019061029c565b50505050905090565b6001600160a01b0381165f908152600260209081526040808320805482518185028101850190935280835260609492939192909184015b828210156104b8575f848152602090819020604080516080810182526004860290920180546001600160a01b039081168452600182015416938301939093526002830180549293929184019161041f90610a13565b80601f016020809104026020016040519081016040528092919081815260200182805461044b90610a13565b80156104965780601f1061046d57610100808354040283529160200191610496565b820191905f5260205f20905b81548152906001019060200180831161047957829003601f168201915b50505050508152602001600382015481525050815260200190600101906103ca565b505050509050919050565b5f54600160a01b900460ff16156105215760405162461bcd60e51b815260206004820152601160248201527f466163746f72792069732070617573656400000000000000000000000000000060448201526064015b60405180910390fd5b5f33858585856040516105339061077d565b610541959493929190610a4b565b604051809103905ff08015801561055a573d5f803e3d5ffd5b50604080516080810182526001600160a01b03808416825233602083019081529282018981524260608401526001805480820182555f91909152835160049091027fb10e2d527612073b26eecdfd717e6a320cf44b4afac2b0732d9fcbe2b7fa0cf68101805492851673ffffffffffffffffffffffffffffffffffffffff1993841617815595517fb10e2d527612073b26eecdfd717e6a320cf44b4afac2b0732d9fcbe2b7fa0cf782018054919095169216919091179092555193945084939192839290917fb10e2d527612073b26eecdfd717e6a320cf44b4afac2b0732d9fcbe2b7fa0cf8019061064c9082610adf565b5060609190910151600390910155335f908152600260208181526040808420805460018082018355918652948390208651600490960201805473ffffffffffffffffffffffffffffffffffffffff199081166001600160a01b0397881617825593870151918101805490941691909516179091558301518392918201906106d39082610adf565b5060608201518160030155505050505050505050565b5f546001600160a01b031633146107425760405162461bcd60e51b815260206004820152600a60248201527f4e6f74206f776e65722e000000000000000000000000000000000000000000006044820152606401610518565b5f80547fffffffffffffffffffffff00ffffffffffffffffffffffffffffffffffffffff8116600160a01b9182900460ff1615909102179055565b61183d80610ba083390190565b5f6020828403121561079a575f80fd5b5035919050565b5f81518084528060208401602086015e5f602082860101526020601f19601f83011685010191505092915050565b5f6001600160a01b038087168352808616602084015250608060408301526107fa60808301856107a1565b905082606083015295945050505050565b80356001600160a01b0381168114610821575f80fd5b919050565b5f8060408385031215610837575f80fd5b6108408361080b565b946020939093013593505050565b5f60208083018184528085518083526040925060408601915060408160051b8701018488015f5b838110156108d957603f19898403018552815160806001600160a01b03808351168652808a840151168a870152508782015181898701526108b8828701826107a1565b60609384015196909301959095525094870194925090860190600101610875565b509098975050505050505050565b5f602082840312156108f7575f80fd5b6109008261080b565b9392505050565b634e487b7160e01b5f52604160045260245ffd5b5f82601f83011261092a575f80fd5b813567ffffffffffffffff8082111561094557610945610907565b604051601f8301601f19908116603f0116810190828211818310171561096d5761096d610907565b81604052838152866020858801011115610985575f80fd5b836020870160208301375f602085830101528094505050505092915050565b5f805f80608085870312156109b7575f80fd5b843567ffffffffffffffff808211156109ce575f80fd5b6109da8883890161091b565b955060208701359150808211156109ef575f80fd5b506109fc8782880161091b565b949794965050505060408301359260600135919050565b600181811c90821680610a2757607f821691505b602082108103610a4557634e487b7160e01b5f52602260045260245ffd5b50919050565b6001600160a01b038616815260a060208201525f610a6c60a08301876107a1565b8281036040840152610a7e81876107a1565b60608401959095525050608001529392505050565b601f821115610ada57805f5260205f20601f840160051c81016020851015610ab85750805b601f840160051c820191505b81811015610ad7575f8155600101610ac4565b50505b505050565b815167ffffffffffffffff811115610af957610af9610907565b610b0d81610b078454610a13565b84610a93565b602080601f831160018114610b40575f8415610b295750858301515b5f19600386901b1c1916600185901b178555610b97565b5f85815260208120601f198616915b82811015610b6e57888601518255948401946001909101908401610b4f565b5085821015610b8b57878501515f19600388901b60f8161c191681555b505060018460011b0185555b50505050505056fe608060405234801561000f575f80fd5b5060405161183d38038061183d83398101604081905261002e9161012e565b5f6100398582610240565b5060016100468482610240565b5060028290556100598162015180610313565b6100639042610330565b600355505060048054600161ff0160a01b0319166001600160a01b039490941693909317909255506103439050565b634e487b7160e01b5f52604160045260245ffd5b5f82601f8301126100b5575f80fd5b81516001600160401b03808211156100cf576100cf610092565b604051601f8301601f19908116603f011681019082821181831017156100f7576100f7610092565b8160405283815286602085880101111561010f575f80fd5b8360208701602083015e5f602085830101528094505050505092915050565b5f805f805f60a08688031215610142575f80fd5b85516001600160a01b0381168114610158575f80fd5b60208701519095506001600160401b0380821115610174575f80fd5b61018089838a016100a6565b95506040880151915080821115610195575f80fd5b506101a2888289016100a6565b606088015160809098015196999598509695949350505050565b600181811c908216806101d057607f821691505b6020821081036101ee57634e487b7160e01b5f52602260045260245ffd5b50919050565b601f82111561023b57805f5260205f20601f840160051c810160208510156102195750805b601f840160051c820191505b81811015610238575f8155600101610225565b50505b505050565b81516001600160401b0381111561025957610259610092565b61026d8161026784546101bc565b846101f4565b602080601f8311600181146102a0575f84156102895750858301515b5f19600386901b1c1916600185901b1785556102f7565b5f85815260208120601f198616915b828110156102ce578886015182559484019460019091019084016102af565b50858210156102eb57878501515f19600388901b60f8161c191681555b505060018460011b0185555b505050505050565b634e487b7160e01b5f52601160045260245ffd5b808202811582820484141761032a5761032a6102ff565b92915050565b8082018082111561032a5761032a6102ff565b6114ed806103505f395ff3fe608060405260043610610157575f3560e01c80637284e416116100bb578063b85dfb8011610071578063c4ae316811610057578063c4ae31681461038a578063ca1d209d1461039e578063de170570146103b1575f80fd5b8063b85dfb801461033f578063c19d93fb1461036a575f80fd5b80637adba527116100a15780637adba527146102ca5780638da5cb5b146102e95780638ece7b9114610320575f80fd5b80637284e416146102975780637497211b146102ab575f80fd5b80633ccfd60b11610110578063590e1ae3116100f6578063590e1ae3146102415780635c975abb146102555780636f9fb98a14610285575f80fd5b80633ccfd60b14610218578063401938831461022c575f80fd5b8063105505151161014057806310550515146101b357806329dcb0cf146101d4578063389b7533146101f7575f80fd5b8063039af9eb1461015b57806306fdde0314610192575b5f80fd5b348015610166575f80fd5b5061017a610175366004610fb7565b6103d2565b60405161018993929190610ffc565b60405180910390f35b34801561019d575f80fd5b506101a661048d565b6040516101899190611020565b3480156101be575f80fd5b506101c7610518565b604051610189919061104d565b3480156101df575f80fd5b506101e960035481565b604051908152602001610189565b348015610202575f80fd5b50610216610211366004610fb7565b610572565b005b348015610223575f80fd5b50610216610652565b348015610237575f80fd5b506101e960025481565b34801561024c575f80fd5b5061021661079a565b348015610260575f80fd5b5060045461027590600160a01b900460ff1681565b6040519015158152602001610189565b348015610290575f80fd5b50476101e9565b3480156102a2575f80fd5b506101a66108a3565b3480156102b6575f80fd5b506102166102c5366004610fb7565b6108b0565b3480156102d5575f80fd5b506102756102e436600461108e565b6109fb565b3480156102f4575f80fd5b50600454610308906001600160a01b031681565b6040516001600160a01b039091168152602001610189565b34801561032b575f80fd5b5061021661033a3660046110ca565b610a2b565b34801561034a575f80fd5b506101e9610359366004611179565b60066020525f908152604090205481565b348015610375575f80fd5b506004546101c790600160a81b900460ff1681565b348015610395575f80fd5b50610216610b3c565b6102166103ac366004610fb7565b610bc2565b3480156103bc575f80fd5b506103c5610dd7565b6040516101899190611192565b600581815481106103e1575f80fd5b905f5260205f2090600302015f91509050805f01805461040090611213565b80601f016020809104026020016040519081016040528092919081815260200182805461042c90611213565b80156104775780601f1061044e57610100808354040283529160200191610477565b820191905f5260205f20905b81548152906001019060200180831161045a57829003601f168201915b5050505050908060010154908060020154905083565b5f805461049990611213565b80601f01602080910402602001604051908101604052809291908181526020018280546104c590611213565b80156105105780601f106104e757610100808354040283529160200191610510565b820191905f5260205f20905b8154815290600101906020018083116104f357829003601f168201915b505050505081565b5f80600454600160a81b900460ff16600281111561053857610538611039565b148015610546575060035442115b156105615760025447101561055b5750600290565b50600190565b50600454600160a81b900460ff1690565b6004546001600160a01b031633146105c15760405162461bcd60e51b815260206004820152600d60248201526c2737ba103a34329037bbb732b960991b60448201526064015b60405180910390fd5b5f600454600160a81b900460ff1660028111156105e0576105e0611039565b1461062d5760405162461bcd60e51b815260206004820152601760248201527f43616d706169676e206973206e6f74206163746976652e00000000000000000060448201526064016105b8565b61063a816201518061125f565b60035f82825461064a9190611276565b909155505050565b6004546001600160a01b0316331461069c5760405162461bcd60e51b815260206004820152600d60248201526c2737ba103a34329037bbb732b960991b60448201526064016105b8565b6106a4610ed6565b6001600454600160a81b900460ff1660028111156106c4576106c4611039565b146107115760405162461bcd60e51b815260206004820152601860248201527f43616d706169676e206e6f74207375636365737366756c2e000000000000000060448201526064016105b8565b478061075f5760405162461bcd60e51b815260206004820152601660248201527f4e6f2062616c616e636520746f2077697468647261770000000000000000000060448201526064016105b8565b6004546040516001600160a01b039091169082156108fc029083905f818181858888f19350505050158015610796573d5f803e3d5ffd5b5050565b6107a2610ed6565b6002600454600160a81b900460ff1660028111156107c2576107c2611039565b1461080f5760405162461bcd60e51b815260206004820152601660248201527f526566756e6473206e6f7420617661696c61626c652e0000000000000000000060448201526064016105b8565b335f908152600660205260409020548061086b5760405162461bcd60e51b815260206004820152601960248201527f4e6f20636f6e747269627574696f6e20746f20726566756e640000000000000060448201526064016105b8565b335f818152600660205260408082208290555183156108fc0291849190818181858888f19350505050158015610796573d5f803e3d5ffd5b6001805461049990611213565b6004546001600160a01b031633146108fa5760405162461bcd60e51b815260206004820152600d60248201526c2737ba103a34329037bbb732b960991b60448201526064016105b8565b600554811061094b5760405162461bcd60e51b815260206004820152601460248201527f5469657220646f6573206e6f742065786973742e00000000000000000000000060448201526064016105b8565b6005805461095b90600190611289565b8154811061096b5761096b61129c565b905f5260205f2090600302016005828154811061098a5761098a61129c565b5f9182526020909120600390910201806109a483826112fc565b506001828101549082015560029182015491015560058054806109c9576109c96113d1565b5f828152602081205f19909201916003830201906109e78282610f6d565b505f60018201819055600290910155905550565b6001600160a01b0382165f90815260066020908152604080832084845260010190915290205460ff165b92915050565b6004546001600160a01b03163314610a755760405162461bcd60e51b815260206004820152600d60248201526c2737ba103a34329037bbb732b960991b60448201526064016105b8565b5f8111610ac45760405162461bcd60e51b815260206004820152601e60248201527f416d6f756e74206d7573742062652067726561746572207468616e20302e000060448201526064016105b8565b60408051606081018252838152602081018390525f918101829052600580546001810182559252805190916003027f036b6384b5eca791c62761152d0c79bb0604c104a5fb6f4eb0703f3154bb3db001908190610b2190826113e5565b50602082015181600101556040820151816002015550505050565b6004546001600160a01b03163314610b865760405162461bcd60e51b815260206004820152600d60248201526c2737ba103a34329037bbb732b960991b60448201526064016105b8565b600480547fffffffffffffffffffffff00ffffffffffffffffffffffffffffffffffffffff8116600160a01b9182900460ff1615909102179055565b5f600454600160a81b900460ff166002811115610be157610be1611039565b14610c2e5760405162461bcd60e51b815260206004820152601760248201527f43616d706169676e206973206e6f74206163746976652e00000000000000000060448201526064016105b8565b600454600160a01b900460ff1615610c885760405162461bcd60e51b815260206004820152601360248201527f436f6e7472616374206973207061757365642e0000000000000000000000000060448201526064016105b8565b6005548110610cd95760405162461bcd60e51b815260206004820152600d60248201527f496e76616c696420746965722e0000000000000000000000000000000000000060448201526064016105b8565b60058181548110610cec57610cec61129c565b905f5260205f209060030201600101543414610d4a5760405162461bcd60e51b815260206004820152601160248201527f496e636f727265637420616d6f756e742e00000000000000000000000000000060448201526064016105b8565b60058181548110610d5d57610d5d61129c565b5f91825260208220600260039092020101805491610d7a8361149f565b9091555050335f9081526006602052604081208054349290610d9d908490611276565b9091555050335f9081526006602090815260408083208484526001908101909252909120805460ff19169091179055610dd4610ed6565b50565b60606005805480602002602001604051908101604052809291908181526020015f905b82821015610ecd578382905f5260205f2090600302016040518060600160405290815f82018054610e2a90611213565b80601f0160208091040260200160405190810160405280929190818152602001828054610e5690611213565b8015610ea15780601f10610e7857610100808354040283529160200191610ea1565b820191905f5260205f20905b815481529060010190602001808311610e8457829003601f168201915b505050505081526020016001820154815260200160028201548152505081526020019060010190610dfa565b50505050905090565b5f600454600160a81b900460ff166002811115610ef557610ef5611039565b03610f6b576003544210610f5b57600254471015610f14576002610f17565b60015b600480547fffffffffffffffffffff00ffffffffffffffffffffffffffffffffffffffffff16600160a81b836002811115610f5457610f54611039565b0217905550565b600254471015610f14575f610f17565b565b508054610f7990611213565b5f825580601f10610f88575050565b601f0160209004905f5260205f2090810190610dd491905b80821115610fb3575f8155600101610fa0565b5090565b5f60208284031215610fc7575f80fd5b5035919050565b5f81518084528060208401602086015e5f602082860101526020601f19601f83011685010191505092915050565b606081525f61100e6060830186610fce565b60208301949094525060400152919050565b602081525f6110326020830184610fce565b9392505050565b634e487b7160e01b5f52602160045260245ffd5b602081016003831061106d57634e487b7160e01b5f52602160045260245ffd5b91905290565b80356001600160a01b0381168114611089575f80fd5b919050565b5f806040838503121561109f575f80fd5b6110a883611073565b946020939093013593505050565b634e487b7160e01b5f52604160045260245ffd5b5f80604083850312156110db575f80fd5b823567ffffffffffffffff808211156110f2575f80fd5b818501915085601f830112611105575f80fd5b813581811115611117576111176110b6565b604051601f8201601f19908116603f0116810190838211818310171561113f5761113f6110b6565b81604052828152886020848701011115611157575f80fd5b826020860160208301375f602093820184015298969091013596505050505050565b5f60208284031215611189575f80fd5b61103282611073565b5f60208083018184528085518083526040925060408601915060408160051b8701018488015f5b8381101561120557603f198984030185528151606081518186526111df82870182610fce565b838b0151878c0152928901519589019590955250948701949250908601906001016111b9565b509098975050505050505050565b600181811c9082168061122757607f821691505b60208210810361124557634e487b7160e01b5f52602260045260245ffd5b50919050565b634e487b7160e01b5f52601160045260245ffd5b8082028115828204841417610a2557610a2561124b565b80820180821115610a2557610a2561124b565b81810381811115610a2557610a2561124b565b634e487b7160e01b5f52603260045260245ffd5b601f8211156112f757805f5260205f20601f840160051c810160208510156112d55750805b601f840160051c820191505b818110156112f4575f81556001016112e1565b50505b505050565b818103611307575050565b6113118254611213565b67ffffffffffffffff811115611329576113296110b6565b61133d816113378454611213565b846112b0565b5f601f82116001811461136e575f83156113575750848201545b5f19600385901b1c1916600184901b1784556112f4565b5f8581526020808220868352908220601f198616925b838110156113a45782860154825560019586019590910190602001611384565b50858310156113c157818501545f19600388901b60f8161c191681555b5050505050600190811b01905550565b634e487b7160e01b5f52603160045260245ffd5b815167ffffffffffffffff8111156113ff576113ff6110b6565b61140d816113378454611213565b602080601f831160018114611440575f84156114295750858301515b5f19600386901b1c1916600185901b178555611497565b5f85815260208120601f198616915b8281101561146e5788860151825594840194600190910190840161144f565b508582101561148b57878501515f19600388901b60f8161c191681555b505060018460011b0185555b505050505050565b5f600182016114b0576114b061124b565b506001019056fea264697066735822122086e42ff753e44d357a9bafb85daff801390bcee9363a4db506c888acf757262264736f6c63430008190033a2646970667358221220b6ce59ee0da60d59e44143bc72c18b8742b10b7fb2a466119e03204ea6eae1d364736f6c63430008190033",
      "opcodes": "PUSH1 0x80 PUSH1 0x40 MSTORE CALLVALUE DUP1 ISZERO PUSH1 0xE JUMPI PUSH0 DUP1 REVERT JUMPDEST POP PUSH0 DUP1 SLOAD PUSH1 0x1 PUSH1 0x1 PUSH1 0xA0 SHL SUB NOT AND CALLER OR SWAP1 SSTORE PUSH2 0x2412 DUP1 PUSH2 0x2D PUSH0 CODECOPY PUSH0 RETURN INVALID PUSH1 0x80 PUSH1 0x40 MSTORE CALLVALUE DUP1 ISZERO PUSH2 0xF JUMPI PUSH0 DUP1 REVERT JUMPDEST POP PUSH1 0x4 CALLDATASIZE LT PUSH2 0x85 JUMPI PUSH0 CALLDATALOAD PUSH1 0xE0 SHR DUP1 PUSH4 0x8DA5CB5B GT PUSH2 0x58 JUMPI DUP1 PUSH4 0x8DA5CB5B EQ PUSH2 0x100 JUMPI DUP1 PUSH4 0xA1E5084C EQ PUSH2 0x12A JUMPI DUP1 PUSH4 0xA318F269 EQ PUSH2 0x13D JUMPI DUP1 PUSH4 0xC4AE3168 EQ PUSH2 0x152 JUMPI PUSH0 DUP1 REVERT JUMPDEST DUP1 PUSH4 0x141961BC EQ PUSH2 0x89 JUMPI DUP1 PUSH4 0x19AC74BD EQ PUSH2 0xB5 JUMPI DUP1 PUSH4 0x5C975ABB EQ PUSH2 0xC8 JUMPI DUP1 PUSH4 0x86CDF604 EQ PUSH2 0xEB JUMPI JUMPDEST PUSH0 DUP1 REVERT JUMPDEST PUSH2 0x9C PUSH2 0x97 CALLDATASIZE PUSH1 0x4 PUSH2 0x78A JUMP JUMPDEST PUSH2 0x15A JUMP JUMPDEST PUSH1 0x40 MLOAD PUSH2 0xAC SWAP5 SWAP4 SWAP3 SWAP2 SWAP1 PUSH2 0x7CF JUMP JUMPDEST PUSH1 0x40 MLOAD DUP1 SWAP2 SUB SWAP1 RETURN JUMPDEST PUSH2 0x9C PUSH2 0xC3 CALLDATASIZE PUSH1 0x4 PUSH2 0x826 JUMP JUMPDEST PUSH2 0x228 JUMP JUMPDEST PUSH0 SLOAD PUSH2 0xDB SWAP1 PUSH1 0x1 PUSH1 0xA0 SHL SWAP1 DIV PUSH1 0xFF AND DUP2 JUMP JUMPDEST PUSH1 0x40 MLOAD SWAP1 ISZERO ISZERO DUP2 MSTORE PUSH1 0x20 ADD PUSH2 0xAC JUMP JUMPDEST PUSH2 0xF3 PUSH2 0x279 JUMP JUMPDEST PUSH1 0x40 MLOAD PUSH2 0xAC SWAP2 SWAP1 PUSH2 0x84E JUMP JUMPDEST PUSH0 SLOAD PUSH2 0x112 SWAP1 PUSH1 0x1 PUSH1 0x1 PUSH1 0xA0 SHL SUB AND DUP2 JUMP JUMPDEST PUSH1 0x40 MLOAD PUSH1 0x1 PUSH1 0x1 PUSH1 0xA0 SHL SUB SWAP1 SWAP2 AND DUP2 MSTORE PUSH1 0x20 ADD PUSH2 0xAC JUMP JUMPDEST PUSH2 0xF3 PUSH2 0x138 CALLDATASIZE PUSH1 0x4 PUSH2 0x8E7 JUMP JUMPDEST PUSH2 0x393 JUMP JUMPDEST PUSH2 0x150 PUSH2 0x14B CALLDATASIZE PUSH1 0x4 PUSH2 0x9A4 JUMP JUMPDEST PUSH2 0x4C3 JUMP JUMPDEST STOP JUMPDEST PUSH2 0x150 PUSH2 0x6E9 JUMP JUMPDEST PUSH1 0x1 DUP2 DUP2 SLOAD DUP2 LT PUSH2 0x169 JUMPI PUSH0 DUP1 REVERT JUMPDEST PUSH0 SWAP2 DUP3 MSTORE PUSH1 0x20 SWAP1 SWAP2 KECCAK256 PUSH1 0x4 SWAP1 SWAP2 MUL ADD DUP1 SLOAD PUSH1 0x1 DUP3 ADD SLOAD PUSH1 0x2 DUP4 ADD DUP1 SLOAD PUSH1 0x1 PUSH1 0x1 PUSH1 0xA0 SHL SUB SWAP4 DUP5 AND SWAP6 POP SWAP3 SWAP1 SWAP2 AND SWAP3 SWAP2 PUSH2 0x1A1 SWAP1 PUSH2 0xA13 JUMP JUMPDEST DUP1 PUSH1 0x1F ADD PUSH1 0x20 DUP1 SWAP2 DIV MUL PUSH1 0x20 ADD PUSH1 0x40 MLOAD SWAP1 DUP2 ADD PUSH1 0x40 MSTORE DUP1 SWAP3 SWAP2 SWAP1 DUP2 DUP2 MSTORE PUSH1 0x20 ADD DUP3 DUP1 SLOAD PUSH2 0x1CD SWAP1 PUSH2 0xA13 JUMP JUMPDEST DUP1 ISZERO PUSH2 0x218 JUMPI DUP1 PUSH1 0x1F LT PUSH2 0x1EF JUMPI PUSH2 0x100 DUP1 DUP4 SLOAD DIV MUL DUP4 MSTORE SWAP2 PUSH1 0x20 ADD SWAP2 PUSH2 0x218 JUMP JUMPDEST DUP3 ADD SWAP2 SWAP1 PUSH0 MSTORE PUSH1 0x20 PUSH0 KECCAK256 SWAP1 JUMPDEST DUP2 SLOAD DUP2 MSTORE SWAP1 PUSH1 0x1 ADD SWAP1 PUSH1 0x20 ADD DUP1 DUP4 GT PUSH2 0x1FB JUMPI DUP3 SWAP1 SUB PUSH1 0x1F AND DUP3 ADD SWAP2 JUMPDEST POP POP POP POP POP SWAP1 DUP1 PUSH1 0x3 ADD SLOAD SWAP1 POP DUP5 JUMP JUMPDEST PUSH1 0x2 PUSH1 0x20 MSTORE DUP2 PUSH0 MSTORE PUSH1 0x40 PUSH0 KECCAK256 DUP2 DUP2 SLOAD DUP2 LT PUSH2 0x241 JUMPI PUSH0 DUP1 REVERT JUMPDEST PUSH0 SWAP2 DUP3 MSTORE PUSH1 0x20 SWAP1 SWAP2 KECCAK256 PUSH1 0x4 SWAP1 SWAP2 MUL ADD DUP1 SLOAD PUSH1 0x1 DUP3 ADD SLOAD PUSH1 0x2 DUP4 ADD DUP1 SLOAD PUSH1 0x1 PUSH1 0x1 PUSH1 0xA0 SHL SUB SWAP4 DUP5 AND SWAP7 POP SWAP2 SWAP1 SWAP3 AND SWAP4 POP PUSH2 0x1A1 SWAP1 PUSH2 0xA13 JUMP JUMPDEST PUSH1 0x60 PUSH1 0x1 DUP1 SLOAD DUP1 PUSH1 0x20 MUL PUSH1 0x20 ADD PUSH1 0x40 MLOAD SWAP1 DUP2 ADD PUSH1 0x40 MSTORE DUP1 SWAP3 SWAP2 SWAP1 DUP2 DUP2 MSTORE PUSH1 0x20 ADD PUSH0 SWAP1 JUMPDEST DUP3 DUP3 LT ISZERO PUSH2 0x38A JUMPI PUSH0 DUP5 DUP2 MSTORE PUSH1 0x20 SWAP1 DUP2 SWAP1 KECCAK256 PUSH1 0x40 DUP1 MLOAD PUSH1 0x80 DUP2 ADD DUP3 MSTORE PUSH1 0x4 DUP7 MUL SWAP1 SWAP3 ADD DUP1 SLOAD PUSH1 0x1 PUSH1 0x1 PUSH1 0xA0 SHL SUB SWAP1 DUP2 AND DUP5 MSTORE PUSH1 0x1 DUP3 ADD SLOAD AND SWAP4 DUP4 ADD SWAP4 SWAP1 SWAP4 MSTORE PUSH1 0x2 DUP4 ADD DUP1 SLOAD SWAP3 SWAP4 SWAP3 SWAP2 DUP5 ADD SWAP2 PUSH2 0x2F1 SWAP1 PUSH2 0xA13 JUMP JUMPDEST DUP1 PUSH1 0x1F ADD PUSH1 0x20 DUP1 SWAP2 DIV MUL PUSH1 0x20 ADD PUSH1 0x40 MLOAD SWAP1 DUP2 ADD PUSH1 0x40 MSTORE DUP1 SWAP3 SWAP2 SWAP1 DUP2 DUP2 MSTORE PUSH1 0x20 ADD DUP3 DUP1 SLOAD PUSH2 0x31D SWAP1 PUSH2 0xA13 JUMP JUMPDEST DUP1 ISZERO PUSH2 0x368 JUMPI DUP1 PUSH1 0x1F LT PUSH2 0x33F JUMPI PUSH2 0x100 DUP1 DUP4 SLOAD DIV MUL DUP4 MSTORE SWAP2 PUSH1 0x20 ADD SWAP2 PUSH2 0x368 JUMP JUMPDEST DUP3 ADD SWAP2 SWAP1 PUSH0 MSTORE PUSH1 0x20 PUSH0 KECCAK256 SWAP1 JUMPDEST DUP2 SLOAD DUP2 MSTORE SWAP1 PUSH1 0x1 ADD SWAP1 PUSH1 0x20 ADD DUP1 DUP4 GT PUSH2 0x34B JUMPI DUP3 SWAP1 SUB PUSH1 0x1F AND DUP3 ADD SWAP2 JUMPDEST POP POP POP POP POP DUP2 MSTORE PUSH1 0x20 ADD PUSH1 0x3 DUP3 ADD SLOAD DUP2 MSTORE POP POP DUP2 MSTORE PUSH1 0x20 ADD SWAP1 PUSH1 0x1 ADD SWAP1 PUSH2 0x29C JUMP JUMPDEST POP POP POP POP SWAP1 POP SWAP1 JUMP JUMPDEST PUSH1 0x1 PUSH1 0x1 PUSH1 0xA0 SHL SUB DUP2 AND PUSH0 SWAP1 DUP2 MSTORE PUSH1 0x2 PUSH1 0x20 SWAP1 DUP2 MSTORE PUSH1 0x40 DUP1 DUP4 KECCAK256 DUP1 SLOAD DUP3 MLOAD DUP2 DUP6 MUL DUP2 ADD DUP6 ADD SWAP1 SWAP4 MSTORE DUP1 DUP4 MSTORE PUSH1 0x60 SWAP5 SWAP3 SWAP4 SWAP2 SWAP3 SWAP1 SWAP2 DUP5 ADD JUMPDEST DUP3 DUP3 LT ISZERO PUSH2 0x4B8 JUMPI PUSH0 DUP5 DUP2 MSTORE PUSH1 0x20 SWAP1 DUP2 SWAP1 KECCAK256 PUSH1 0x40 DUP1 MLOAD PUSH1 0x80 DUP2 ADD DUP3 MSTORE PUSH1 0x4 DUP7 MUL SWAP1 SWAP3 ADD DUP1 SLOAD PUSH1 0x1 PUSH1 0x1 PUSH1 0xA0 SHL SUB SWAP1 DUP2 AND DUP5 MSTORE PUSH1 0x1 DUP3 ADD SLOAD AND SWAP4 DUP4 ADD SWAP4 SWAP1 SWAP4 MSTORE PUSH1 0x2 DUP4 ADD DUP1 SLOAD SWAP3 SWAP4 SWAP3 SWAP2 DUP5 ADD SWAP2 PUSH2 0x41F SWAP1 PUSH2 0xA13 JUMP JUMPDEST DUP1 PUSH1 0x1F ADD PUSH1 0x20 DUP1 SWAP2 DIV MUL PUSH1 0x20 ADD PUSH1 0x40 MLOAD SWAP1 DUP2 ADD PUSH1 0x40 MSTORE DUP1 SWAP3 SWAP2 SWAP1 DUP2 DUP2 MSTORE PUSH1 0x20 ADD DUP3 DUP1 SLOAD PUSH2 0x44B SWAP1 PUSH2 0xA13 JUMP JUMPDEST DUP1 ISZERO PUSH2 0x496 JUMPI DUP1 PUSH1 0x1F LT PUSH2 0x46D JUMPI PUSH2 0x100 DUP1 DUP4 SLOAD DIV MUL DUP4 MSTORE SWAP2 PUSH1 0x20 ADD SWAP2 PUSH2 0x496 JUMP JUMPDEST DUP3 ADD SWAP2 SWAP1 PUSH0 MSTORE PUSH1 0x20 PUSH0 KECCAK256 SWAP1 JUMPDEST DUP2 SLOAD DUP2 MSTORE SWAP1 PUSH1 0x1 ADD SWAP1 PUSH1 0x20 ADD DUP1 DUP4 GT PUSH2 0x479 JUMPI DUP3 SWAP1 SUB PUSH1 0x1F AND DUP3 ADD SWAP2 JUMPDEST POP POP POP POP POP DUP2 MSTORE PUSH1 0x20 ADD PUSH1 0x3 DUP3 ADD SLOAD DUP2 MSTORE POP POP DUP2 MSTORE PUSH1 0x20 ADD SWAP1 PUSH1 0x1 ADD SWAP1 PUSH2 0x3CA JUMP JUMPDEST POP POP POP POP SWAP1 POP SWAP2 SWAP1 POP JUMP JUMPDEST PUSH0 SLOAD PUSH1 0x1 PUSH1 0xA0 SHL SWAP1 DIV PUSH1 0xFF AND ISZERO PUSH2 0x521 JUMPI PUSH1 0x40 MLOAD PUSH3 0x461BCD PUSH1 0xE5 SHL DUP2 MSTORE PUSH1 0x20 PUSH1 0x4 DUP3 ADD MSTORE PUSH1 0x11 PUSH1 0x24 DUP3 ADD MSTORE PUSH32 0x466163746F727920697320706175736564000000000000000000000000000000 PUSH1 0x44 DUP3 ADD MSTORE PUSH1 0x64 ADD JUMPDEST PUSH1 0x40 MLOAD DUP1 SWAP2 SUB SWAP1 REVERT JUMPDEST PUSH0 CALLER DUP6 DUP6 DUP6 DUP6 PUSH1 0x40 MLOAD PUSH2 0x533 SWAP1 PUSH2 0x77D JUMP JUMPDEST PUSH2 0x541 SWAP6 SWAP5 SWAP4 SWAP3 SWAP2 SWAP1 PUSH2 0xA4B JUMP JUMPDEST PUSH1 0x40 MLOAD DUP1 SWAP2 SUB SWAP1 PUSH0 CREATE DUP1 ISZERO DUP1 ISZERO PUSH2 0x55A JUMPI RETURNDATASIZE PUSH0 DUP1 RETURNDATACOPY RETURNDATASIZE PUSH0 REVERT JUMPDEST POP PUSH1 0x40 DUP1 MLOAD PUSH1 0x80 DUP2 ADD DUP3 MSTORE PUSH1 0x1 PUSH1 0x1 PUSH1 0xA0 SHL SUB DUP1 DUP5 AND DUP3 MSTORE CALLER PUSH1 0x20 DUP4 ADD SWAP1 DUP2 MSTORE SWAP3 DUP3 ADD DUP10 DUP2 MSTORE TIMESTAMP PUSH1 0x60 DUP5 ADD MSTORE PUSH1 0x1 DUP1 SLOAD DUP1 DUP3 ADD DUP3 SSTORE PUSH0 SWAP2 SWAP1 SWAP2 MSTORE DUP4 MLOAD PUSH1 0x4 SWAP1 SWAP2 MUL PUSH32 0xB10E2D527612073B26EECDFD717E6A320CF44B4AFAC2B0732D9FCBE2B7FA0CF6 DUP2 ADD DUP1 SLOAD SWAP3 DUP6 AND PUSH20 0xFFFFFFFFFFFFFFFFFFFFFFFFFFFFFFFFFFFFFFFF NOT SWAP4 DUP5 AND OR DUP2 SSTORE SWAP6 MLOAD PUSH32 0xB10E2D527612073B26EECDFD717E6A320CF44B4AFAC2B0732D9FCBE2B7FA0CF7 DUP3 ADD DUP1 SLOAD SWAP2 SWAP1 SWAP6 AND SWAP3 AND SWAP2 SWAP1 SWAP2 OR SWAP1 SWAP3 SSTORE MLOAD SWAP4 SWAP5 POP DUP5 SWAP4 SWAP2 SWAP3 DUP4 SWAP3 SWAP1 SWAP2 PUSH32 0xB10E2D527612073B26EECDFD717E6A320CF44B4AFAC2B0732D9FCBE2B7FA0CF8 ADD SWAP1 PUSH2 0x64C SWAP1 DUP3 PUSH2 0xADF JUMP JUMPDEST POP PUSH1 0x60 SWAP2 SWAP1 SWAP2 ADD MLOAD PUSH1 0x3 SWAP1 SWAP2 ADD SSTORE CALLER PUSH0 SWAP1 DUP2 MSTORE PUSH1 0x2 PUSH1 0x20 DUP2 DUP2 MSTORE PUSH1 0x40 DUP1 DUP5 KECCAK256 DUP1 SLOAD PUSH1 0x1 DUP1 DUP3 ADD DUP4 SSTORE SWAP2 DUP7 MSTORE SWAP5 DUP4 SWAP1 KECCAK256 DUP7 MLOAD PUSH1 0x4 SWAP1 SWAP7 MUL ADD DUP1 SLOAD PUSH20 0xFFFFFFFFFFFFFFFFFFFFFFFFFFFFFFFFFFFFFFFF NOT SWAP1 DUP2 AND PUSH1 0x1 PUSH1 0x1 PUSH1 0xA0 SHL SUB SWAP8 DUP9 AND OR DUP3 SSTORE SWAP4 DUP8 ADD MLOAD SWAP2 DUP2 ADD DUP1 SLOAD SWAP1 SWAP5 AND SWAP2 SWAP1 SWAP6 AND OR SWAP1 SWAP2 SSTORE DUP4 ADD MLOAD DUP4 SWAP3 SWAP2 DUP3 ADD SWAP1 PUSH2 0x6D3 SWAP1 DUP3 PUSH2 0xADF JUMP JUMPDEST POP PUSH1 0x60 DUP3 ADD MLOAD DUP2 PUSH1 0x3 ADD SSTORE POP POP POP POP POP POP POP POP POP JUMP JUMPDEST PUSH0 SLOAD PUSH1 0x1 PUSH1 0x1 PUSH1 0xA0 SHL SUB AND CALLER EQ PUSH2 0x742 JUMPI PUSH1 0x40 MLOAD PUSH3 0x461BCD PUSH1 0xE5 SHL DUP2 MSTORE PUSH1 0x20 PUSH1 0x4 DUP3 ADD MSTORE PUSH1 0xA PUSH1 0x24 DUP3 ADD MSTORE PUSH32 0x4E6F74206F776E65722E00000000000000000000000000000000000000000000 PUSH1 0x44 DUP3 ADD MSTORE PUSH1 0x64 ADD PUSH2 0x518 JUMP JUMPDEST PUSH0 DUP1 SLOAD PUSH32 0xFFFFFFFFFFFFFFFFFFFFFF00FFFFFFFFFFFFFFFFFFFFFFFFFFFFFFFFFFFFFFFF DUP2 AND PUSH1 0x1 PUSH1 0xA0 SHL SWAP2 DUP3 SWAP1 DIV PUSH1 0xFF AND ISZERO SWAP1 SWAP2 MUL OR SWAP1 SSTORE JUMP JUMPDEST PUSH2 0x183D DUP1 PUSH2 0xBA0 DUP4 CODECOPY ADD SWAP1 JUMP JUMPDEST PUSH0 PUSH1 0x20 DUP3 DUP5 SUB SLT ISZERO PUSH2 0x79A JUMPI PUSH0 DUP1 REVERT JUMPDEST POP CALLDATALOAD SWAP2 SWAP1 POP JUMP JUMPDEST PUSH0 DUP2 MLOAD DUP1 DUP5 MSTORE DUP1 PUSH1 0x20 DUP5 ADD PUSH1 0x20 DUP7 ADD MCOPY PUSH0 PUSH1 0x20 DUP3 DUP7 ADD ADD MSTORE PUSH1 0x20 PUSH1 0x1F NOT PUSH1 0x1F DUP4 ADD AND DUP6 ADD ADD SWAP2 POP POP SWAP3 SWAP2 POP POP JUMP JUMPDEST PUSH0 PUSH1 0x1 PUSH1 0x1 PUSH1 0xA0 SHL SUB DUP1 DUP8 AND DUP4 MSTORE DUP1 DUP7 AND PUSH1 0x20 DUP5 ADD MSTORE POP PUSH1 0x80 PUSH1 0x40 DUP4 ADD MSTORE PUSH2 0x7FA PUSH1 0x80 DUP4 ADD DUP6 PUSH2 0x7A1 JUMP JUMPDEST SWAP1 POP DUP3 PUSH1 0x60 DUP4 ADD MSTORE SWAP6 SWAP5 POP POP POP POP POP JUMP JUMPDEST DUP1 CALLDATALOAD PUSH1 0x1 PUSH1 0x1 PUSH1 0xA0 SHL SUB DUP2 AND DUP2 EQ PUSH2 0x821 JUMPI PUSH0 DUP1 REVERT JUMPDEST SWAP2 SWAP1 POP JUMP JUMPDEST PUSH0 DUP1 PUSH1 0x40 DUP4 DUP6 SUB SLT ISZERO PUSH2 0x837 JUMPI PUSH0 DUP1 REVERT JUMPDEST PUSH2 0x840 DUP4 PUSH2 0x80B JUMP JUMPDEST SWAP5 PUSH1 0x20 SWAP4 SWAP1 SWAP4 ADD CALLDATALOAD SWAP4 POP POP POP JUMP JUMPDEST PUSH0 PUSH1 0x20 DUP1 DUP4 ADD DUP2 DUP5 MSTORE DUP1 DUP6 MLOAD DUP1 DUP4 MSTORE PUSH1 0x40 SWAP3 POP PUSH1 0x40 DUP7 ADD SWAP2 POP PUSH1 0x40 DUP2 PUSH1 0x5 SHL DUP8 ADD ADD DUP5 DUP9 ADD PUSH0 JUMPDEST DUP4 DUP2 LT ISZERO PUSH2 0x8D9 JUMPI PUSH1 0x3F NOT DUP10 DUP5 SUB ADD DUP6 MSTORE DUP2 MLOAD PUSH1 0x80 PUSH1 0x1 PUSH1 0x1 PUSH1 0xA0 SHL SUB DUP1 DUP4 MLOAD AND DUP7 MSTORE DUP1 DUP11 DUP5 ADD MLOAD AND DUP11 DUP8 ADD MSTORE POP DUP8 DUP3 ADD MLOAD DUP2 DUP10 DUP8 ADD MSTORE PUSH2 0x8B8 DUP3 DUP8 ADD DUP3 PUSH2 0x7A1 JUMP JUMPDEST PUSH1 0x60 SWAP4 DUP5 ADD MLOAD SWAP7 SWAP1 SWAP4 ADD SWAP6 SWAP1 SWAP6 MSTORE POP SWAP5 DUP8 ADD SWAP5 SWAP3 POP SWAP1 DUP7 ADD SWAP1 PUSH1 0x1 ADD PUSH2 0x875 JUMP JUMPDEST POP SWAP1 SWAP9 SWAP8 POP POP POP POP POP POP POP POP JUMP JUMPDEST PUSH0 PUSH1 0x20 DUP3 DUP5 SUB SLT ISZERO PUSH2 0x8F7 JUMPI PUSH0 DUP1 REVERT JUMPDEST PUSH2 0x900 DUP3 PUSH2 0x80B JUMP JUMPDEST SWAP4 SWAP3 POP POP POP JUMP JUMPDEST PUSH4 0x4E487B71 PUSH1 0xE0 SHL PUSH0 MSTORE PUSH1 0x41 PUSH1 0x4 MSTORE PUSH1 0x24 PUSH0 REVERT JUMPDEST PUSH0 DUP3 PUSH1 0x1F DUP4 ADD SLT PUSH2 0x92A JUMPI PUSH0 DUP1 REVERT JUMPDEST DUP2 CALLDATALOAD PUSH8 0xFFFFFFFFFFFFFFFF DUP1 DUP3 GT ISZERO PUSH2 0x945 JUMPI PUSH2 0x945 PUSH2 0x907 JUMP JUMPDEST PUSH1 0x40 MLOAD PUSH1 0x1F DUP4 ADD PUSH1 0x1F NOT SWAP1 DUP2 AND PUSH1 0x3F ADD AND DUP2 ADD SWAP1 DUP3 DUP3 GT DUP2 DUP4 LT OR ISZERO PUSH2 0x96D JUMPI PUSH2 0x96D PUSH2 0x907 JUMP JUMPDEST DUP2 PUSH1 0x40 MSTORE DUP4 DUP2 MSTORE DUP7 PUSH1 0x20 DUP6 DUP9 ADD ADD GT ISZERO PUSH2 0x985 JUMPI PUSH0 DUP1 REVERT JUMPDEST DUP4 PUSH1 0x20 DUP8 ADD PUSH1 0x20 DUP4 ADD CALLDATACOPY PUSH0 PUSH1 0x20 DUP6 DUP4 ADD ADD MSTORE DUP1 SWAP5 POP POP POP POP POP SWAP3 SWAP2 POP POP JUMP JUMPDEST PUSH0 DUP1 PUSH0 DUP1 PUSH1 0x80 DUP6 DUP8 SUB SLT ISZERO PUSH2 0x9B7 JUMPI PUSH0 DUP1 REVERT JUMPDEST DUP5 CALLDATALOAD PUSH8 0xFFFFFFFFFFFFFFFF DUP1 DUP3 GT ISZERO PUSH2 0x9CE JUMPI PUSH0 DUP1 REVERT JUMPDEST PUSH2 0x9DA DUP9 DUP4 DUP10 ADD PUSH2 0x91B JUMP JUMPDEST SWAP6 POP PUSH1 0x20 DUP8 ADD CALLDATALOAD SWAP2 POP DUP1 DUP3 GT ISZERO PUSH2 0x9EF JUMPI PUSH0 DUP1 REVERT JUMPDEST POP PUSH2 0x9FC DUP8 DUP3 DUP9 ADD PUSH2 0x91B JUMP JUMPDEST SWAP5 SWAP8 SWAP5 SWAP7 POP POP POP POP PUSH1 0x40 DUP4 ADD CALLDATALOAD SWAP3 PUSH1 0x60 ADD CALLDATALOAD SWAP2 SWAP1 POP JUMP JUMPDEST PUSH1 0x1 DUP2 DUP2 SHR SWAP1 DUP3 AND DUP1 PUSH2 0xA27 JUMPI PUSH1 0x7F DUP3 AND SWAP2 POP JUMPDEST PUSH1 0x20 DUP3 LT DUP2 SUB PUSH2 0xA45 JUMPI PUSH4 0x4E487B71 PUSH1 0xE0 SHL PUSH0 MSTORE PUSH1 0x22 PUSH1 0x4 MSTORE PUSH1 0x24 PUSH0 REVERT JUMPDEST POP SWAP2 SWAP1 POP JUMP JUMPDEST PUSH1 0x1 PUSH1 0x1 PUSH1 0xA0 SHL SUB DUP7 AND DUP2 MSTORE PUSH1 0xA0 PUSH1 0x20 DUP3 ADD MSTORE PUSH0 PUSH2 0xA6C PUSH1 0xA0 DUP4 ADD DUP8 PUSH2 0x7A1 JUMP JUMPDEST DUP3 DUP2 SUB PUSH1 0x40 DUP5 ADD MSTORE PUSH2 0xA7E DUP2 DUP8 PUSH2 0x7A1 JUMP JUMPDEST PUSH1 0x60 DUP5 ADD SWAP6 SWAP1 SWAP6 MSTORE POP POP PUSH1 0x80 ADD MSTORE SWAP4 SWAP3 POP POP POP JUMP JUMPDEST PUSH1 0x1F DUP3 GT ISZERO PUSH2 0xADA JUMPI DUP1 PUSH0 MSTORE PUSH1 0x20 PUSH0 KECCAK256 PUSH1 0x1F DUP5 ADD PUSH1 0x5 SHR DUP2 ADD PUSH1 0x20 DUP6 LT ISZERO PUSH2 0xAB8 JUMPI POP DUP1 JUMPDEST PUSH1 0x1F DUP5 ADD PUSH1 0x5 SHR DUP3 ADD SWAP2 POP JUMPDEST DUP2 DUP2 LT ISZERO PUSH2 0xAD7 JUMPI PUSH0 DUP2 SSTORE PUSH1 0x1 ADD PUSH2 0xAC4 JUMP JUMPDEST POP POP JUMPDEST POP POP POP JUMP JUMPDEST DUP2 MLOAD PUSH8 0xFFFFFFFFFFFFFFFF DUP2 GT ISZERO PUSH2 0xAF9 JUMPI PUSH2 0xAF9 PUSH2 0x907 JUMP JUMPDEST PUSH2 0xB0D DUP2 PUSH2 0xB07 DUP5 SLOAD PUSH2 0xA13 JUMP JUMPDEST DUP5 PUSH2 0xA93 JUMP JUMPDEST PUSH1 0x20 DUP1 PUSH1 0x1F DUP4 GT PUSH1 0x1 DUP2 EQ PUSH2 0xB40 JUMPI PUSH0 DUP5 ISZERO PUSH2 0xB29 JUMPI POP DUP6 DUP4 ADD MLOAD JUMPDEST PUSH0 NOT PUSH1 0x3 DUP7 SWAP1 SHL SHR NOT AND PUSH1 0x1 DUP6 SWAP1 SHL OR DUP6 SSTORE PUSH2 0xB97 JUMP JUMPDEST PUSH0 DUP6 DUP2 MSTORE PUSH1 0x20 DUP2 KECCAK256 PUSH1 0x1F NOT DUP7 AND SWAP2 JUMPDEST DUP3 DUP2 LT ISZERO PUSH2 0xB6E JUMPI DUP9 DUP7 ADD MLOAD DUP3 SSTORE SWAP5 DUP5 ADD SWAP5 PUSH1 0x1 SWAP1 SWAP2 ADD SWAP1 DUP5 ADD PUSH2 0xB4F JUMP JUMPDEST POP DUP6 DUP3 LT ISZERO PUSH2 0xB8B JUMPI DUP8 DUP6 ADD MLOAD PUSH0 NOT PUSH1 0x3 DUP9 SWAP1 SHL PUSH1 0xF8 AND SHR NOT AND DUP2 SSTORE JUMPDEST POP POP PUSH1 0x1 DUP5 PUSH1 0x1 SHL ADD DUP6 SSTORE JUMPDEST POP POP POP POP POP POP JUMP INVALID PUSH1 0x80 PUSH1 0x40 MSTORE CALLVALUE DUP1 ISZERO PUSH2 0xF JUMPI PUSH0 DUP1 REVERT JUMPDEST POP PUSH1 0x40 MLOAD PUSH2 0x183D CODESIZE SUB DUP1 PUSH2 0x183D DUP4 CODECOPY DUP2 ADD PUSH1 0x40 DUP2 SWAP1 MSTORE PUSH2 0x2E SWAP2 PUSH2 0x12E JUMP JUMPDEST PUSH0 PUSH2 0x39 DUP6 DUP3 PUSH2 0x240 JUMP JUMPDEST POP PUSH1 0x1 PUSH2 0x46 DUP5 DUP3 PUSH2 0x240 JUMP JUMPDEST POP PUSH1 0x2 DUP3 SWAP1 SSTORE PUSH2 0x59 DUP2 PUSH3 0x15180 PUSH2 0x313 JUMP JUMPDEST PUSH2 0x63 SWAP1 TIMESTAMP PUSH2 0x330 JUMP JUMPDEST PUSH1 0x3 SSTORE POP POP PUSH1 0x4 DUP1 SLOAD PUSH1 0x1 PUSH2 0xFF01 PUSH1 0xA0 SHL SUB NOT AND PUSH1 0x1 PUSH1 0x1 PUSH1 0xA0 SHL SUB SWAP5 SWAP1 SWAP5 AND SWAP4 SWAP1 SWAP4 OR SWAP1 SWAP3 SSTORE POP PUSH2 0x343 SWAP1 POP JUMP JUMPDEST PUSH4 0x4E487B71 PUSH1 0xE0 SHL PUSH0 MSTORE PUSH1 0x41 PUSH1 0x4 MSTORE PUSH1 0x24 PUSH0 REVERT JUMPDEST PUSH0 DUP3 PUSH1 0x1F DUP4 ADD SLT PUSH2 0xB5 JUMPI PUSH0 DUP1 REVERT JUMPDEST DUP2 MLOAD PUSH1 0x1 PUSH1 0x1 PUSH1 0x40 SHL SUB DUP1 DUP3 GT ISZERO PUSH2 0xCF JUMPI PUSH2 0xCF PUSH2 0x92 JUMP JUMPDEST PUSH1 0x40 MLOAD PUSH1 0x1F DUP4 ADD PUSH1 0x1F NOT SWAP1 DUP2 AND PUSH1 0x3F ADD AND DUP2 ADD SWAP1 DUP3 DUP3 GT DUP2 DUP4 LT OR ISZERO PUSH2 0xF7 JUMPI PUSH2 0xF7 PUSH2 0x92 JUMP JUMPDEST DUP2 PUSH1 0x40 MSTORE DUP4 DUP2 MSTORE DUP7 PUSH1 0x20 DUP6 DUP9 ADD ADD GT ISZERO PUSH2 0x10F JUMPI PUSH0 DUP1 REVERT JUMPDEST DUP4 PUSH1 0x20 DUP8 ADD PUSH1 0x20 DUP4 ADD MCOPY PUSH0 PUSH1 0x20 DUP6 DUP4 ADD ADD MSTORE DUP1 SWAP5 POP POP POP POP POP SWAP3 SWAP2 POP POP JUMP JUMPDEST PUSH0 DUP1 PUSH0 DUP1 PUSH0 PUSH1 0xA0 DUP7 DUP9 SUB SLT ISZERO PUSH2 0x142 JUMPI PUSH0 DUP1 REVERT JUMPDEST DUP6 MLOAD PUSH1 0x1 PUSH1 0x1 PUSH1 0xA0 SHL SUB DUP2 AND DUP2 EQ PUSH2 0x158 JUMPI PUSH0 DUP1 REVERT JUMPDEST PUSH1 0x20 DUP8 ADD MLOAD SWAP1 SWAP6 POP PUSH1 0x1 PUSH1 0x1 PUSH1 0x40 SHL SUB DUP1 DUP3 GT ISZERO PUSH2 0x174 JUMPI PUSH0 DUP1 REVERT JUMPDEST PUSH2 0x180 DUP10 DUP4 DUP11 ADD PUSH2 0xA6 JUMP JUMPDEST SWAP6 POP PUSH1 0x40 DUP9 ADD MLOAD SWAP2 POP DUP1 DUP3 GT ISZERO PUSH2 0x195 JUMPI PUSH0 DUP1 REVERT JUMPDEST POP PUSH2 0x1A2 DUP9 DUP3 DUP10 ADD PUSH2 0xA6 JUMP JUMPDEST PUSH1 0x60 DUP9 ADD MLOAD PUSH1 0x80 SWAP1 SWAP9 ADD MLOAD SWAP7 SWAP10 SWAP6 SWAP9 POP SWAP7 SWAP6 SWAP5 SWAP4 POP POP POP POP JUMP JUMPDEST PUSH1 0x1 DUP2 DUP2 SHR SWAP1 DUP3 AND DUP1 PUSH2 0x1D0 JUMPI PUSH1 0x7F DUP3 AND SWAP2 POP JUMPDEST PUSH1 0x20 DUP3 LT DUP2 SUB PUSH2 0x1EE JUMPI PUSH4 0x4E487B71 PUSH1 0xE0 SHL PUSH0 MSTORE PUSH1 0x22 PUSH1 0x4 MSTORE PUSH1 0x24 PUSH0 REVERT JUMPDEST POP SWAP2 SWAP1 POP JUMP JUMPDEST PUSH1 0x1F DUP3 GT ISZERO PUSH2 0x23B JUMPI DUP1 PUSH0 MSTORE PUSH1 0x20 PUSH0 KECCAK256 PUSH1 0x1F DUP5 ADD PUSH1 0x5 SHR DUP2 ADD PUSH1 0x20 DUP6 LT ISZERO PUSH2 0x219 JUMPI POP DUP1 JUMPDEST PUSH1 0x1F DUP5 ADD PUSH1 0x5 SHR DUP3 ADD SWAP2 POP JUMPDEST DUP2 DUP2 LT ISZERO PUSH2 0x238 JUMPI PUSH0 DUP2 SSTORE PUSH1 0x1 ADD PUSH2 0x225 JUMP JUMPDEST POP POP JUMPDEST POP POP POP JUMP JUMPDEST DUP2 MLOAD PUSH1 0x1 PUSH1 0x1 PUSH1 0x40 SHL SUB DUP2 GT ISZERO PUSH2 0x259 JUMPI PUSH2 0x259 PUSH2 0x92 JUMP JUMPDEST PUSH2 0x26D DUP2 PUSH2 0x267 DUP5 SLOAD PUSH2 0x1BC JUMP JUMPDEST DUP5 PUSH2 0x1F4 JUMP JUMPDEST PUSH1 0x20 DUP1 PUSH1 0x1F DUP4 GT PUSH1 0x1 DUP2 EQ PUSH2 0x2A0 JUMPI PUSH0 DUP5 ISZERO PUSH2 0x289 JUMPI POP DUP6 DUP4 ADD MLOAD JUMPDEST PUSH0 NOT PUSH1 0x3 DUP7 SWAP1 SHL SHR NOT AND PUSH1 0x1 DUP6 SWAP1 SHL OR DUP6 SSTORE PUSH2 0x2F7 JUMP JUMPDEST PUSH0 DUP6 DUP2 MSTORE PUSH1 0x20 DUP2 KECCAK256 PUSH1 0x1F NOT DUP7 AND SWAP2 JUMPDEST DUP3 DUP2 LT ISZERO PUSH2 0x2CE JUMPI DUP9 DUP7 ADD MLOAD DUP3 SSTORE SWAP5 DUP5 ADD SWAP5 PUSH1 0x1 SWAP1 SWAP2 ADD SWAP1 DUP5 ADD PUSH2 0x2AF JUMP JUMPDEST POP DUP6 DUP3 LT ISZERO PUSH2 0x2EB JUMPI DUP8 DUP6 ADD MLOAD PUSH0 NOT PUSH1 0x3 DUP9 SWAP1 SHL PUSH1 0xF8 AND SHR NOT AND DUP2 SSTORE JUMPDEST POP POP PUSH1 0x1 DUP5 PUSH1 0x1 SHL ADD DUP6 SSTORE JUMPDEST POP POP POP POP POP POP JUMP JUMPDEST PUSH4 0x4E487B71 PUSH1 0xE0 SHL PUSH0 MSTORE PUSH1 0x11 PUSH1 0x4 MSTORE PUSH1 0x24 PUSH0 REVERT JUMPDEST DUP1 DUP3 MUL DUP2 ISZERO DUP3 DUP3 DIV DUP5 EQ OR PUSH2 0x32A JUMPI PUSH2 0x32A PUSH2 0x2FF JUMP JUMPDEST SWAP3 SWAP2 POP POP JUMP JUMPDEST DUP1 DUP3 ADD DUP1 DUP3 GT ISZERO PUSH2 0x32A JUMPI PUSH2 0x32A PUSH2 0x2FF JUMP JUMPDEST PUSH2 0x14ED DUP1 PUSH2 0x350 PUSH0 CODECOPY PUSH0 RETURN INVALID PUSH1 0x80 PUSH1 0x40 MSTORE PUSH1 0x4 CALLDATASIZE LT PUSH2 0x157 JUMPI PUSH0 CALLDATALOAD PUSH1 0xE0 SHR DUP1 PUSH4 0x7284E416 GT PUSH2 0xBB JUMPI DUP1 PUSH4 0xB85DFB80 GT PUSH2 0x71 JUMPI DUP1 PUSH4 0xC4AE3168 GT PUSH2 0x57 JUMPI DUP1 PUSH4 0xC4AE3168 EQ PUSH2 0x38A JUMPI DUP1 PUSH4 0xCA1D209D EQ PUSH2 0x39E JUMPI DUP1 PUSH4 0xDE170570 EQ PUSH2 0x3B1 JUMPI PUSH0 DUP1 REVERT JUMPDEST DUP1 PUSH4 0xB85DFB80 EQ PUSH2 0x33F JUMPI DUP1 PUSH4 0xC19D93FB EQ PUSH2 0x36A JUMPI PUSH0 DUP1 REVERT JUMPDEST DUP1 PUSH4 0x7ADBA527 GT PUSH2 0xA1 JUMPI DUP1 PUSH4 0x7ADBA527 EQ PUSH2 0x2CA JUMPI DUP1 PUSH4 0x8DA5CB5B EQ PUSH2 0x2E9 JUMPI DUP1 PUSH4 0x8ECE7B91 EQ PUSH2 0x320 JUMPI PUSH0 DUP1 REVERT JUMPDEST DUP1 PUSH4 0x7284E416 EQ PUSH2 0x297 JUMPI DUP1 PUSH4 0x7497211B EQ PUSH2 0x2AB JUMPI PUSH0 DUP1 REVERT JUMPDEST DUP1 PUSH4 0x3CCFD60B GT PUSH2 0x110 JUMPI DUP1 PUSH4 0x590E1AE3 GT PUSH2 0xF6 JUMPI DUP1 PUSH4 0x590E1AE3 EQ PUSH2 0x241 JUMPI DUP1 PUSH4 0x5C975ABB EQ PUSH2 0x255 JUMPI DUP1 PUSH4 0x6F9FB98A EQ PUSH2 0x285 JUMPI PUSH0 DUP1 REVERT JUMPDEST DUP1 PUSH4 0x3CCFD60B EQ PUSH2 0x218 JUMPI DUP1 PUSH4 0x40193883 EQ PUSH2 0x22C JUMPI PUSH0 DUP1 REVERT JUMPDEST DUP1 PUSH4 0x10550515 GT PUSH2 0x140 JUMPI DUP1 PUSH4 0x10550515 EQ PUSH2 0x1B3 JUMPI DUP1 PUSH4 0x29DCB0CF EQ PUSH2 0x1D4 JUMPI DUP1 PUSH4 0x389B7533 EQ PUSH2 0x1F7 JUMPI PUSH0 DUP1 REVERT JUMPDEST DUP1 PUSH4 0x39AF9EB EQ PUSH2 0x15B JUMPI DUP1 PUSH4 0x6FDDE03 EQ PUSH2 0x192 JUMPI JUMPDEST PUSH0 DUP1 REVERT JUMPDEST CALLVALUE DUP1 ISZERO PUSH2 0x166 JUMPI PUSH0 DUP1 REVERT JUMPDEST POP PUSH2 0x17A PUSH2 0x175 CALLDATASIZE PUSH1 0x4 PUSH2 0xFB7 JUMP JUMPDEST PUSH2 0x3D2 JUMP JUMPDEST PUSH1 0x40 MLOAD PUSH2 0x189 SWAP4 SWAP3 SWAP2 SWAP1 PUSH2 0xFFC JUMP JUMPDEST PUSH1 0x40 MLOAD DUP1 SWAP2 SUB SWAP1 RETURN JUMPDEST CALLVALUE DUP1 ISZERO PUSH2 0x19D JUMPI PUSH0 DUP1 REVERT JUMPDEST POP PUSH2 0x1A6 PUSH2 0x48D JUMP JUMPDEST PUSH1 0x40 MLOAD PUSH2 0x189 SWAP2 SWAP1 PUSH2 0x1020 JUMP JUMPDEST CALLVALUE DUP1 ISZERO PUSH2 0x1BE JUMPI PUSH0 DUP1 REVERT JUMPDEST POP PUSH2 0x1C7 PUSH2 0x518 JUMP JUMPDEST PUSH1 0x40 MLOAD PUSH2 0x189 SWAP2 SWAP1 PUSH2 0x104D JUMP JUMPDEST CALLVALUE DUP1 ISZERO PUSH2 0x1DF JUMPI PUSH0 DUP1 REVERT JUMPDEST POP PUSH2 0x1E9 PUSH1 0x3 SLOAD DUP2 JUMP JUMPDEST PUSH1 0x40 MLOAD SWAP1 DUP2 MSTORE PUSH1 0x20 ADD PUSH2 0x189 JUMP JUMPDEST CALLVALUE DUP1 ISZERO PUSH2 0x202 JUMPI PUSH0 DUP1 REVERT JUMPDEST POP PUSH2 0x216 PUSH2 0x211 CALLDATASIZE PUSH1 0x4 PUSH2 0xFB7 JUMP JUMPDEST PUSH2 0x572 JUMP JUMPDEST STOP JUMPDEST CALLVALUE DUP1 ISZERO PUSH2 0x223 JUMPI PUSH0 DUP1 REVERT JUMPDEST POP PUSH2 0x216 PUSH2 0x652 JUMP JUMPDEST CALLVALUE DUP1 ISZERO PUSH2 0x237 JUMPI PUSH0 DUP1 REVERT JUMPDEST POP PUSH2 0x1E9 PUSH1 0x2 SLOAD DUP2 JUMP JUMPDEST CALLVALUE DUP1 ISZERO PUSH2 0x24C JUMPI PUSH0 DUP1 REVERT JUMPDEST POP PUSH2 0x216 PUSH2 0x79A JUMP JUMPDEST CALLVALUE DUP1 ISZERO PUSH2 0x260 JUMPI PUSH0 DUP1 REVERT JUMPDEST POP PUSH1 0x4 SLOAD PUSH2 0x275 SWAP1 PUSH1 0x1 PUSH1 0xA0 SHL SWAP1 DIV PUSH1 0xFF AND DUP2 JUMP JUMPDEST PUSH1 0x40 MLOAD SWAP1 ISZERO ISZERO DUP2 MSTORE PUSH1 0x20 ADD PUSH2 0x189 JUMP JUMPDEST CALLVALUE DUP1 ISZERO PUSH2 0x290 JUMPI PUSH0 DUP1 REVERT JUMPDEST POP SELFBALANCE PUSH2 0x1E9 JUMP JUMPDEST CALLVALUE DUP1 ISZERO PUSH2 0x2A2 JUMPI PUSH0 DUP1 REVERT JUMPDEST POP PUSH2 0x1A6 PUSH2 0x8A3 JUMP JUMPDEST CALLVALUE DUP1 ISZERO PUSH2 0x2B6 JUMPI PUSH0 DUP1 REVERT JUMPDEST POP PUSH2 0x216 PUSH2 0x2C5 CALLDATASIZE PUSH1 0x4 PUSH2 0xFB7 JUMP JUMPDEST PUSH2 0x8B0 JUMP JUMPDEST CALLVALUE DUP1 ISZERO PUSH2 0x2D5 JUMPI PUSH0 DUP1 REVERT JUMPDEST POP PUSH2 0x275 PUSH2 0x2E4 CALLDATASIZE PUSH1 0x4 PUSH2 0x108E JUMP JUMPDEST PUSH2 0x9FB JUMP JUMPDEST CALLVALUE DUP1 ISZERO PUSH2 0x2F4 JUMPI PUSH0 DUP1 REVERT JUMPDEST POP PUSH1 0x4 SLOAD PUSH2 0x308 SWAP1 PUSH1 0x1 PUSH1 0x1 PUSH1 0xA0 SHL SUB AND DUP2 JUMP JUMPDEST PUSH1 0x40 MLOAD PUSH1 0x1 PUSH1 0x1 PUSH1 0xA0 SHL SUB SWAP1 SWAP2 AND DUP2 MSTORE PUSH1 0x20 ADD PUSH2 0x189 JUMP JUMPDEST CALLVALUE DUP1 ISZERO PUSH2 0x32B JUMPI PUSH0 DUP1 REVERT JUMPDEST POP PUSH2 0x216 PUSH2 0x33A CALLDATASIZE PUSH1 0x4 PUSH2 0x10CA JUMP JUMPDEST PUSH2 0xA2B JUMP JUMPDEST CALLVALUE DUP1 ISZERO PUSH2 0x34A JUMPI PUSH0 DUP1 REVERT JUMPDEST POP PUSH2 0x1E9 PUSH2 0x359 CALLDATASIZE PUSH1 0x4 PUSH2 0x1179 JUMP JUMPDEST PUSH1 0x6 PUSH1 0x20 MSTORE PUSH0 SWAP1 DUP2 MSTORE PUSH1 0x40 SWAP1 KECCAK256 SLOAD DUP2 JUMP JUMPDEST CALLVALUE DUP1 ISZERO PUSH2 0x375 JUMPI PUSH0 DUP1 REVERT JUMPDEST POP PUSH1 0x4 SLOAD PUSH2 0x1C7 SWAP1 PUSH1 0x1 PUSH1 0xA8 SHL SWAP1 DIV PUSH1 0xFF AND DUP2 JUMP JUMPDEST CALLVALUE DUP1 ISZERO PUSH2 0x395 JUMPI PUSH0 DUP1 REVERT JUMPDEST POP PUSH2 0x216 PUSH2 0xB3C JUMP JUMPDEST PUSH2 0x216 PUSH2 0x3AC CALLDATASIZE PUSH1 0x4 PUSH2 0xFB7 JUMP JUMPDEST PUSH2 0xBC2 JUMP JUMPDEST CALLVALUE DUP1 ISZERO PUSH2 0x3BC JUMPI PUSH0 DUP1 REVERT JUMPDEST POP PUSH2 0x3C5 PUSH2 0xDD7 JUMP JUMPDEST PUSH1 0x40 MLOAD PUSH2 0x189 SWAP2 SWAP1 PUSH2 0x1192 JUMP JUMPDEST PUSH1 0x5 DUP2 DUP2 SLOAD DUP2 LT PUSH2 0x3E1 JUMPI PUSH0 DUP1 REVERT JUMPDEST SWAP1 PUSH0 MSTORE PUSH1 0x20 PUSH0 KECCAK256 SWAP1 PUSH1 0x3 MUL ADD PUSH0 SWAP2 POP SWAP1 POP DUP1 PUSH0 ADD DUP1 SLOAD PUSH2 0x400 SWAP1 PUSH2 0x1213 JUMP JUMPDEST DUP1 PUSH1 0x1F ADD PUSH1 0x20 DUP1 SWAP2 DIV MUL PUSH1 0x20 ADD PUSH1 0x40 MLOAD SWAP1 DUP2 ADD PUSH1 0x40 MSTORE DUP1 SWAP3 SWAP2 SWAP1 DUP2 DUP2 MSTORE PUSH1 0x20 ADD DUP3 DUP1 SLOAD PUSH2 0x42C SWAP1 PUSH2 0x1213 JUMP JUMPDEST DUP1 ISZERO PUSH2 0x477 JUMPI DUP1 PUSH1 0x1F LT PUSH2 0x44E JUMPI PUSH2 0x100 DUP1 DUP4 SLOAD DIV MUL DUP4 MSTORE SWAP2 PUSH1 0x20 ADD SWAP2 PUSH2 0x477 JUMP JUMPDEST DUP3 ADD SWAP2 SWAP1 PUSH0 MSTORE PUSH1 0x20 PUSH0 KECCAK256 SWAP1 JUMPDEST DUP2 SLOAD DUP2 MSTORE SWAP1 PUSH1 0x1 ADD SWAP1 PUSH1 0x20 ADD DUP1 DUP4 GT PUSH2 0x45A JUMPI DUP3 SWAP1 SUB PUSH1 0x1F AND DUP3 ADD SWAP2 JUMPDEST POP POP POP POP POP SWAP1 DUP1 PUSH1 0x1 ADD SLOAD SWAP1 DUP1 PUSH1 0x2 ADD SLOAD SWAP1 POP DUP4 JUMP JUMPDEST PUSH0 DUP1 SLOAD PUSH2 0x499 SWAP1 PUSH2 0x1213 JUMP JUMPDEST DUP1 PUSH1 0x1F ADD PUSH1 0x20 DUP1 SWAP2 DIV MUL PUSH1 0x20 ADD PUSH1 0x40 MLOAD SWAP1 DUP2 ADD PUSH1 0x40 MSTORE DUP1 SWAP3 SWAP2 SWAP1 DUP2 DUP2 MSTORE PUSH1 0x20 ADD DUP3 DUP1 SLOAD PUSH2 0x4C5 SWAP1 PUSH2 0x1213 JUMP JUMPDEST DUP1 ISZERO PUSH2 0x510 JUMPI DUP1 PUSH1 0x1F LT PUSH2 0x4E7 JUMPI PUSH2 0x100 DUP1 DUP4 SLOAD DIV MUL DUP4 MSTORE SWAP2 PUSH1 0x20 ADD SWAP2 PUSH2 0x510 JUMP JUMPDEST DUP3 ADD SWAP2 SWAP1 PUSH0 MSTORE PUSH1 0x20 PUSH0 KECCAK256 SWAP1 JUMPDEST DUP2 SLOAD DUP2 MSTORE SWAP1 PUSH1 0x1 ADD SWAP1 PUSH1 0x20 ADD DUP1 DUP4 GT PUSH2 0x4F3 JUMPI DUP3 SWAP1 SUB PUSH1 0x1F AND DUP3 ADD SWAP2 JUMPDEST POP POP POP POP POP DUP2 JUMP JUMPDEST PUSH0 DUP1 PUSH1 0x4 SLOAD PUSH1 0x1 PUSH1 0xA8 SHL SWAP1 DIV PUSH1 0xFF AND PUSH1 0x2 DUP2 GT ISZERO PUSH2 0x538 JUMPI PUSH2 0x538 PUSH2 0x1039 JUMP JUMPDEST EQ DUP1 ISZERO PUSH2 0x546 JUMPI POP PUSH1 0x3 SLOAD TIMESTAMP GT JUMPDEST ISZERO PUSH2 0x561 JUMPI PUSH1 0x2 SLOAD SELFBALANCE LT ISZERO PUSH2 0x55B JUMPI POP PUSH1 0x2 SWAP1 JUMP JUMPDEST POP PUSH1 0x1 SWAP1 JUMP JUMPDEST POP PUSH1 0x4 SLOAD PUSH1 0x1 PUSH1 0xA8 SHL SWAP1 DIV PUSH1 0xFF AND SWAP1 JUMP JUMPDEST PUSH1 0x4 SLOAD PUSH1 0x1 PUSH1 0x1 PUSH1 0xA0 SHL SUB AND CALLER EQ PUSH2 0x5C1 JUMPI PUSH1 0x40 MLOAD PUSH3 0x461BCD PUSH1 0xE5 SHL DUP2 MSTORE PUSH1 0x20 PUSH1 0x4 DUP3 ADD MSTORE PUSH1 0xD PUSH1 0x24 DUP3 ADD MSTORE PUSH13 0x2737BA103A34329037BBB732B9 PUSH1 0x99 SHL PUSH1 0x44 DUP3 ADD MSTORE PUSH1 0x64 ADD JUMPDEST PUSH1 0x40 MLOAD DUP1 SWAP2 SUB SWAP1 REVERT JUMPDEST PUSH0 PUSH1 0x4 SLOAD PUSH1 0x1 PUSH1 0xA8 SHL SWAP1 DIV PUSH1 0xFF AND PUSH1 0x2 DUP2 GT ISZERO PUSH2 0x5E0 JUMPI PUSH2 0x5E0 PUSH2 0x1039 JUMP JUMPDEST EQ PUSH2 0x62D JUMPI PUSH1 0x40 MLOAD PUSH3 0x461BCD PUSH1 0xE5 SHL DUP2 MSTORE PUSH1 0x20 PUSH1 0x4 DUP3 ADD MSTORE PUSH1 0x17 PUSH1 0x24 DUP3 ADD MSTORE PUSH32 0x43616D706169676E206973206E6F74206163746976652E000000000000000000 PUSH1 0x44 DUP3 ADD MSTORE PUSH1 0x64 ADD PUSH2 0x5B8 JUMP JUMPDEST PUSH2 0x63A DUP2 PUSH3 0x15180 PUSH2 0x125F JUMP JUMPDEST PUSH1 0x3 PUSH0 DUP3 DUP3 SLOAD PUSH2 0x64A SWAP2 SWAP1 PUSH2 0x1276 JUMP JUMPDEST SWAP1 SWAP2 SSTORE POP POP POP JUMP JUMPDEST PUSH1 0x4 SLOAD PUSH1 0x1 PUSH1 0x1 PUSH1 0xA0 SHL SUB AND CALLER EQ PUSH2 0x69C JUMPI PUSH1 0x40 MLOAD PUSH3 0x461BCD PUSH1 0xE5 SHL DUP2 MSTORE PUSH1 0x20 PUSH1 0x4 DUP3 ADD MSTORE PUSH1 0xD PUSH1 0x24 DUP3 ADD MSTORE PUSH13 0x2737BA103A34329037BBB732B9 PUSH1 0x99 SHL PUSH1 0x44 DUP3 ADD MSTORE PUSH1 0x64 ADD PUSH2 0x5B8 JUMP JUMPDEST PUSH2 0x6A4 PUSH2 0xED6 JUMP JUMPDEST PUSH1 0x1 PUSH1 0x4 SLOAD PUSH1 0x1 PUSH1 0xA8 SHL SWAP1 DIV PUSH1 0xFF AND PUSH1 0x2 DUP2 GT ISZERO PUSH2 0x6C4 JUMPI PUSH2 0x6C4 PUSH2 0x1039 JUMP JUMPDEST EQ PUSH2 0x711 JUMPI PUSH1 0x40 MLOAD PUSH3 0x461BCD PUSH1 0xE5 SHL DUP2 MSTORE PUSH1 0x20 PUSH1 0x4 DUP3 ADD MSTORE PUSH1 0x18 PUSH1 0x24 DUP3 ADD MSTORE PUSH32 0x43616D706169676E206E6F74207375636365737366756C2E0000000000000000 PUSH1 0x44 DUP3 ADD MSTORE PUSH1 0x64 ADD PUSH2 0x5B8 JUMP JUMPDEST SELFBALANCE DUP1 PUSH2 0x75F JUMPI PUSH1 0x40 MLOAD PUSH3 0x461BCD PUSH1 0xE5 SHL DUP2 MSTORE PUSH1 0x20 PUSH1 0x4 DUP3 ADD MSTORE PUSH1 0x16 PUSH1 0x24 DUP3 ADD MSTORE PUSH32 0x4E6F2062616C616E636520746F20776974686472617700000000000000000000 PUSH1 0x44 DUP3 ADD MSTORE PUSH1 0x64 ADD PUSH2 0x5B8 JUMP JUMPDEST PUSH1 0x4 SLOAD PUSH1 0x40 MLOAD PUSH1 0x1 PUSH1 0x1 PUSH1 0xA0 SHL SUB SWAP1 SWAP2 AND SWAP1 DUP3 ISZERO PUSH2 0x8FC MUL SWAP1 DUP4 SWAP1 PUSH0 DUP2 DUP2 DUP2 DUP6 DUP9 DUP9 CALL SWAP4 POP POP POP POP ISZERO DUP1 ISZERO PUSH2 0x796 JUMPI RETURNDATASIZE PUSH0 DUP1 RETURNDATACOPY RETURNDATASIZE PUSH0 REVERT JUMPDEST POP POP JUMP JUMPDEST PUSH2 0x7A2 PUSH2 0xED6 JUMP JUMPDEST PUSH1 0x2 PUSH1 0x4 SLOAD PUSH1 0x1 PUSH1 0xA8 SHL SWAP1 DIV PUSH1 0xFF AND PUSH1 0x2 DUP2 GT ISZERO PUSH2 0x7C2 JUMPI PUSH2 0x7C2 PUSH2 0x1039 JUMP JUMPDEST EQ PUSH2 0x80F JUMPI PUSH1 0x40 MLOAD PUSH3 0x461BCD PUSH1 0xE5 SHL DUP2 MSTORE PUSH1 0x20 PUSH1 0x4 DUP3 ADD MSTORE PUSH1 0x16 PUSH1 0x24 DUP3 ADD MSTORE PUSH32 0x526566756E6473206E6F7420617661696C61626C652E00000000000000000000 PUSH1 0x44 DUP3 ADD MSTORE PUSH1 0x64 ADD PUSH2 0x5B8 JUMP JUMPDEST CALLER PUSH0 SWAP1 DUP2 MSTORE PUSH1 0x6 PUSH1 0x20 MSTORE PUSH1 0x40 SWAP1 KECCAK256 SLOAD DUP1 PUSH2 0x86B JUMPI PUSH1 0x40 MLOAD PUSH3 0x461BCD PUSH1 0xE5 SHL DUP2 MSTORE PUSH1 0x20 PUSH1 0x4 DUP3 ADD MSTORE PUSH1 0x19 PUSH1 0x24 DUP3 ADD MSTORE PUSH32 0x4E6F20636F6E747269627574696F6E20746F20726566756E6400000000000000 PUSH1 0x44 DUP3 ADD MSTORE PUSH1 0x64 ADD PUSH2 0x5B8 JUMP JUMPDEST CALLER PUSH0 DUP2 DUP2 MSTORE PUSH1 0x6 PUSH1 0x20 MSTORE PUSH1 0x40 DUP1 DUP3 KECCAK256 DUP3 SWAP1 SSTORE MLOAD DUP4 ISZERO PUSH2 0x8FC MUL SWAP2 DUP5 SWAP2 SWAP1 DUP2 DUP2 DUP2 DUP6 DUP9 DUP9 CALL SWAP4 POP POP POP POP ISZERO DUP1 ISZERO PUSH2 0x796 JUMPI RETURNDATASIZE PUSH0 DUP1 RETURNDATACOPY RETURNDATASIZE PUSH0 REVERT JUMPDEST PUSH1 0x1 DUP1 SLOAD PUSH2 0x499 SWAP1 PUSH2 0x1213 JUMP JUMPDEST PUSH1 0x4 SLOAD PUSH1 0x1 PUSH1 0x1 PUSH1 0xA0 SHL SUB AND CALLER EQ PUSH2 0x8FA JUMPI PUSH1 0x40 MLOAD PUSH3 0x461BCD PUSH1 0xE5 SHL DUP2 MSTORE PUSH1 0x20 PUSH1 0x4 DUP3 ADD MSTORE PUSH1 0xD PUSH1 0x24 DUP3 ADD MSTORE PUSH13 0x2737BA103A34329037BBB732B9 PUSH1 0x99 SHL PUSH1 0x44 DUP3 ADD MSTORE PUSH1 0x64 ADD PUSH2 0x5B8 JUMP JUMPDEST PUSH1 0x5 SLOAD DUP2 LT PUSH2 0x94B JUMPI PUSH1 0x40 MLOAD PUSH3 0x461BCD PUSH1 0xE5 SHL DUP2 MSTORE PUSH1 0x20 PUSH1 0x4 DUP3 ADD MSTORE PUSH1 0x14 PUSH1 0x24 DUP3 ADD MSTORE PUSH32 0x5469657220646F6573206E6F742065786973742E000000000000000000000000 PUSH1 0x44 DUP3 ADD MSTORE PUSH1 0x64 ADD PUSH2 0x5B8 JUMP JUMPDEST PUSH1 0x5 DUP1 SLOAD PUSH2 0x95B SWAP1 PUSH1 0x1 SWAP1 PUSH2 0x1289 JUMP JUMPDEST DUP2 SLOAD DUP2 LT PUSH2 0x96B JUMPI PUSH2 0x96B PUSH2 0x129C JUMP JUMPDEST SWAP1 PUSH0 MSTORE PUSH1 0x20 PUSH0 KECCAK256 SWAP1 PUSH1 0x3 MUL ADD PUSH1 0x5 DUP3 DUP2 SLOAD DUP2 LT PUSH2 0x98A JUMPI PUSH2 0x98A PUSH2 0x129C JUMP JUMPDEST PUSH0 SWAP2 DUP3 MSTORE PUSH1 0x20 SWAP1 SWAP2 KECCAK256 PUSH1 0x3 SWAP1 SWAP2 MUL ADD DUP1 PUSH2 0x9A4 DUP4 DUP3 PUSH2 0x12FC JUMP JUMPDEST POP PUSH1 0x1 DUP3 DUP2 ADD SLOAD SWAP1 DUP3 ADD SSTORE PUSH1 0x2 SWAP2 DUP3 ADD SLOAD SWAP2 ADD SSTORE PUSH1 0x5 DUP1 SLOAD DUP1 PUSH2 0x9C9 JUMPI PUSH2 0x9C9 PUSH2 0x13D1 JUMP JUMPDEST PUSH0 DUP3 DUP2 MSTORE PUSH1 0x20 DUP2 KECCAK256 PUSH0 NOT SWAP1 SWAP3 ADD SWAP2 PUSH1 0x3 DUP4 MUL ADD SWAP1 PUSH2 0x9E7 DUP3 DUP3 PUSH2 0xF6D JUMP JUMPDEST POP PUSH0 PUSH1 0x1 DUP3 ADD DUP2 SWAP1 SSTORE PUSH1 0x2 SWAP1 SWAP2 ADD SSTORE SWAP1 SSTORE POP JUMP JUMPDEST PUSH1 0x1 PUSH1 0x1 PUSH1 0xA0 SHL SUB DUP3 AND PUSH0 SWAP1 DUP2 MSTORE PUSH1 0x6 PUSH1 0x20 SWAP1 DUP2 MSTORE PUSH1 0x40 DUP1 DUP4 KECCAK256 DUP5 DUP5 MSTORE PUSH1 0x1 ADD SWAP1 SWAP2 MSTORE SWAP1 KECCAK256 SLOAD PUSH1 0xFF AND JUMPDEST SWAP3 SWAP2 POP POP JUMP JUMPDEST PUSH1 0x4 SLOAD PUSH1 0x1 PUSH1 0x1 PUSH1 0xA0 SHL SUB AND CALLER EQ PUSH2 0xA75 JUMPI PUSH1 0x40 MLOAD PUSH3 0x461BCD PUSH1 0xE5 SHL DUP2 MSTORE PUSH1 0x20 PUSH1 0x4 DUP3 ADD MSTORE PUSH1 0xD PUSH1 0x24 DUP3 ADD MSTORE PUSH13 0x2737BA103A34329037BBB732B9 PUSH1 0x99 SHL PUSH1 0x44 DUP3 ADD MSTORE PUSH1 0x64 ADD PUSH2 0x5B8 JUMP JUMPDEST PUSH0 DUP2 GT PUSH2 0xAC4 JUMPI PUSH1 0x40 MLOAD PUSH3 0x461BCD PUSH1 0xE5 SHL DUP2 MSTORE PUSH1 0x20 PUSH1 0x4 DUP3 ADD MSTORE PUSH1 0x1E PUSH1 0x24 DUP3 ADD MSTORE PUSH32 0x416D6F756E74206D7573742062652067726561746572207468616E20302E0000 PUSH1 0x44 DUP3 ADD MSTORE PUSH1 0x64 ADD PUSH2 0x5B8 JUMP JUMPDEST PUSH1 0x40 DUP1 MLOAD PUSH1 0x60 DUP2 ADD DUP3 MSTORE DUP4 DUP2 MSTORE PUSH1 0x20 DUP2 ADD DUP4 SWAP1 MSTORE PUSH0 SWAP2 DUP2 ADD DUP3 SWAP1 MSTORE PUSH1 0x5 DUP1 SLOAD PUSH1 0x1 DUP2 ADD DUP3 SSTORE SWAP3 MSTORE DUP1 MLOAD SWAP1 SWAP2 PUSH1 0x3 MUL PUSH32 0x36B6384B5ECA791C62761152D0C79BB0604C104A5FB6F4EB0703F3154BB3DB0 ADD SWAP1 DUP2 SWAP1 PUSH2 0xB21 SWAP1 DUP3 PUSH2 0x13E5 JUMP JUMPDEST POP PUSH1 0x20 DUP3 ADD MLOAD DUP2 PUSH1 0x1 ADD SSTORE PUSH1 0x40 DUP3 ADD MLOAD DUP2 PUSH1 0x2 ADD SSTORE POP POP POP POP JUMP JUMPDEST PUSH1 0x4 SLOAD PUSH1 0x1 PUSH1 0x1 PUSH1 0xA0 SHL SUB AND CALLER EQ PUSH2 0xB86 JUMPI PUSH1 0x40 MLOAD PUSH3 0x461BCD PUSH1 0xE5 SHL DUP2 MSTORE PUSH1 0x20 PUSH1 0x4 DUP3 ADD MSTORE PUSH1 0xD PUSH1 0x24 DUP3 ADD MSTORE PUSH13 0x2737BA103A34329037BBB732B9 PUSH1 0x99 SHL PUSH1 0x44 DUP3 ADD MSTORE PUSH1 0x64 ADD PUSH2 0x5B8 JUMP JUMPDEST PUSH1 0x4 DUP1 SLOAD PUSH32 0xFFFFFFFFFFFFFFFFFFFFFF00FFFFFFFFFFFFFFFFFFFFFFFFFFFFFFFFFFFFFFFF DUP2 AND PUSH1 0x1 PUSH1 0xA0 SHL SWAP2 DUP3 SWAP1 DIV PUSH1 0xFF AND ISZERO SWAP1 SWAP2 MUL OR SWAP1 SSTORE JUMP JUMPDEST PUSH0 PUSH1 0x4 SLOAD PUSH1 0x1 PUSH1 0xA8 SHL SWAP1 DIV PUSH1 0xFF AND PUSH1 0x2 DUP2 GT ISZERO PUSH2 0xBE1 JUMPI PUSH2 0xBE1 PUSH2 0x1039 JUMP JUMPDEST EQ PUSH2 0xC2E JUMPI PUSH1 0x40 MLOAD PUSH3 0x461BCD PUSH1 0xE5 SHL DUP2 MSTORE PUSH1 0x20 PUSH1 0x4 DUP3 ADD MSTORE PUSH1 0x17 PUSH1 0x24 DUP3 ADD MSTORE PUSH32 0x43616D706169676E206973206E6F74206163746976652E000000000000000000 PUSH1 0x44 DUP3 ADD MSTORE PUSH1 0x64 ADD PUSH2 0x5B8 JUMP JUMPDEST PUSH1 0x4 SLOAD PUSH1 0x1 PUSH1 0xA0 SHL SWAP1 DIV PUSH1 0xFF AND ISZERO PUSH2 0xC88 JUMPI PUSH1 0x40 MLOAD PUSH3 0x461BCD PUSH1 0xE5 SHL DUP2 MSTORE PUSH1 0x20 PUSH1 0x4 DUP3 ADD MSTORE PUSH1 0x13 PUSH1 0x24 DUP3 ADD MSTORE PUSH32 0x436F6E7472616374206973207061757365642E00000000000000000000000000 PUSH1 0x44 DUP3 ADD MSTORE PUSH1 0x64 ADD PUSH2 0x5B8 JUMP JUMPDEST PUSH1 0x5 SLOAD DUP2 LT PUSH2 0xCD9 JUMPI PUSH1 0x40 MLOAD PUSH3 0x461BCD PUSH1 0xE5 SHL DUP2 MSTORE PUSH1 0x20 PUSH1 0x4 DUP3 ADD MSTORE PUSH1 0xD PUSH1 0x24 DUP3 ADD MSTORE PUSH32 0x496E76616C696420746965722E00000000000000000000000000000000000000 PUSH1 0x44 DUP3 ADD MSTORE PUSH1 0x64 ADD PUSH2 0x5B8 JUMP JUMPDEST PUSH1 0x5 DUP2 DUP2 SLOAD DUP2 LT PUSH2 0xCEC JUMPI PUSH2 0xCEC PUSH2 0x129C JUMP JUMPDEST SWAP1 PUSH0 MSTORE PUSH1 0x20 PUSH0 KECCAK256 SWAP1 PUSH1 0x3 MUL ADD PUSH1 0x1 ADD SLOAD CALLVALUE EQ PUSH2 0xD4A JUMPI PUSH1 0x40 MLOAD PUSH3 0x461BCD PUSH1 0xE5 SHL DUP2 MSTORE PUSH1 0x20 PUSH1 0x4 DUP3 ADD MSTORE PUSH1 0x11 PUSH1 0x24 DUP3 ADD MSTORE PUSH32 0x496E636F727265637420616D6F756E742E000000000000000000000000000000 PUSH1 0x44 DUP3 ADD MSTORE PUSH1 0x64 ADD PUSH2 0x5B8 JUMP JUMPDEST PUSH1 0x5 DUP2 DUP2 SLOAD DUP2 LT PUSH2 0xD5D JUMPI PUSH2 0xD5D PUSH2 0x129C JUMP JUMPDEST PUSH0 SWAP2 DUP3 MSTORE PUSH1 0x20 DUP3 KECCAK256 PUSH1 0x2 PUSH1 0x3 SWAP1 SWAP3 MUL ADD ADD DUP1 SLOAD SWAP2 PUSH2 0xD7A DUP4 PUSH2 0x149F JUMP JUMPDEST SWAP1 SWAP2 SSTORE POP POP CALLER PUSH0 SWAP1 DUP2 MSTORE PUSH1 0x6 PUSH1 0x20 MSTORE PUSH1 0x40 DUP2 KECCAK256 DUP1 SLOAD CALLVALUE SWAP3 SWAP1 PUSH2 0xD9D SWAP1 DUP5 SWAP1 PUSH2 0x1276 JUMP JUMPDEST SWAP1 SWAP2 SSTORE POP POP CALLER PUSH0 SWAP1 DUP2 MSTORE PUSH1 0x6 PUSH1 0x20 SWAP1 DUP2 MSTORE PUSH1 0x40 DUP1 DUP4 KECCAK256 DUP5 DUP5 MSTORE PUSH1 0x1 SWAP1 DUP2 ADD SWAP1 SWAP3 MSTORE SWAP1 SWAP2 KECCAK256 DUP1 SLOAD PUSH1 0xFF NOT AND SWAP1 SWAP2 OR SWAP1 SSTORE PUSH2 0xDD4 PUSH2 0xED6 JUMP JUMPDEST POP JUMP JUMPDEST PUSH1 0x60 PUSH1 0x5 DUP1 SLOAD DUP1 PUSH1 0x20 MUL PUSH1 0x20 ADD PUSH1 0x40 MLOAD SWAP1 DUP2 ADD PUSH1 0x40 MSTORE DUP1 SWAP3 SWAP2 SWAP1 DUP2 DUP2 MSTORE PUSH1 0x20 ADD PUSH0 SWAP1 JUMPDEST DUP3 DUP3 LT ISZERO PUSH2 0xECD JUMPI DUP4 DUP3 SWAP1 PUSH0 MSTORE PUSH1 0x20 PUSH0 KECCAK256 SWAP1 PUSH1 0x3 MUL ADD PUSH1 0x40 MLOAD DUP1 PUSH1 0x60 ADD PUSH1 0x40 MSTORE SWAP1 DUP2 PUSH0 DUP3 ADD DUP1 SLOAD PUSH2 0xE2A SWAP1 PUSH2 0x1213 JUMP JUMPDEST DUP1 PUSH1 0x1F ADD PUSH1 0x20 DUP1 SWAP2 DIV MUL PUSH1 0x20 ADD PUSH1 0x40 MLOAD SWAP1 DUP2 ADD PUSH1 0x40 MSTORE DUP1 SWAP3 SWAP2 SWAP1 DUP2 DUP2 MSTORE PUSH1 0x20 ADD DUP3 DUP1 SLOAD PUSH2 0xE56 SWAP1 PUSH2 0x1213 JUMP JUMPDEST DUP1 ISZERO PUSH2 0xEA1 JUMPI DUP1 PUSH1 0x1F LT PUSH2 0xE78 JUMPI PUSH2 0x100 DUP1 DUP4 SLOAD DIV MUL DUP4 MSTORE SWAP2 PUSH1 0x20 ADD SWAP2 PUSH2 0xEA1 JUMP JUMPDEST DUP3 ADD SWAP2 SWAP1 PUSH0 MSTORE PUSH1 0x20 PUSH0 KECCAK256 SWAP1 JUMPDEST DUP2 SLOAD DUP2 MSTORE SWAP1 PUSH1 0x1 ADD SWAP1 PUSH1 0x20 ADD DUP1 DUP4 GT PUSH2 0xE84 JUMPI DUP3 SWAP1 SUB PUSH1 0x1F AND DUP3 ADD SWAP2 JUMPDEST POP POP POP POP POP DUP2 MSTORE PUSH1 0x20 ADD PUSH1 0x1 DUP3 ADD SLOAD DUP2 MSTORE PUSH1 0x20 ADD PUSH1 0x2 DUP3 ADD SLOAD DUP2 MSTORE POP POP DUP2 MSTORE PUSH1 0x20 ADD SWAP1 PUSH1 0x1 ADD SWAP1 PUSH2 0xDFA JUMP JUMPDEST POP POP POP POP SWAP1 POP SWAP1 JUMP JUMPDEST PUSH0 PUSH1 0x4 SLOAD PUSH1 0x1 PUSH1 0xA8 SHL SWAP1 DIV PUSH1 0xFF AND PUSH1 0x2 DUP2 GT ISZERO PUSH2 0xEF5 JUMPI PUSH2 0xEF5 PUSH2 0x1039 JUMP JUMPDEST SUB PUSH2 0xF6B JUMPI PUSH1 0x3 SLOAD TIMESTAMP LT PUSH2 0xF5B JUMPI PUSH1 0x2 SLOAD SELFBALANCE LT ISZERO PUSH2 0xF14 JUMPI PUSH1 0x2 PUSH2 0xF17 JUMP JUMPDEST PUSH1 0x1 JUMPDEST PUSH1 0x4 DUP1 SLOAD PUSH32 0xFFFFFFFFFFFFFFFFFFFF00FFFFFFFFFFFFFFFFFFFFFFFFFFFFFFFFFFFFFFFFFF AND PUSH1 0x1 PUSH1 0xA8 SHL DUP4 PUSH1 0x2 DUP2 GT ISZERO PUSH2 0xF54 JUMPI PUSH2 0xF54 PUSH2 0x1039 JUMP JUMPDEST MUL OR SWAP1 SSTORE POP JUMP JUMPDEST PUSH1 0x2 SLOAD SELFBALANCE LT ISZERO PUSH2 0xF14 JUMPI PUSH0 PUSH2 0xF17 JUMP JUMPDEST JUMP JUMPDEST POP DUP1 SLOAD PUSH2 0xF79 SWAP1 PUSH2 0x1213 JUMP JUMPDEST PUSH0 DUP3 SSTORE DUP1 PUSH1 0x1F LT PUSH2 0xF88 JUMPI POP POP JUMP JUMPDEST PUSH1 0x1F ADD PUSH1 0x20 SWAP1 DIV SWAP1 PUSH0 MSTORE PUSH1 0x20 PUSH0 KECCAK256 SWAP1 DUP2 ADD SWAP1 PUSH2 0xDD4 SWAP2 SWAP1 JUMPDEST DUP1 DUP3 GT ISZERO PUSH2 0xFB3 JUMPI PUSH0 DUP2 SSTORE PUSH1 0x1 ADD PUSH2 0xFA0 JUMP JUMPDEST POP SWAP1 JUMP JUMPDEST PUSH0 PUSH1 0x20 DUP3 DUP5 SUB SLT ISZERO PUSH2 0xFC7 JUMPI PUSH0 DUP1 REVERT JUMPDEST POP CALLDATALOAD SWAP2 SWAP1 POP JUMP JUMPDEST PUSH0 DUP2 MLOAD DUP1 DUP5 MSTORE DUP1 PUSH1 0x20 DUP5 ADD PUSH1 0x20 DUP7 ADD MCOPY PUSH0 PUSH1 0x20 DUP3 DUP7 ADD ADD MSTORE PUSH1 0x20 PUSH1 0x1F NOT PUSH1 0x1F DUP4 ADD AND DUP6 ADD ADD SWAP2 POP POP SWAP3 SWAP2 POP POP JUMP JUMPDEST PUSH1 0x60 DUP2 MSTORE PUSH0 PUSH2 0x100E PUSH1 0x60 DUP4 ADD DUP7 PUSH2 0xFCE JUMP JUMPDEST PUSH1 0x20 DUP4 ADD SWAP5 SWAP1 SWAP5 MSTORE POP PUSH1 0x40 ADD MSTORE SWAP2 SWAP1 POP JUMP JUMPDEST PUSH1 0x20 DUP2 MSTORE PUSH0 PUSH2 0x1032 PUSH1 0x20 DUP4 ADD DUP5 PUSH2 0xFCE JUMP JUMPDEST SWAP4 SWAP3 POP POP POP JUMP JUMPDEST PUSH4 0x4E487B71 PUSH1 0xE0 SHL PUSH0 MSTORE PUSH1 0x21 PUSH1 0x4 MSTORE PUSH1 0x24 PUSH0 REVERT JUMPDEST PUSH1 0x20 DUP2 ADD PUSH1 0x3 DUP4 LT PUSH2 0x106D JUMPI PUSH4 0x4E487B71 PUSH1 0xE0 SHL PUSH0 MSTORE PUSH1 0x21 PUSH1 0x4 MSTORE PUSH1 0x24 PUSH0 REVERT JUMPDEST SWAP2 SWAP1 MSTORE SWAP1 JUMP JUMPDEST DUP1 CALLDATALOAD PUSH1 0x1 PUSH1 0x1 PUSH1 0xA0 SHL SUB DUP2 AND DUP2 EQ PUSH2 0x1089 JUMPI PUSH0 DUP1 REVERT JUMPDEST SWAP2 SWAP1 POP JUMP JUMPDEST PUSH0 DUP1 PUSH1 0x40 DUP4 DUP6 SUB SLT ISZERO PUSH2 0x109F JUMPI PUSH0 DUP1 REVERT JUMPDEST PUSH2 0x10A8 DUP4 PUSH2 0x1073 JUMP JUMPDEST SWAP5 PUSH1 0x20 SWAP4 SWAP1 SWAP4 ADD CALLDATALOAD SWAP4 POP POP POP JUMP JUMPDEST PUSH4 0x4E487B71 PUSH1 0xE0 SHL PUSH0 MSTORE PUSH1 0x41 PUSH1 0x4 MSTORE PUSH1 0x24 PUSH0 REVERT JUMPDEST PUSH0 DUP1 PUSH1 0x40 DUP4 DUP6 SUB SLT ISZERO PUSH2 0x10DB JUMPI PUSH0 DUP1 REVERT JUMPDEST DUP3 CALLDATALOAD PUSH8 0xFFFFFFFFFFFFFFFF DUP1 DUP3 GT ISZERO PUSH2 0x10F2 JUMPI PUSH0 DUP1 REVERT JUMPDEST DUP2 DUP6 ADD SWAP2 POP DUP6 PUSH1 0x1F DUP4 ADD SLT PUSH2 0x1105 JUMPI PUSH0 DUP1 REVERT JUMPDEST DUP2 CALLDATALOAD DUP2 DUP2 GT ISZERO PUSH2 0x1117 JUMPI PUSH2 0x1117 PUSH2 0x10B6 JUMP JUMPDEST PUSH1 0x40 MLOAD PUSH1 0x1F DUP3 ADD PUSH1 0x1F NOT SWAP1 DUP2 AND PUSH1 0x3F ADD AND DUP2 ADD SWAP1 DUP4 DUP3 GT DUP2 DUP4 LT OR ISZERO PUSH2 0x113F JUMPI PUSH2 0x113F PUSH2 0x10B6 JUMP JUMPDEST DUP2 PUSH1 0x40 MSTORE DUP3 DUP2 MSTORE DUP9 PUSH1 0x20 DUP5 DUP8 ADD ADD GT ISZERO PUSH2 0x1157 JUMPI PUSH0 DUP1 REVERT JUMPDEST DUP3 PUSH1 0x20 DUP7 ADD PUSH1 0x20 DUP4 ADD CALLDATACOPY PUSH0 PUSH1 0x20 SWAP4 DUP3 ADD DUP5 ADD MSTORE SWAP9 SWAP7 SWAP1 SWAP2 ADD CALLDATALOAD SWAP7 POP POP POP POP POP POP JUMP JUMPDEST PUSH0 PUSH1 0x20 DUP3 DUP5 SUB SLT ISZERO PUSH2 0x1189 JUMPI PUSH0 DUP1 REVERT JUMPDEST PUSH2 0x1032 DUP3 PUSH2 0x1073 JUMP JUMPDEST PUSH0 PUSH1 0x20 DUP1 DUP4 ADD DUP2 DUP5 MSTORE DUP1 DUP6 MLOAD DUP1 DUP4 MSTORE PUSH1 0x40 SWAP3 POP PUSH1 0x40 DUP7 ADD SWAP2 POP PUSH1 0x40 DUP2 PUSH1 0x5 SHL DUP8 ADD ADD DUP5 DUP9 ADD PUSH0 JUMPDEST DUP4 DUP2 LT ISZERO PUSH2 0x1205 JUMPI PUSH1 0x3F NOT DUP10 DUP5 SUB ADD DUP6 MSTORE DUP2 MLOAD PUSH1 0x60 DUP2 MLOAD DUP2 DUP7 MSTORE PUSH2 0x11DF DUP3 DUP8 ADD DUP3 PUSH2 0xFCE JUMP JUMPDEST DUP4 DUP12 ADD MLOAD DUP8 DUP13 ADD MSTORE SWAP3 DUP10 ADD MLOAD SWAP6 DUP10 ADD SWAP6 SWAP1 SWAP6 MSTORE POP SWAP5 DUP8 ADD SWAP5 SWAP3 POP SWAP1 DUP7 ADD SWAP1 PUSH1 0x1 ADD PUSH2 0x11B9 JUMP JUMPDEST POP SWAP1 SWAP9 SWAP8 POP POP POP POP POP POP POP POP JUMP JUMPDEST PUSH1 0x1 DUP2 DUP2 SHR SWAP1 DUP3 AND DUP1 PUSH2 0x1227 JUMPI PUSH1 0x7F DUP3 AND SWAP2 POP JUMPDEST PUSH1 0x20 DUP3 LT DUP2 SUB PUSH2 0x1245 JUMPI PUSH4 0x4E487B71 PUSH1 0xE0 SHL PUSH0 MSTORE PUSH1 0x22 PUSH1 0x4 MSTORE PUSH1 0x24 PUSH0 REVERT JUMPDEST POP SWAP2 SWAP1 POP JUMP JUMPDEST PUSH4 0x4E487B71 PUSH1 0xE0 SHL PUSH0 MSTORE PUSH1 0x11 PUSH1 0x4 MSTORE PUSH1 0x24 PUSH0 REVERT JUMPDEST DUP1 DUP3 MUL DUP2 ISZERO DUP3 DUP3 DIV DUP5 EQ OR PUSH2 0xA25 JUMPI PUSH2 0xA25 PUSH2 0x124B JUMP JUMPDEST DUP1 DUP3 ADD DUP1 DUP3 GT ISZERO PUSH2 0xA25 JUMPI PUSH2 0xA25 PUSH2 0x124B JUMP JUMPDEST DUP2 DUP2 SUB DUP2 DUP2 GT ISZERO PUSH2 0xA25 JUMPI PUSH2 0xA25 PUSH2 0x124B JUMP JUMPDEST PUSH4 0x4E487B71 PUSH1 0xE0 SHL PUSH0 MSTORE PUSH1 0x32 PUSH1 0x4 MSTORE PUSH1 0x24 PUSH0 REVERT JUMPDEST PUSH1 0x1F DUP3 GT ISZERO PUSH2 0x12F7 JUMPI DUP1 PUSH0 MSTORE PUSH1 0x20 PUSH0 KECCAK256 PUSH1 0x1F DUP5 ADD PUSH1 0x5 SHR DUP2 ADD PUSH1 0x20 DUP6 LT ISZERO PUSH2 0x12D5 JUMPI POP DUP1 JUMPDEST PUSH1 0x1F DUP5 ADD PUSH1 0x5 SHR DUP3 ADD SWAP2 POP JUMPDEST DUP2 DUP2 LT ISZERO PUSH2 0x12F4 JUMPI PUSH0 DUP2 SSTORE PUSH1 0x1 ADD PUSH2 0x12E1 JUMP JUMPDEST POP POP JUMPDEST POP POP POP JUMP JUMPDEST DUP2 DUP2 SUB PUSH2 0x1307 JUMPI POP POP JUMP JUMPDEST PUSH2 0x1311 DUP3 SLOAD PUSH2 0x1213 JUMP JUMPDEST PUSH8 0xFFFFFFFFFFFFFFFF DUP2 GT ISZERO PUSH2 0x1329 JUMPI PUSH2 0x1329 PUSH2 0x10B6 JUMP JUMPDEST PUSH2 0x133D DUP2 PUSH2 0x1337 DUP5 SLOAD PUSH2 0x1213 JUMP JUMPDEST DUP5 PUSH2 0x12B0 JUMP JUMPDEST PUSH0 PUSH1 0x1F DUP3 GT PUSH1 0x1 DUP2 EQ PUSH2 0x136E JUMPI PUSH0 DUP4 ISZERO PUSH2 0x1357 JUMPI POP DUP5 DUP3 ADD SLOAD JUMPDEST PUSH0 NOT PUSH1 0x3 DUP6 SWAP1 SHL SHR NOT AND PUSH1 0x1 DUP5 SWAP1 SHL OR DUP5 SSTORE PUSH2 0x12F4 JUMP JUMPDEST PUSH0 DUP6 DUP2 MSTORE PUSH1 0x20 DUP1 DUP3 KECCAK256 DUP7 DUP4 MSTORE SWAP1 DUP3 KECCAK256 PUSH1 0x1F NOT DUP7 AND SWAP3 JUMPDEST DUP4 DUP2 LT ISZERO PUSH2 0x13A4 JUMPI DUP3 DUP7 ADD SLOAD DUP3 SSTORE PUSH1 0x1 SWAP6 DUP7 ADD SWAP6 SWAP1 SWAP2 ADD SWAP1 PUSH1 0x20 ADD PUSH2 0x1384 JUMP JUMPDEST POP DUP6 DUP4 LT ISZERO PUSH2 0x13C1 JUMPI DUP2 DUP6 ADD SLOAD PUSH0 NOT PUSH1 0x3 DUP9 SWAP1 SHL PUSH1 0xF8 AND SHR NOT AND DUP2 SSTORE JUMPDEST POP POP POP POP POP PUSH1 0x1 SWAP1 DUP2 SHL ADD SWAP1 SSTORE POP JUMP JUMPDEST PUSH4 0x4E487B71 PUSH1 0xE0 SHL PUSH0 MSTORE PUSH1 0x31 PUSH1 0x4 MSTORE PUSH1 0x24 PUSH0 REVERT JUMPDEST DUP2 MLOAD PUSH8 0xFFFFFFFFFFFFFFFF DUP2 GT ISZERO PUSH2 0x13FF JUMPI PUSH2 0x13FF PUSH2 0x10B6 JUMP JUMPDEST PUSH2 0x140D DUP2 PUSH2 0x1337 DUP5 SLOAD PUSH2 0x1213 JUMP JUMPDEST PUSH1 0x20 DUP1 PUSH1 0x1F DUP4 GT PUSH1 0x1 DUP2 EQ PUSH2 0x1440 JUMPI PUSH0 DUP5 ISZERO PUSH2 0x1429 JUMPI POP DUP6 DUP4 ADD MLOAD JUMPDEST PUSH0 NOT PUSH1 0x3 DUP7 SWAP1 SHL SHR NOT AND PUSH1 0x1 DUP6 SWAP1 SHL OR DUP6 SSTORE PUSH2 0x1497 JUMP JUMPDEST PUSH0 DUP6 DUP2 MSTORE PUSH1 0x20 DUP2 KECCAK256 PUSH1 0x1F NOT DUP7 AND SWAP2 JUMPDEST DUP3 DUP2 LT ISZERO PUSH2 0x146E JUMPI DUP9 DUP7 ADD MLOAD DUP3 SSTORE SWAP5 DUP5 ADD SWAP5 PUSH1 0x1 SWAP1 SWAP2 ADD SWAP1 DUP5 ADD PUSH2 0x144F JUMP JUMPDEST POP DUP6 DUP3 LT ISZERO PUSH2 0x148B JUMPI DUP8 DUP6 ADD MLOAD PUSH0 NOT PUSH1 0x3 DUP9 SWAP1 SHL PUSH1 0xF8 AND SHR NOT AND DUP2 SSTORE JUMPDEST POP POP PUSH1 0x1 DUP5 PUSH1 0x1 SHL ADD DUP6 SSTORE JUMPDEST POP POP POP POP POP POP JUMP JUMPDEST PUSH0 PUSH1 0x1 DUP3 ADD PUSH2 0x14B0 JUMPI PUSH2 0x14B0 PUSH2 0x124B JUMP JUMPDEST POP PUSH1 0x1 ADD SWAP1 JUMP INVALID LOG2 PUSH5 0x6970667358 0x22 SLT KECCAK256 DUP7 0xE4 0x2F 0xF7 MSTORE8 0xE4 0x4D CALLDATALOAD PUSH27 0x9BAFB85DAFF801390BCEE9363A4DB506C888ACF757262264736F6C PUSH4 0x43000819 STOP CALLER LOG2 PUSH5 0x6970667358 0x22 SLT KECCAK256 0xB6 0xCE MSIZE 0xEE 0xD 0xA6 0xD MSIZE 0xE4 COINBASE NUMBER 0xBC PUSH19 0xC18B8742B10B7FB2A466119E03204EA6EAE1D3 PUSH5 0x736F6C6343 STOP ADDMOD NOT STOP CALLER "
    },
    "gasEstimates": {
      "creation": {
        "codeDepositCost": "1846800",
        "executionCost": "26180",
        "totalCost": "1872980"
      },
      "external": {
        "campaigns(uint256)": "infinite",
        "createCampaign(string,string,uint256,uint256)": "infinite",
        "getAllCampaigns()": "infinite",
        "getUserCampaigns(address)": "infinite",
        "owner()": "2335",
        "paused()": "2370",
        "togglePause()": "26611",
        "userCampaigns(address,uint256)": "infinite"
      }
    },
    "methodIdentifiers": {
      "campaigns(uint256)": "141961bc",
      "createCampaign(string,string,uint256,uint256)": "a318f269",
      "getAllCampaigns()": "86cdf604",
      "getUserCampaigns(address)": "a1e5084c",
      "owner()": "8da5cb5b",
      "paused()": "5c975abb",
      "togglePause()": "c4ae3168",
      "userCampaigns(address,uint256)": "19ac74bd"
    }
  },
  "storageLayout": {
    "storage": [
      {
        "astId": 478,
        "contract": "CrowdfundingFactory.sol:CrowdfundingFactory",
        "label": "owner",
        "offset": 0,
        "slot": "0",
        "type": "t_address"
      },
      {
        "astId": 480,
        "contract": "CrowdfundingFactory.sol:CrowdfundingFactory",
        "label": "paused",
        "offset": 20,
        "slot": "0",
        "type": "t_bool"
      },
      {
        "astId": 493,
        "contract": "CrowdfundingFactory.sol:CrowdfundingFactory",
        "label": "campaigns",
        "offset": 0,
        "slot": "1",
        "type": "t_array(t_struct(Campaign)489_storage)dyn_storage"
      },
      {
        "astId": 499,
        "contract": "CrowdfundingFactory.sol:CrowdfundingFactory",
        "label": "userCampaigns",
        "offset": 0,
        "slot": "2",
        "type": "t_mapping(t_address,t_array(t_struct(Campaign)489_storage)dyn_storage)"
      }
    ],
    "types": {
      "t_address": {
        "encoding": "inplace",
        "label": "address",
        "numberOfBytes": "20"
      },
      "t_array(t_struct(Campaign)489_storage)dyn_storage": {
        "base": "t_struct(Campaign)489_storage",
        "encoding": "dynamic_array",
        "label": "struct CrowdfundingFactory.Campaign[]",
        "numberOfBytes": "32"
      },
      "t_bool": {
        "encoding": "inplace",
        "label": "bool",
        "numberOfBytes": "1"
      },
      "t_mapping(t_address,t_array(t_struct(Campaign)489_storage)dyn_storage)": {
        "encoding": "mapping",
        "key": "t_address",
        "label": "mapping(address => struct CrowdfundingFactory.Campaign[])",
        "numberOfBytes": "32",
        "value": "t_array(t_struct(Campaign)489_storage)dyn_storage"
      },
      "t_string_storage": {
        "encoding": "bytes",
        "label": "string",
        "numberOfBytes": "32"
      },
      "t_struct(Campaign)489_storage": {
        "encoding": "inplace",
        "label": "struct CrowdfundingFactory.Campaign",
        "members": [
          {
            "astId": 482,
            "contract": "CrowdfundingFactory.sol:CrowdfundingFactory",
            "label": "campaignAddress",
            "offset": 0,
            "slot": "0",
            "type": "t_address"
          },
          {
            "astId": 484,
            "contract": "CrowdfundingFactory.sol:CrowdfundingFactory",
            "label": "owner",
            "offset": 0,
            "slot": "1",
            "type": "t_address"
          },
          {
            "astId": 486,
            "contract": "CrowdfundingFactory.sol:CrowdfundingFactory",
            "label": "name",
            "offset": 0,
            "slot": "2",
            "type": "t_string_storage"
          },
          {
            "astId": 488,
            "contract": "CrowdfundingFactory.sol:CrowdfundingFactory",
            "label": "creationTime",
            "offset": 0,
            "slot": "3",
            "type": "t_uint256"
          }
        ],
        "numberOfBytes": "128"
      },
      "t_uint256": {
        "encoding": "inplace",
        "label": "uint256",
        "numberOfBytes": "32"
      }
    }
  },
  "userdoc": {
    "kind": "user",
    "methods": {},
    "version": 1
  }
}